{
  "_format": "hh-sol-artifact-1",
  "contractName": "GovernorContract",
  "sourceName": "contracts/GovernorContract.sol",
  "abi": [
    {
      "inputs": [
        {
          "internalType": "contract IVotes",
          "name": "_token",
          "type": "address"
        },
        {
          "internalType": "contract TimelockController",
          "name": "_timelock",
          "type": "address"
        },
        {
          "internalType": "uint256",
          "name": "_quorumPercentage",
          "type": "uint256"
        },
        {
          "internalType": "uint256",
          "name": "_votingPeriod",
          "type": "uint256"
        },
        {
          "internalType": "uint256",
          "name": "_votingDelay",
          "type": "uint256"
        }
      ],
      "stateMutability": "nonpayable",
      "type": "constructor"
    },
    {
      "inputs": [],
      "name": "Empty",
      "type": "error"
    },
    {
      "anonymous": false,
      "inputs": [
        {
          "indexed": false,
          "internalType": "uint256",
          "name": "proposalId",
          "type": "uint256"
        }
      ],
      "name": "ProposalCanceled",
      "type": "event"
    },
    {
      "anonymous": false,
      "inputs": [
        {
          "indexed": false,
          "internalType": "uint256",
          "name": "proposalId",
          "type": "uint256"
        },
        {
          "indexed": false,
          "internalType": "address",
          "name": "proposer",
          "type": "address"
        },
        {
          "indexed": false,
          "internalType": "address[]",
          "name": "targets",
          "type": "address[]"
        },
        {
          "indexed": false,
          "internalType": "uint256[]",
          "name": "values",
          "type": "uint256[]"
        },
        {
          "indexed": false,
          "internalType": "string[]",
          "name": "signatures",
          "type": "string[]"
        },
        {
          "indexed": false,
          "internalType": "bytes[]",
          "name": "calldatas",
          "type": "bytes[]"
        },
        {
          "indexed": false,
          "internalType": "uint256",
          "name": "startBlock",
          "type": "uint256"
        },
        {
          "indexed": false,
          "internalType": "uint256",
          "name": "endBlock",
          "type": "uint256"
        },
        {
          "indexed": false,
          "internalType": "string",
          "name": "description",
          "type": "string"
        }
      ],
      "name": "ProposalCreated",
      "type": "event"
    },
    {
      "anonymous": false,
      "inputs": [
        {
          "indexed": false,
          "internalType": "uint256",
          "name": "proposalId",
          "type": "uint256"
        }
      ],
      "name": "ProposalExecuted",
      "type": "event"
    },
    {
      "anonymous": false,
      "inputs": [
        {
          "indexed": false,
          "internalType": "uint256",
          "name": "proposalId",
          "type": "uint256"
        },
        {
          "indexed": false,
          "internalType": "uint256",
          "name": "eta",
          "type": "uint256"
        }
      ],
      "name": "ProposalQueued",
      "type": "event"
    },
    {
      "anonymous": false,
      "inputs": [
        {
          "indexed": false,
          "internalType": "uint256",
          "name": "oldProposalThreshold",
          "type": "uint256"
        },
        {
          "indexed": false,
          "internalType": "uint256",
          "name": "newProposalThreshold",
          "type": "uint256"
        }
      ],
      "name": "ProposalThresholdSet",
      "type": "event"
    },
    {
      "anonymous": false,
      "inputs": [
        {
          "indexed": false,
          "internalType": "uint256",
          "name": "oldQuorumNumerator",
          "type": "uint256"
        },
        {
          "indexed": false,
          "internalType": "uint256",
          "name": "newQuorumNumerator",
          "type": "uint256"
        }
      ],
      "name": "QuorumNumeratorUpdated",
      "type": "event"
    },
    {
      "anonymous": false,
      "inputs": [
        {
          "indexed": false,
          "internalType": "address",
          "name": "oldTimelock",
          "type": "address"
        },
        {
          "indexed": false,
          "internalType": "address",
          "name": "newTimelock",
          "type": "address"
        }
      ],
      "name": "TimelockChange",
      "type": "event"
    },
    {
      "anonymous": false,
      "inputs": [
        {
          "indexed": true,
          "internalType": "address",
          "name": "voter",
          "type": "address"
        },
        {
          "indexed": false,
          "internalType": "uint256",
          "name": "proposalId",
          "type": "uint256"
        },
        {
          "indexed": false,
          "internalType": "uint8",
          "name": "support",
          "type": "uint8"
        },
        {
          "indexed": false,
          "internalType": "uint256",
          "name": "weight",
          "type": "uint256"
        },
        {
          "indexed": false,
          "internalType": "string",
          "name": "reason",
          "type": "string"
        }
      ],
      "name": "VoteCast",
      "type": "event"
    },
    {
      "anonymous": false,
      "inputs": [
        {
          "indexed": true,
          "internalType": "address",
          "name": "voter",
          "type": "address"
        },
        {
          "indexed": false,
          "internalType": "uint256",
          "name": "proposalId",
          "type": "uint256"
        },
        {
          "indexed": false,
          "internalType": "uint8",
          "name": "support",
          "type": "uint8"
        },
        {
          "indexed": false,
          "internalType": "uint256",
          "name": "weight",
          "type": "uint256"
        },
        {
          "indexed": false,
          "internalType": "string",
          "name": "reason",
          "type": "string"
        },
        {
          "indexed": false,
          "internalType": "bytes",
          "name": "params",
          "type": "bytes"
        }
      ],
      "name": "VoteCastWithParams",
      "type": "event"
    },
    {
      "anonymous": false,
      "inputs": [
        {
          "indexed": false,
          "internalType": "uint256",
          "name": "oldVotingDelay",
          "type": "uint256"
        },
        {
          "indexed": false,
          "internalType": "uint256",
          "name": "newVotingDelay",
          "type": "uint256"
        }
      ],
      "name": "VotingDelaySet",
      "type": "event"
    },
    {
      "anonymous": false,
      "inputs": [
        {
          "indexed": false,
          "internalType": "uint256",
          "name": "oldVotingPeriod",
          "type": "uint256"
        },
        {
          "indexed": false,
          "internalType": "uint256",
          "name": "newVotingPeriod",
          "type": "uint256"
        }
      ],
      "name": "VotingPeriodSet",
      "type": "event"
    },
    {
      "inputs": [],
      "name": "BALLOT_TYPEHASH",
      "outputs": [
        {
          "internalType": "bytes32",
          "name": "",
          "type": "bytes32"
        }
      ],
      "stateMutability": "view",
      "type": "function"
    },
    {
      "inputs": [],
      "name": "COUNTING_MODE",
      "outputs": [
        {
          "internalType": "string",
          "name": "",
          "type": "string"
        }
      ],
      "stateMutability": "pure",
      "type": "function"
    },
    {
      "inputs": [],
      "name": "EXTENDED_BALLOT_TYPEHASH",
      "outputs": [
        {
          "internalType": "bytes32",
          "name": "",
          "type": "bytes32"
        }
      ],
      "stateMutability": "view",
      "type": "function"
    },
    {
      "inputs": [
        {
          "internalType": "uint256",
          "name": "proposalId",
          "type": "uint256"
        },
        {
          "internalType": "uint8",
          "name": "support",
          "type": "uint8"
        }
      ],
      "name": "castVote",
      "outputs": [
        {
          "internalType": "uint256",
          "name": "",
          "type": "uint256"
        }
      ],
      "stateMutability": "nonpayable",
      "type": "function"
    },
    {
      "inputs": [
        {
          "internalType": "uint256",
          "name": "proposalId",
          "type": "uint256"
        },
        {
          "internalType": "uint8",
          "name": "support",
          "type": "uint8"
        },
        {
          "internalType": "uint8",
          "name": "v",
          "type": "uint8"
        },
        {
          "internalType": "bytes32",
          "name": "r",
          "type": "bytes32"
        },
        {
          "internalType": "bytes32",
          "name": "s",
          "type": "bytes32"
        }
      ],
      "name": "castVoteBySig",
      "outputs": [
        {
          "internalType": "uint256",
          "name": "",
          "type": "uint256"
        }
      ],
      "stateMutability": "nonpayable",
      "type": "function"
    },
    {
      "inputs": [
        {
          "internalType": "uint256",
          "name": "proposalId",
          "type": "uint256"
        },
        {
          "internalType": "uint8",
          "name": "support",
          "type": "uint8"
        },
        {
          "internalType": "string",
          "name": "reason",
          "type": "string"
        }
      ],
      "name": "castVoteWithReason",
      "outputs": [
        {
          "internalType": "uint256",
          "name": "",
          "type": "uint256"
        }
      ],
      "stateMutability": "nonpayable",
      "type": "function"
    },
    {
      "inputs": [
        {
          "internalType": "uint256",
          "name": "proposalId",
          "type": "uint256"
        },
        {
          "internalType": "uint8",
          "name": "support",
          "type": "uint8"
        },
        {
          "internalType": "string",
          "name": "reason",
          "type": "string"
        },
        {
          "internalType": "bytes",
          "name": "params",
          "type": "bytes"
        }
      ],
      "name": "castVoteWithReasonAndParams",
      "outputs": [
        {
          "internalType": "uint256",
          "name": "",
          "type": "uint256"
        }
      ],
      "stateMutability": "nonpayable",
      "type": "function"
    },
    {
      "inputs": [
        {
          "internalType": "uint256",
          "name": "proposalId",
          "type": "uint256"
        },
        {
          "internalType": "uint8",
          "name": "support",
          "type": "uint8"
        },
        {
          "internalType": "string",
          "name": "reason",
          "type": "string"
        },
        {
          "internalType": "bytes",
          "name": "params",
          "type": "bytes"
        },
        {
          "internalType": "uint8",
          "name": "v",
          "type": "uint8"
        },
        {
          "internalType": "bytes32",
          "name": "r",
          "type": "bytes32"
        },
        {
          "internalType": "bytes32",
          "name": "s",
          "type": "bytes32"
        }
      ],
      "name": "castVoteWithReasonAndParamsBySig",
      "outputs": [
        {
          "internalType": "uint256",
          "name": "",
          "type": "uint256"
        }
      ],
      "stateMutability": "nonpayable",
      "type": "function"
    },
    {
      "inputs": [
        {
          "internalType": "address[]",
          "name": "targets",
          "type": "address[]"
        },
        {
          "internalType": "uint256[]",
          "name": "values",
          "type": "uint256[]"
        },
        {
          "internalType": "bytes[]",
          "name": "calldatas",
          "type": "bytes[]"
        },
        {
          "internalType": "bytes32",
          "name": "descriptionHash",
          "type": "bytes32"
        }
      ],
      "name": "execute",
      "outputs": [
        {
          "internalType": "uint256",
          "name": "",
          "type": "uint256"
        }
      ],
      "stateMutability": "payable",
      "type": "function"
    },
    {
      "inputs": [
        {
          "internalType": "address",
          "name": "account",
          "type": "address"
        },
        {
          "internalType": "uint256",
          "name": "blockNumber",
          "type": "uint256"
        }
      ],
      "name": "getVotes",
      "outputs": [
        {
          "internalType": "uint256",
          "name": "",
          "type": "uint256"
        }
      ],
      "stateMutability": "view",
      "type": "function"
    },
    {
      "inputs": [
        {
          "internalType": "address",
          "name": "account",
          "type": "address"
        },
        {
          "internalType": "uint256",
          "name": "blockNumber",
          "type": "uint256"
        },
        {
          "internalType": "bytes",
          "name": "params",
          "type": "bytes"
        }
      ],
      "name": "getVotesWithParams",
      "outputs": [
        {
          "internalType": "uint256",
          "name": "",
          "type": "uint256"
        }
      ],
      "stateMutability": "view",
      "type": "function"
    },
    {
      "inputs": [
        {
          "internalType": "uint256",
          "name": "proposalId",
          "type": "uint256"
        },
        {
          "internalType": "address",
          "name": "account",
          "type": "address"
        }
      ],
      "name": "hasVoted",
      "outputs": [
        {
          "internalType": "bool",
          "name": "",
          "type": "bool"
        }
      ],
      "stateMutability": "view",
      "type": "function"
    },
    {
      "inputs": [
        {
          "internalType": "address[]",
          "name": "targets",
          "type": "address[]"
        },
        {
          "internalType": "uint256[]",
          "name": "values",
          "type": "uint256[]"
        },
        {
          "internalType": "bytes[]",
          "name": "calldatas",
          "type": "bytes[]"
        },
        {
          "internalType": "bytes32",
          "name": "descriptionHash",
          "type": "bytes32"
        }
      ],
      "name": "hashProposal",
      "outputs": [
        {
          "internalType": "uint256",
          "name": "",
          "type": "uint256"
        }
      ],
      "stateMutability": "pure",
      "type": "function"
    },
    {
      "inputs": [],
      "name": "name",
      "outputs": [
        {
          "internalType": "string",
          "name": "",
          "type": "string"
        }
      ],
      "stateMutability": "view",
      "type": "function"
    },
    {
      "inputs": [
        {
          "internalType": "address",
          "name": "",
          "type": "address"
        },
        {
          "internalType": "address",
          "name": "",
          "type": "address"
        },
        {
          "internalType": "uint256[]",
          "name": "",
          "type": "uint256[]"
        },
        {
          "internalType": "uint256[]",
          "name": "",
          "type": "uint256[]"
        },
        {
          "internalType": "bytes",
          "name": "",
          "type": "bytes"
        }
      ],
      "name": "onERC1155BatchReceived",
      "outputs": [
        {
          "internalType": "bytes4",
          "name": "",
          "type": "bytes4"
        }
      ],
      "stateMutability": "nonpayable",
      "type": "function"
    },
    {
      "inputs": [
        {
          "internalType": "address",
          "name": "",
          "type": "address"
        },
        {
          "internalType": "address",
          "name": "",
          "type": "address"
        },
        {
          "internalType": "uint256",
          "name": "",
          "type": "uint256"
        },
        {
          "internalType": "uint256",
          "name": "",
          "type": "uint256"
        },
        {
          "internalType": "bytes",
          "name": "",
          "type": "bytes"
        }
      ],
      "name": "onERC1155Received",
      "outputs": [
        {
          "internalType": "bytes4",
          "name": "",
          "type": "bytes4"
        }
      ],
      "stateMutability": "nonpayable",
      "type": "function"
    },
    {
      "inputs": [
        {
          "internalType": "address",
          "name": "",
          "type": "address"
        },
        {
          "internalType": "address",
          "name": "",
          "type": "address"
        },
        {
          "internalType": "uint256",
          "name": "",
          "type": "uint256"
        },
        {
          "internalType": "bytes",
          "name": "",
          "type": "bytes"
        }
      ],
      "name": "onERC721Received",
      "outputs": [
        {
          "internalType": "bytes4",
          "name": "",
          "type": "bytes4"
        }
      ],
      "stateMutability": "nonpayable",
      "type": "function"
    },
    {
      "inputs": [
        {
          "internalType": "uint256",
          "name": "proposalId",
          "type": "uint256"
        }
      ],
      "name": "proposalDeadline",
      "outputs": [
        {
          "internalType": "uint256",
          "name": "",
          "type": "uint256"
        }
      ],
      "stateMutability": "view",
      "type": "function"
    },
    {
      "inputs": [
        {
          "internalType": "uint256",
          "name": "proposalId",
          "type": "uint256"
        }
      ],
      "name": "proposalEta",
      "outputs": [
        {
          "internalType": "uint256",
          "name": "",
          "type": "uint256"
        }
      ],
      "stateMutability": "view",
      "type": "function"
    },
    {
      "inputs": [
        {
          "internalType": "uint256",
          "name": "proposalId",
          "type": "uint256"
        }
      ],
      "name": "proposalSnapshot",
      "outputs": [
        {
          "internalType": "uint256",
          "name": "",
          "type": "uint256"
        }
      ],
      "stateMutability": "view",
      "type": "function"
    },
    {
      "inputs": [],
      "name": "proposalThreshold",
      "outputs": [
        {
          "internalType": "uint256",
          "name": "",
          "type": "uint256"
        }
      ],
      "stateMutability": "view",
      "type": "function"
    },
    {
      "inputs": [
        {
          "internalType": "uint256",
          "name": "proposalId",
          "type": "uint256"
        }
      ],
      "name": "proposalVotes",
      "outputs": [
        {
          "internalType": "uint256",
          "name": "againstVotes",
          "type": "uint256"
        },
        {
          "internalType": "uint256",
          "name": "forVotes",
          "type": "uint256"
        },
        {
          "internalType": "uint256",
          "name": "abstainVotes",
          "type": "uint256"
        }
      ],
      "stateMutability": "view",
      "type": "function"
    },
    {
      "inputs": [
        {
          "internalType": "address[]",
          "name": "targets",
          "type": "address[]"
        },
        {
          "internalType": "uint256[]",
          "name": "values",
          "type": "uint256[]"
        },
        {
          "internalType": "bytes[]",
          "name": "calldatas",
          "type": "bytes[]"
        },
        {
          "internalType": "string",
          "name": "description",
          "type": "string"
        }
      ],
      "name": "propose",
      "outputs": [
        {
          "internalType": "uint256",
          "name": "",
          "type": "uint256"
        }
      ],
      "stateMutability": "nonpayable",
      "type": "function"
    },
    {
      "inputs": [
        {
          "internalType": "address[]",
          "name": "targets",
          "type": "address[]"
        },
        {
          "internalType": "uint256[]",
          "name": "values",
          "type": "uint256[]"
        },
        {
          "internalType": "bytes[]",
          "name": "calldatas",
          "type": "bytes[]"
        },
        {
          "internalType": "bytes32",
          "name": "descriptionHash",
          "type": "bytes32"
        }
      ],
      "name": "queue",
      "outputs": [
        {
          "internalType": "uint256",
          "name": "",
          "type": "uint256"
        }
      ],
      "stateMutability": "nonpayable",
      "type": "function"
    },
    {
      "inputs": [
        {
          "internalType": "uint256",
          "name": "blockNumber",
          "type": "uint256"
        }
      ],
      "name": "quorum",
      "outputs": [
        {
          "internalType": "uint256",
          "name": "",
          "type": "uint256"
        }
      ],
      "stateMutability": "view",
      "type": "function"
    },
    {
      "inputs": [],
      "name": "quorumDenominator",
      "outputs": [
        {
          "internalType": "uint256",
          "name": "",
          "type": "uint256"
        }
      ],
      "stateMutability": "view",
      "type": "function"
    },
    {
      "inputs": [
        {
          "internalType": "uint256",
          "name": "blockNumber",
          "type": "uint256"
        }
      ],
      "name": "quorumNumerator",
      "outputs": [
        {
          "internalType": "uint256",
          "name": "",
          "type": "uint256"
        }
      ],
      "stateMutability": "view",
      "type": "function"
    },
    {
      "inputs": [],
      "name": "quorumNumerator",
      "outputs": [
        {
          "internalType": "uint256",
          "name": "",
          "type": "uint256"
        }
      ],
      "stateMutability": "view",
      "type": "function"
    },
    {
      "inputs": [
        {
          "internalType": "address",
          "name": "target",
          "type": "address"
        },
        {
          "internalType": "uint256",
          "name": "value",
          "type": "uint256"
        },
        {
          "internalType": "bytes",
          "name": "data",
          "type": "bytes"
        }
      ],
      "name": "relay",
      "outputs": [],
      "stateMutability": "nonpayable",
      "type": "function"
    },
    {
      "inputs": [
        {
          "internalType": "uint256",
          "name": "newProposalThreshold",
          "type": "uint256"
        }
      ],
      "name": "setProposalThreshold",
      "outputs": [],
      "stateMutability": "nonpayable",
      "type": "function"
    },
    {
      "inputs": [
        {
          "internalType": "uint256",
          "name": "newVotingDelay",
          "type": "uint256"
        }
      ],
      "name": "setVotingDelay",
      "outputs": [],
      "stateMutability": "nonpayable",
      "type": "function"
    },
    {
      "inputs": [
        {
          "internalType": "uint256",
          "name": "newVotingPeriod",
          "type": "uint256"
        }
      ],
      "name": "setVotingPeriod",
      "outputs": [],
      "stateMutability": "nonpayable",
      "type": "function"
    },
    {
      "inputs": [
        {
          "internalType": "uint256",
          "name": "proposalId",
          "type": "uint256"
        }
      ],
      "name": "state",
      "outputs": [
        {
          "internalType": "enum IGovernor.ProposalState",
          "name": "",
          "type": "uint8"
        }
      ],
      "stateMutability": "view",
      "type": "function"
    },
    {
      "inputs": [
        {
          "internalType": "bytes4",
          "name": "interfaceId",
          "type": "bytes4"
        }
      ],
      "name": "supportsInterface",
      "outputs": [
        {
          "internalType": "bool",
          "name": "",
          "type": "bool"
        }
      ],
      "stateMutability": "view",
      "type": "function"
    },
    {
      "inputs": [],
      "name": "timelock",
      "outputs": [
        {
          "internalType": "address",
          "name": "",
          "type": "address"
        }
      ],
      "stateMutability": "view",
      "type": "function"
    },
    {
      "inputs": [],
      "name": "token",
      "outputs": [
        {
          "internalType": "contract IVotes",
          "name": "",
          "type": "address"
        }
      ],
      "stateMutability": "view",
      "type": "function"
    },
    {
      "inputs": [
        {
          "internalType": "uint256",
          "name": "newQuorumNumerator",
          "type": "uint256"
        }
      ],
      "name": "updateQuorumNumerator",
      "outputs": [],
      "stateMutability": "nonpayable",
      "type": "function"
    },
    {
      "inputs": [
        {
          "internalType": "contract TimelockController",
          "name": "newTimelock",
          "type": "address"
        }
      ],
      "name": "updateTimelock",
      "outputs": [],
      "stateMutability": "nonpayable",
      "type": "function"
    },
    {
      "inputs": [],
      "name": "version",
      "outputs": [
        {
          "internalType": "string",
          "name": "",
          "type": "string"
        }
      ],
      "stateMutability": "view",
      "type": "function"
    },
    {
      "inputs": [],
      "name": "votingDelay",
      "outputs": [
        {
          "internalType": "uint256",
          "name": "",
          "type": "uint256"
        }
      ],
      "stateMutability": "view",
      "type": "function"
    },
    {
      "inputs": [],
      "name": "votingPeriod",
      "outputs": [
        {
          "internalType": "uint256",
          "name": "",
          "type": "uint256"
        }
      ],
      "stateMutability": "view",
      "type": "function"
    },
    {
      "stateMutability": "payable",
      "type": "receive"
    }
  ],
  "bytecode": "0x6101606040523480156200001257600080fd5b5060405162007d4d38038062007d4d833981810160405281019062000038919062000ba8565b838386838560006040518060400160405280601081526020017f476f7665726e6f72436f6e7472616374000000000000000000000000000000008152508062000086620001ed60201b60201c565b60008280519060200120905060008280519060200120905060007f8b73c3c69bb8fe3d512ecc4cf759cc79239f7b179b0ffacaa9a75d522b39400f90508260e081815250508161010081815250504660a08181525050620000ef8184846200022a60201b60201c565b608081815250503073ffffffffffffffffffffffffffffffffffffffff1660c08173ffffffffffffffffffffffffffffffffffffffff16815250508061012081815250505050505050806000908051906020019062000150929190620009e6565b505062000163836200026660201b60201c565b6200017482620002ad60201b60201c565b62000185816200033a60201b60201c565b5050508073ffffffffffffffffffffffffffffffffffffffff166101408173ffffffffffffffffffffffffffffffffffffffff168152505050620001cf816200038160201b60201c565b50620001e1816200056060201b60201c565b505050505050620010b9565b60606040518060400160405280600181526020017f3100000000000000000000000000000000000000000000000000000000000000815250905090565b600083838346306040516020016200024795949392919062000c6d565b6040516020818303038152906040528051906020012090509392505050565b7fc565b045403dc03c2eea82b81a0465edad9e2e7fc4d97e11421c209da93d7a93600454826040516200029b92919062000cca565b60405180910390a18060048190555050565b60008111620002f3576040517f08c379a0000000000000000000000000000000000000000000000000000000008152600401620002ea9062000d7e565b60405180910390fd5b7f7e3f7f0708a84de9203036abaa450dccc85ad5ff52f78c170f3edb55cf5e8828600554826040516200032892919062000cca565b60405180910390a18060058190555050565b7fccb45da8d5717e6c4544694297c4ba5cf151d455c9bb0ed4fc7a38411bc05461600654826040516200036f92919062000cca565b60405180910390a18060068190555050565b620003916200060160201b60201c565b811115620003d6576040517f08c379a0000000000000000000000000000000000000000000000000000000008152600401620003cd9062000e3c565b60405180910390fd5b6000620003e86200060a60201b60201c565b9050600081141580156200040457506000600960000180549050145b15620005045760096000016040518060400160405280600063ffffffff1681526020016200043d846200064260201b62001ef21760201c565b7bffffffffffffffffffffffffffffffffffffffffffffffffffffffff168152509080600181540180825580915050600190039060005260206000200160009091909190915060008201518160000160006101000a81548163ffffffff021916908363ffffffff16021790555060208201518160000160046101000a8154817bffffffffffffffffffffffffffffffffffffffffffffffffffffffff02191690837bffffffffffffffffffffffffffffffffffffffffffffffffffffffff16021790555050505b6200051f826009620006b060201b62001f5d1790919060201c565b50507f0553476bf02ef2726e8ce5ced78d63e26e602e4a2257b1f559418e24b463399781836040516200055492919062000cca565b60405180910390a15050565b7f08f74ea46ef7894f65eabfb5e6e695de773a000b47c529ab559178069b226401600a60009054906101000a900473ffffffffffffffffffffffffffffffffffffffff1682604051620005b592919062000e5e565b60405180910390a180600a60006101000a81548173ffffffffffffffffffffffffffffffffffffffff021916908373ffffffffffffffffffffffffffffffffffffffff16021790555050565b60006064905090565b600080600960000180549050146200063957620006336009620008ee60201b6200215f1760201c565b6200063d565b6008545b905090565b60007bffffffffffffffffffffffffffffffffffffffffffffffffffffffff8016821115620006a8576040517f08c379a00000000000000000000000000000000000000000000000000000000081526004016200069f9062000f01565b60405180910390fd5b819050919050565b6000806000846000018054905090506000620006d286620008ee60201b60201c565b90506000821180156200072e57504386600001600184620006f4919062000f52565b8154811062000708576200070762000f8d565b5b9060005260206000200160000160009054906101000a900463ffffffff1663ffffffff16145b15620007d2576200074a856200064260201b62001ef21760201c565b866000016001846200075d919062000f52565b8154811062000771576200077062000f8d565b5b9060005260206000200160000160046101000a8154817bffffffffffffffffffffffffffffffffffffffffffffffffffffffff02191690837bffffffffffffffffffffffffffffffffffffffffffffffffffffffff160217905550620008df565b856000016040518060400160405280620007f7436200099060201b620021fa1760201c565b63ffffffff16815260200162000818886200064260201b62001ef21760201c565b7bffffffffffffffffffffffffffffffffffffffffffffffffffffffff168152509080600181540180825580915050600190039060005260206000200160009091909190915060008201518160000160006101000a81548163ffffffff021916908363ffffffff16021790555060208201518160000160046101000a8154817bffffffffffffffffffffffffffffffffffffffffffffffffffffffff02191690837bffffffffffffffffffffffffffffffffffffffffffffffffffffffff16021790555050505b80859350935050509250929050565b600080826000018054905090506000811462000967578260000160018262000917919062000f52565b815481106200092b576200092a62000f8d565b5b9060005260206000200160000160049054906101000a90047bffffffffffffffffffffffffffffffffffffffffffffffffffffffff166200096a565b60005b7bffffffffffffffffffffffffffffffffffffffffffffffffffffffff16915050919050565b600063ffffffff8016821115620009de576040517f08c379a0000000000000000000000000000000000000000000000000000000008152600401620009d59062001032565b60405180910390fd5b819050919050565b828054620009f49062001083565b90600052602060002090601f01602090048101928262000a18576000855562000a64565b82601f1062000a3357805160ff191683800117855562000a64565b8280016001018555821562000a64579182015b8281111562000a6357825182559160200191906001019062000a46565b5b50905062000a73919062000a77565b5090565b5b8082111562000a9257600081600090555060010162000a78565b5090565b600080fd5b600073ffffffffffffffffffffffffffffffffffffffff82169050919050565b600062000ac88262000a9b565b9050919050565b600062000adc8262000abb565b9050919050565b62000aee8162000acf565b811462000afa57600080fd5b50565b60008151905062000b0e8162000ae3565b92915050565b600062000b218262000a9b565b9050919050565b600062000b358262000b14565b9050919050565b62000b478162000b28565b811462000b5357600080fd5b50565b60008151905062000b678162000b3c565b92915050565b6000819050919050565b62000b828162000b6d565b811462000b8e57600080fd5b50565b60008151905062000ba28162000b77565b92915050565b600080600080600060a0868803121562000bc75762000bc662000a96565b5b600062000bd78882890162000afd565b955050602062000bea8882890162000b56565b945050604062000bfd8882890162000b91565b935050606062000c108882890162000b91565b925050608062000c238882890162000b91565b9150509295509295909350565b6000819050919050565b62000c458162000c30565b82525050565b62000c568162000b6d565b82525050565b62000c678162000abb565b82525050565b600060a08201905062000c84600083018862000c3a565b62000c93602083018762000c3a565b62000ca2604083018662000c3a565b62000cb1606083018562000c4b565b62000cc0608083018462000c5c565b9695505050505050565b600060408201905062000ce1600083018562000c4b565b62000cf0602083018462000c4b565b9392505050565b600082825260208201905092915050565b7f476f7665726e6f7253657474696e67733a20766f74696e6720706572696f642060008201527f746f6f206c6f7700000000000000000000000000000000000000000000000000602082015250565b600062000d6660278362000cf7565b915062000d738262000d08565b604082019050919050565b6000602082019050818103600083015262000d998162000d57565b9050919050565b7f476f7665726e6f72566f74657351756f72756d4672616374696f6e3a2071756f60008201527f72756d4e756d657261746f72206f7665722071756f72756d44656e6f6d696e6160208201527f746f720000000000000000000000000000000000000000000000000000000000604082015250565b600062000e2460438362000cf7565b915062000e318262000da0565b606082019050919050565b6000602082019050818103600083015262000e578162000e15565b9050919050565b600060408201905062000e75600083018562000c5c565b62000e84602083018462000c5c565b9392505050565b7f53616665436173743a2076616c756520646f65736e27742066697420696e203260008201527f3234206269747300000000000000000000000000000000000000000000000000602082015250565b600062000ee960278362000cf7565b915062000ef68262000e8b565b604082019050919050565b6000602082019050818103600083015262000f1c8162000eda565b9050919050565b7f4e487b7100000000000000000000000000000000000000000000000000000000600052601160045260246000fd5b600062000f5f8262000b6d565b915062000f6c8362000b6d565b92508282101562000f825762000f8162000f23565b5b828203905092915050565b7f4e487b7100000000000000000000000000000000000000000000000000000000600052603260045260246000fd5b7f53616665436173743a2076616c756520646f65736e27742066697420696e203360008201527f3220626974730000000000000000000000000000000000000000000000000000602082015250565b60006200101a60268362000cf7565b9150620010278262000fbc565b604082019050919050565b600060208201905081810360008301526200104d816200100b565b9050919050565b7f4e487b7100000000000000000000000000000000000000000000000000000000600052602260045260246000fd5b600060028204905060018216806200109c57607f821691505b60208210811415620010b357620010b262001054565b5b50919050565b60805160a05160c05160e051610100516101205161014051616c2b6200112260003960008181611ed001528181612fc7015261324f0152600061352401526000613566015260006135450152600061347a015260006134d0015260006134f90152616c2b6000f3fe6080604052600436106102ca5760003560e01c80637b3c71d311610179578063c28bc2fa116100d6578063ea0217cf1161008a578063f23a6e6111610064578063f23a6e6114610ada578063f8ce560a14610b17578063fc0c546a14610b5457610310565b8063ea0217cf14610a4b578063eb9019d414610a74578063ece40cc114610ab157610310565b8063d33219b4116100bb578063d33219b4146109ca578063dd4e2ba5146109f5578063deaaa7cc14610a2057610310565b8063c28bc2fa14610964578063c59057e41461098d57610310565b8063a890c9101161012d578063b58131b011610112578063b58131b0146108bf578063bc197c81146108ea578063c01f9e371461092757610310565b8063a890c91014610859578063ab58fb8e1461088257610310565b806397c3d3341161015e57806397c3d334146107c65780639a802a6d146107f1578063a7713a701461082e57610310565b80637b3c71d31461074c5780637d5e81e21461078957610310565b80633932abb11161022757806354fd4d50116101db5780635f398a14116101c05780635f398a14146106a957806360c4247f146106e657806370b0f6601461072357610310565b806354fd4d5014610641578063567813881461066c57610310565b80633e4f49e61161020c5780633e4f49e61461058857806343859632146105c5578063544ffc9c1461060257610310565b80633932abb1146105205780633bccf4fd1461054b57610310565b8063150b7a021161027e5780632656227d116102635780632656227d146104885780632d63f693146104b85780632fe3e261146104f557610310565b8063150b7a021461040e578063160cbed71461044b57610310565b806303420181116102af578063034201811461037d57806306f3f9e6146103ba57806306fdde03146103e357610310565b806301ffc9a71461031557806302a251a31461035257610310565b36610310573073ffffffffffffffffffffffffffffffffffffffff166102ee610b7f565b73ffffffffffffffffffffffffffffffffffffffff161461030e57600080fd5b005b600080fd5b34801561032157600080fd5b5061033c6004803603810190610337919061418e565b610b8e565b60405161034991906141d6565b60405180910390f35b34801561035e57600080fd5b50610367610ba0565b604051610374919061420a565b60405180910390f35b34801561038957600080fd5b506103a4600480360381019061039f9190614466565b610baf565b6040516103b1919061420a565b60405180910390f35b3480156103c657600080fd5b506103e160048036038101906103dc9190614544565b610c94565b005b3480156103ef57600080fd5b506103f8610d90565b60405161040591906145f9565b60405180910390f35b34801561041a57600080fd5b5061043560048036038101906104309190614679565b610e22565b604051610442919061470b565b60405180910390f35b34801561045757600080fd5b50610472600480360381019061046d919061498d565b610e36565b60405161047f919061420a565b60405180910390f35b6104a2600480360381019061049d919061498d565b61110e565b6040516104af919061420a565b60405180910390f35b3480156104c457600080fd5b506104df60048036038101906104da9190614544565b61125b565b6040516104ec919061420a565b60405180910390f35b34801561050157600080fd5b5061050a6112c9565b6040516105179190614a57565b60405180910390f35b34801561052c57600080fd5b506105356112ed565b604051610542919061420a565b60405180910390f35b34801561055757600080fd5b50610572600480360381019061056d9190614a72565b6112fc565b60405161057f919061420a565b60405180910390f35b34801561059457600080fd5b506105af60048036038101906105aa9190614544565b611386565b6040516105bc9190614b64565b60405180910390f35b3480156105d157600080fd5b506105ec60048036038101906105e79190614b7f565b611398565b6040516105f991906141d6565b60405180910390f35b34801561060e57600080fd5b5061062960048036038101906106249190614544565b611403565b60405161063893929190614bbf565b60405180910390f35b34801561064d57600080fd5b5061065661143b565b60405161066391906145f9565b60405180910390f35b34801561067857600080fd5b50610693600480360381019061068e9190614bf6565b611478565b6040516106a0919061420a565b60405180910390f35b3480156106b557600080fd5b506106d060048036038101906106cb9190614c36565b6114a9565b6040516106dd919061420a565b60405180910390f35b3480156106f257600080fd5b5061070d60048036038101906107089190614544565b611513565b60405161071a919061420a565b60405180910390f35b34801561072f57600080fd5b5061074a60048036038101906107459190614544565b611660565b005b34801561075857600080fd5b50610773600480360381019061076e9190614cda565b61175c565b604051610780919061420a565b60405180910390f35b34801561079557600080fd5b506107b060048036038101906107ab9190614def565b6117c4565b6040516107bd919061420a565b60405180910390f35b3480156107d257600080fd5b506107db6117dc565b6040516107e8919061420a565b60405180910390f35b3480156107fd57600080fd5b5061081860048036038101906108139190614ec6565b6117e5565b604051610825919061420a565b60405180910390f35b34801561083a57600080fd5b506108436117fb565b604051610850919061420a565b60405180910390f35b34801561086557600080fd5b50610880600480360381019061087b9190614f85565b611824565b005b34801561088e57600080fd5b506108a960048036038101906108a49190614544565b611920565b6040516108b6919061420a565b60405180910390f35b3480156108cb57600080fd5b506108d46119fc565b6040516108e1919061420a565b60405180910390f35b3480156108f657600080fd5b50610911600480360381019061090c9190614fb2565b611a0b565b60405161091e919061470b565b60405180910390f35b34801561093357600080fd5b5061094e60048036038101906109499190614544565b611a20565b60405161095b919061420a565b60405180910390f35b34801561097057600080fd5b5061098b600480360381019061098691906150d7565b611a8e565b005b34801561099957600080fd5b506109b460048036038101906109af919061498d565b611bd4565b6040516109c1919061420a565b60405180910390f35b3480156109d657600080fd5b506109df611c10565b6040516109ec919061515a565b60405180910390f35b348015610a0157600080fd5b50610a0a611c3a565b604051610a1791906145f9565b60405180910390f35b348015610a2c57600080fd5b50610a35611c77565b604051610a429190614a57565b60405180910390f35b348015610a5757600080fd5b50610a726004803603810190610a6d9190614544565b611c9b565b005b348015610a8057600080fd5b50610a9b6004803603810190610a969190615175565b611d97565b604051610aa8919061420a565b60405180910390f35b348015610abd57600080fd5b50610ad86004803603810190610ad39190614544565b611dab565b005b348015610ae657600080fd5b50610b016004803603810190610afc91906151b5565b611ea7565b604051610b0e919061470b565b60405180910390f35b348015610b2357600080fd5b50610b3e6004803603810190610b399190614544565b611ebc565b604051610b4b919061420a565b60405180910390f35b348015610b6057600080fd5b50610b69611ece565b604051610b7691906152ab565b60405180910390f35b6000610b8961224d565b905090565b6000610b9982612277565b9050919050565b6000610baa6122f1565b905090565b600080610c32610c2a7fb3b3f3b703cd84ce352197dcff232b1b5d3cfb2025ce47cf04742d0651f1af888c8c8c8c604051610beb9291906152f6565b60405180910390208b80519060200120604051602001610c0f95949392919061531e565b604051602081830303815290604052805190602001206122fb565b868686612315565b9050610c858a828b8b8b8080601f016020809104026020016040519081016040528093929190818152602001838380828437600081840152601f19601f820116905080830192505050505050508a612340565b91505098975050505050505050565b610c9c610b7f565b73ffffffffffffffffffffffffffffffffffffffff16610cba6124fd565b73ffffffffffffffffffffffffffffffffffffffff1614610d10576040517f08c379a0000000000000000000000000000000000000000000000000000000008152600401610d07906153bd565b60405180910390fd5b3073ffffffffffffffffffffffffffffffffffffffff16610d2f610b7f565b73ffffffffffffffffffffffffffffffffffffffff1614610d84576000610d54612505565b604051610d629291906152f6565b604051809103902090505b80610d786002612512565b14610d8257610d6d565b505b610d8d816125ee565b50565b606060008054610d9f9061540c565b80601f0160208091040260200160405190810160405280929190818152602001828054610dcb9061540c565b8015610e185780601f10610ded57610100808354040283529160200191610e18565b820191906000526020600020905b815481529060010190602001808311610dfb57829003601f168201915b5050505050905090565b600063150b7a0260e01b9050949350505050565b600080610e4586868686611bd4565b905060046007811115610e5b57610e5a614aed565b5b610e6482611386565b6007811115610e7657610e75614aed565b5b14610eb6576040517f08c379a0000000000000000000000000000000000000000000000000000000008152600401610ead906154b0565b60405180910390fd5b6000600a60009054906101000a900473ffffffffffffffffffffffffffffffffffffffff1673ffffffffffffffffffffffffffffffffffffffff1663f27a0c926040518163ffffffff1660e01b815260040160206040518083038186803b158015610f2057600080fd5b505afa158015610f34573d6000803e3d6000fd5b505050506040513d601f19601f82011682018060405250810190610f5891906154e5565b9050600a60009054906101000a900473ffffffffffffffffffffffffffffffffffffffff1673ffffffffffffffffffffffffffffffffffffffff1663b1c5f4278888886000896040518663ffffffff1660e01b8152600401610fbe9594939291906157ed565b60206040518083038186803b158015610fd657600080fd5b505afa158015610fea573d6000803e3d6000fd5b505050506040513d601f19601f8201168201806040525081019061100e919061586a565b600b600084815260200190815260200160002081905550600a60009054906101000a900473ffffffffffffffffffffffffffffffffffffffff1673ffffffffffffffffffffffffffffffffffffffff16638f2a0bb0888888600089876040518763ffffffff1660e01b815260040161108b96959493929190615897565b600060405180830381600087803b1580156110a557600080fd5b505af11580156110b9573d6000803e3d6000fd5b505050507f9a2e42fd6722813d69113e7d0079d3d940171428df7373df9c7f7617cfda28928282426110eb919061593c565b6040516110f9929190615992565b60405180910390a18192505050949350505050565b60008061111d86868686611bd4565b9050600061112a82611386565b9050600460078111156111405761113f614aed565b5b81600781111561115357611152614aed565b5b148061118357506005600781111561116e5761116d614aed565b5b81600781111561118157611180614aed565b5b145b6111c2576040517f08c379a00000000000000000000000000000000000000000000000000000000081526004016111b9906154b0565b60405180910390fd5b600180600084815260200190815260200160002060020160006101000a81548160ff0219169083151502179055507f712ae1383f79ac853f8d882153778e0260ef8f03b504e2866e0593e04d2b291f8260405161121f919061420a565b60405180910390a161123482888888886127a2565b6112418288888888612886565b61124e828888888861289a565b8192505050949350505050565b60006112b8600160008481526020019081526020016000206000016040518060200160405290816000820160009054906101000a900467ffffffffffffffff1667ffffffffffffffff1667ffffffffffffffff16815250506128f5565b67ffffffffffffffff169050919050565b7fb3b3f3b703cd84ce352197dcff232b1b5d3cfb2025ce47cf04742d0651f1af8881565b60006112f7612903565b905090565b60008061135d6113557f150214d74d59b7d1e90c73fc22ef3d991dd0a76b046543d4d80ab92d2a50328f898960405160200161133a939291906159bb565b604051602081830303815290604052805190602001206122fb565b868686612315565b905061137a8782886040518060200160405280600081525061290d565b91505095945050505050565b60006113918261292d565b9050919050565b60006007600084815260200190815260200160002060030160008373ffffffffffffffffffffffffffffffffffffffff1673ffffffffffffffffffffffffffffffffffffffff16815260200190815260200160002060009054906101000a900460ff16905092915050565b600080600080600760008681526020019081526020016000209050806000015481600101548260020154935093509350509193909250565b60606040518060400160405280600181526020017f3100000000000000000000000000000000000000000000000000000000000000815250905090565b6000806114836124fd565b90506114a08482856040518060200160405280600081525061290d565b91505092915050565b6000806114b46124fd565b905061150787828888888080601f016020809104026020016040519081016040528093929190818152602001838380828437600081840152601f19601f8201169050808301925050505050505087612340565b91505095945050505050565b600080600960000180549050905060008114156115355760085491505061165b565b6000600960000160018361154991906159f2565b8154811061155a57611559615a26565b5b906000526020600020016040518060400160405290816000820160009054906101000a900463ffffffff1663ffffffff1663ffffffff1681526020016000820160049054906101000a90047bffffffffffffffffffffffffffffffffffffffffffffffffffffffff167bffffffffffffffffffffffffffffffffffffffffffffffffffffffff167bffffffffffffffffffffffffffffffffffffffffffffffffffffffff1681525050905083816000015163ffffffff16116116425780602001517bffffffffffffffffffffffffffffffffffffffffffffffffffffffff169250505061165b565b611656846009612b1f90919063ffffffff16565b925050505b919050565b611668610b7f565b73ffffffffffffffffffffffffffffffffffffffff166116866124fd565b73ffffffffffffffffffffffffffffffffffffffff16146116dc576040517f08c379a00000000000000000000000000000000000000000000000000000000081526004016116d3906153bd565b60405180910390fd5b3073ffffffffffffffffffffffffffffffffffffffff166116fb610b7f565b73ffffffffffffffffffffffffffffffffffffffff1614611750576000611720612505565b60405161172e9291906152f6565b604051809103902090505b806117446002612512565b1461174e57611739565b505b61175981612c77565b50565b6000806117676124fd565b90506117b986828787878080601f016020809104026020016040519081016040528093929190818152602001838380828437600081840152601f19601f8201169050808301925050505050505061290d565b915050949350505050565b60006117d285858585612cbc565b9050949350505050565b60006064905090565b60006117f2848484612fc3565b90509392505050565b6000806009600001805490501461181b57611816600961215f565b61181f565b6008545b905090565b61182c610b7f565b73ffffffffffffffffffffffffffffffffffffffff1661184a6124fd565b73ffffffffffffffffffffffffffffffffffffffff16146118a0576040517f08c379a0000000000000000000000000000000000000000000000000000000008152600401611897906153bd565b60405180910390fd5b3073ffffffffffffffffffffffffffffffffffffffff166118bf610b7f565b73ffffffffffffffffffffffffffffffffffffffff16146119145760006118e4612505565b6040516118f29291906152f6565b604051809103902090505b806119086002612512565b14611912576118fd565b505b61191d81613079565b50565b600080600a60009054906101000a900473ffffffffffffffffffffffffffffffffffffffff1673ffffffffffffffffffffffffffffffffffffffff1663d45c4435600b6000868152602001908152602001600020546040518263ffffffff1660e01b81526004016119919190614a57565b60206040518083038186803b1580156119a957600080fd5b505afa1580156119bd573d6000803e3d6000fd5b505050506040513d601f19601f820116820180604052508101906119e191906154e5565b9050600181146119f157806119f4565b60005b915050919050565b6000611a06613118565b905090565b600063bc197c8160e01b905095945050505050565b6000611a7d600160008481526020019081526020016000206001016040518060200160405290816000820160009054906101000a900467ffffffffffffffff1667ffffffffffffffff1667ffffffffffffffff16815250506128f5565b67ffffffffffffffff169050919050565b611a96610b7f565b73ffffffffffffffffffffffffffffffffffffffff16611ab46124fd565b73ffffffffffffffffffffffffffffffffffffffff1614611b0a576040517f08c379a0000000000000000000000000000000000000000000000000000000008152600401611b01906153bd565b60405180910390fd5b3073ffffffffffffffffffffffffffffffffffffffff16611b29610b7f565b73ffffffffffffffffffffffffffffffffffffffff1614611b7e576000611b4e612505565b604051611b5c9291906152f6565b604051809103902090505b80611b726002612512565b14611b7c57611b67565b505b611bcd8483838080601f016020809104026020016040519081016040528093929190818152602001838380828437600081840152601f19601f8201169050808301925050505050505085613122565b5050505050565b600084848484604051602001611bed9493929190615a55565b6040516020818303038152906040528051906020012060001c9050949350505050565b6000600a60009054906101000a900473ffffffffffffffffffffffffffffffffffffffff16905090565b60606040518060400160405280602081526020017f737570706f72743d627261766f2671756f72756d3d666f722c6162737461696e815250905090565b7f150214d74d59b7d1e90c73fc22ef3d991dd0a76b046543d4d80ab92d2a50328f81565b611ca3610b7f565b73ffffffffffffffffffffffffffffffffffffffff16611cc16124fd565b73ffffffffffffffffffffffffffffffffffffffff1614611d17576040517f08c379a0000000000000000000000000000000000000000000000000000000008152600401611d0e906153bd565b60405180910390fd5b3073ffffffffffffffffffffffffffffffffffffffff16611d36610b7f565b73ffffffffffffffffffffffffffffffffffffffff1614611d8b576000611d5b612505565b604051611d699291906152f6565b604051809103902090505b80611d7f6002612512565b14611d8957611d74565b505b611d9481613151565b50565b6000611da383836131d9565b905092915050565b611db3610b7f565b73ffffffffffffffffffffffffffffffffffffffff16611dd16124fd565b73ffffffffffffffffffffffffffffffffffffffff1614611e27576040517f08c379a0000000000000000000000000000000000000000000000000000000008152600401611e1e906153bd565b60405180910390fd5b3073ffffffffffffffffffffffffffffffffffffffff16611e46610b7f565b73ffffffffffffffffffffffffffffffffffffffff1614611e9b576000611e6b612505565b604051611e799291906152f6565b604051809103902090505b80611e8f6002612512565b14611e9957611e84565b505b611ea4816131f5565b50565b600063f23a6e6160e01b905095945050505050565b6000611ec78261323a565b9050919050565b7f000000000000000000000000000000000000000000000000000000000000000081565b60007bffffffffffffffffffffffffffffffffffffffffffffffffffffffff8016821115611f55576040517f08c379a0000000000000000000000000000000000000000000000000000000008152600401611f4c90615b21565b60405180910390fd5b819050919050565b6000806000846000018054905090506000611f778661215f565b9050600082118015611fcd57504386600001600184611f9691906159f2565b81548110611fa757611fa6615a26565b5b9060005260206000200160000160009054906101000a900463ffffffff1663ffffffff16145b1561205d57611fdb85611ef2565b86600001600184611fec91906159f2565b81548110611ffd57611ffc615a26565b5b9060005260206000200160000160046101000a8154817bffffffffffffffffffffffffffffffffffffffffffffffffffffffff02191690837bffffffffffffffffffffffffffffffffffffffffffffffffffffffff160217905550612150565b856000016040518060400160405280612075436121fa565b63ffffffff16815260200161208988611ef2565b7bffffffffffffffffffffffffffffffffffffffffffffffffffffffff168152509080600181540180825580915050600190039060005260206000200160009091909190915060008201518160000160006101000a81548163ffffffff021916908363ffffffff16021790555060208201518160000160046101000a8154817bffffffffffffffffffffffffffffffffffffffffffffffffffffffff02191690837bffffffffffffffffffffffffffffffffffffffffffffffffffffffff16021790555050505b80859350935050509250929050565b60008082600001805490509050600081146121d1578260000160018261218591906159f2565b8154811061219657612195615a26565b5b9060005260206000200160000160049054906101000a90047bffffffffffffffffffffffffffffffffffffffffffffffffffffffff166121d4565b60005b7bffffffffffffffffffffffffffffffffffffffffffffffffffffffff16915050919050565b600063ffffffff8016821115612245576040517f08c379a000000000000000000000000000000000000000000000000000000000815260040161223c90615bb3565b60405180910390fd5b819050919050565b6000600a60009054906101000a900473ffffffffffffffffffffffffffffffffffffffff16905090565b60007f6e665ced000000000000000000000000000000000000000000000000000000007bffffffffffffffffffffffffffffffffffffffffffffffffffffffff1916827bffffffffffffffffffffffffffffffffffffffffffffffffffffffff191614806122ea57506122e982613311565b5b9050919050565b6000600554905090565b600061230e612308613476565b83613590565b9050919050565b6000806000612326878787876135c3565b91509150612333816136d0565b8192505050949350505050565b6000806001600088815260200190815260200160002090506001600781111561236c5761236b614aed565b5b61237588611386565b600781111561238757612386614aed565b5b146123c7576040517f08c379a00000000000000000000000000000000000000000000000000000000081526004016123be90615c45565b60405180910390fd5b600061242687612416846000016040518060200160405290816000820160009054906101000a900467ffffffffffffffff1667ffffffffffffffff1667ffffffffffffffff16815250506128f5565b67ffffffffffffffff1686612fc3565b905061243588888884886138a5565b600084511415612498578673ffffffffffffffffffffffffffffffffffffffff167fb8e138887d0aa13bab447e82de9d5c1777041ecd21ca36ba824ff1e6c07ddda48988848960405161248b9493929190615c65565b60405180910390a26124ef565b8673ffffffffffffffffffffffffffffffffffffffff167fe2babfbac5889a709b63bb7f598b324e08bc5a4fb9ec647fb3cbc9ec07eb871289888489896040516124e6959493929190615cfb565b60405180910390a25b809250505095945050505050565b600033905090565b3660008036915091509091565b600061251d82613aac565b15612554576040517f3db2a12a00000000000000000000000000000000000000000000000000000000815260040160405180910390fd5b60008260000160009054906101000a9004600f0b905082600101600082600f0b600f0b815260200190815260200160002054915082600101600082600f0b600f0b815260200190815260200160002060009055600181018360000160006101000a8154816fffffffffffffffffffffffffffffffff0219169083600f0b6fffffffffffffffffffffffffffffffff16021790555050919050565b6125f66117dc565b811115612638576040517f08c379a000000000000000000000000000000000000000000000000000000000815260040161262f90615df4565b60405180910390fd5b60006126426117fb565b90506000811415801561265d57506000600960000180549050145b1561274f5760096000016040518060400160405280600063ffffffff16815260200161268884611ef2565b7bffffffffffffffffffffffffffffffffffffffffffffffffffffffff168152509080600181540180825580915050600190039060005260206000200160009091909190915060008201518160000160006101000a81548163ffffffff021916908363ffffffff16021790555060208201518160000160046101000a8154817bffffffffffffffffffffffffffffffffffffffffffffffffffffffff02191690837bffffffffffffffffffffffffffffffffffffffffffffffffffffffff16021790555050505b612763826009611f5d90919063ffffffff16565b50507f0553476bf02ef2726e8ce5ced78d63e26e602e4a2257b1f559418e24b46339978183604051612796929190615992565b60405180910390a15050565b3073ffffffffffffffffffffffffffffffffffffffff166127c1610b7f565b73ffffffffffffffffffffffffffffffffffffffff161461287f5760005b845181101561287d573073ffffffffffffffffffffffffffffffffffffffff1685828151811061281257612811615a26565b5b602002602001015173ffffffffffffffffffffffffffffffffffffffff16141561286c5761286b83828151811061284c5761284b615a26565b5b6020026020010151805190602001206002613ae190919063ffffffff16565b5b8061287690615e14565b90506127df565b505b5050505050565b6128938585858585613b5d565b5050505050565b3073ffffffffffffffffffffffffffffffffffffffff166128b9610b7f565b73ffffffffffffffffffffffffffffffffffffffff16146128ee576128de6002613aac565b6128ed576128ec6002613bfb565b5b5b5050505050565b600081600001519050919050565b6000600454905090565b60006129238585858561291e613c7c565b612340565b9050949350505050565b60008061293983613c93565b90506004600781111561294f5761294e614aed565b5b81600781111561296257612961614aed565b5b146129705780915050612b1a565b6000600b60008581526020019081526020016000205490506000801b81141561299d578192505050612b1a565b600a60009054906101000a900473ffffffffffffffffffffffffffffffffffffffff1673ffffffffffffffffffffffffffffffffffffffff16632ab0f529826040518263ffffffff1660e01b81526004016129f89190614a57565b60206040518083038186803b158015612a1057600080fd5b505afa158015612a24573d6000803e3d6000fd5b505050506040513d601f19601f82011682018060405250810190612a489190615e89565b15612a5857600792505050612b1a565b600a60009054906101000a900473ffffffffffffffffffffffffffffffffffffffff1673ffffffffffffffffffffffffffffffffffffffff1663584b153e826040518263ffffffff1660e01b8152600401612ab39190614a57565b60206040518083038186803b158015612acb57600080fd5b505afa158015612adf573d6000803e3d6000fd5b505050506040513d601f19601f82011682018060405250810190612b039190615e89565b15612b1357600592505050612b1a565b6002925050505b919050565b6000438210612b63576040517f08c379a0000000000000000000000000000000000000000000000000000000008152600401612b5a90615f02565b60405180910390fd5b60008360000180549050905060005b81811015612be7576000612b868284613da8565b905084866000018281548110612b9f57612b9e615a26565b5b9060005260206000200160000160009054906101000a900463ffffffff1663ffffffff161115612bd157809250612be1565b600181612bde919061593c565b91505b50612b72565b60008214612c4c5784600001600183612c0091906159f2565b81548110612c1157612c10615a26565b5b9060005260206000200160000160049054906101000a90047bffffffffffffffffffffffffffffffffffffffffffffffffffffffff16612c4f565b60005b7bffffffffffffffffffffffffffffffffffffffffffffffffffffffff169250505092915050565b7fc565b045403dc03c2eea82b81a0465edad9e2e7fc4d97e11421c209da93d7a9360045482604051612caa929190615992565b60405180910390a18060048190555050565b6000612cc66119fc565b612ce3612cd16124fd565b600143612cde91906159f2565b611d97565b1015612d24576040517f08c379a0000000000000000000000000000000000000000000000000000000008152600401612d1b90615f94565b60405180910390fd5b6000612d398686868680519060200120611bd4565b90508451865114612d7f576040517f08c379a0000000000000000000000000000000000000000000000000000000008152600401612d7690616026565b60405180910390fd5b8351865114612dc3576040517f08c379a0000000000000000000000000000000000000000000000000000000008152600401612dba90616026565b60405180910390fd5b6000865111612e07576040517f08c379a0000000000000000000000000000000000000000000000000000000008152600401612dfe90616092565b60405180910390fd5b6000600160008381526020019081526020016000209050612e67816000016040518060200160405290816000820160009054906101000a900467ffffffffffffffff1667ffffffffffffffff1667ffffffffffffffff1681525050613dce565b612ea6576040517f08c379a0000000000000000000000000000000000000000000000000000000008152600401612e9d90616124565b60405180910390fd5b6000612eb8612eb36112ed565b613de8565b612ec143613de8565b612ecb9190616158565b90506000612edf612eda610ba0565b613de8565b82612eea9190616158565b9050612f028284600001613e3f90919063ffffffff16565b612f188184600101613e3f90919063ffffffff16565b7f7d84a6263ae0d98d3329bd7b46bb4e8d6f98cd35a7adb45c274c8b7fd5ebd5e084612f426124fd565b8b8b8d5167ffffffffffffffff811115612f5f57612f5e614305565b5b604051908082528060200260200182016040528015612f9257816020015b6060815260200190600190039081612f7d5790505b508c88888e604051612fac999897969594939291906162d3565b60405180910390a183945050505050949350505050565b60007f000000000000000000000000000000000000000000000000000000000000000073ffffffffffffffffffffffffffffffffffffffff16633a46b1a885856040518363ffffffff1660e01b8152600401613020929190616383565b60206040518083038186803b15801561303857600080fd5b505afa15801561304c573d6000803e3d6000fd5b505050506040513d601f19601f8201168201806040525081019061307091906154e5565b90509392505050565b7f08f74ea46ef7894f65eabfb5e6e695de773a000b47c529ab559178069b226401600a60009054906101000a900473ffffffffffffffffffffffffffffffffffffffff16826040516130cc9291906163ac565b60405180910390a180600a60006101000a81548173ffffffffffffffffffffffffffffffffffffffff021916908373ffffffffffffffffffffffffffffffffffffffff16021790555050565b6000600654905090565b6060613148848484604051806060016040528060298152602001616bcd60299139613e6e565b90509392505050565b60008111613194576040517f08c379a000000000000000000000000000000000000000000000000000000000815260040161318b90616447565b60405180910390fd5b7f7e3f7f0708a84de9203036abaa450dccc85ad5ff52f78c170f3edb55cf5e8828600554826040516131c7929190615992565b60405180910390a18060058190555050565b60006131ed83836131e8613c7c565b612fc3565b905092915050565b7fccb45da8d5717e6c4544694297c4ba5cf151d455c9bb0ed4fc7a38411bc0546160065482604051613228929190615992565b60405180910390a18060068190555050565b60006132446117dc565b61324d83611513565b7f000000000000000000000000000000000000000000000000000000000000000073ffffffffffffffffffffffffffffffffffffffff16638e539e8c856040518263ffffffff1660e01b81526004016132a6919061420a565b60206040518083038186803b1580156132be57600080fd5b505afa1580156132d2573d6000803e3d6000fd5b505050506040513d601f19601f820116820180604052508101906132f691906154e5565b6133009190616467565b61330a91906164f0565b9050919050565b6000639a802a6d60e01b630342018160e01b635f398a1460e01b7f79dd796f000000000000000000000000000000000000000000000000000000001818187bffffffffffffffffffffffffffffffffffffffffffffffffffffffff1916827bffffffffffffffffffffffffffffffffffffffffffffffffffffffff191614806133f757507f79dd796f000000000000000000000000000000000000000000000000000000007bffffffffffffffffffffffffffffffffffffffffffffffffffffffff1916827bffffffffffffffffffffffffffffffffffffffffffffffffffffffff1916145b8061345f57507f4e2312e0000000000000000000000000000000000000000000000000000000007bffffffffffffffffffffffffffffffffffffffffffffffffffffffff1916827bffffffffffffffffffffffffffffffffffffffffffffffffffffffff1916145b8061346f575061346e82613f82565b5b9050919050565b60007f000000000000000000000000000000000000000000000000000000000000000073ffffffffffffffffffffffffffffffffffffffff163073ffffffffffffffffffffffffffffffffffffffff161480156134f257507f000000000000000000000000000000000000000000000000000000000000000046145b1561351f577f0000000000000000000000000000000000000000000000000000000000000000905061358d565b61358a7f00000000000000000000000000000000000000000000000000000000000000007f00000000000000000000000000000000000000000000000000000000000000007f0000000000000000000000000000000000000000000000000000000000000000613fec565b90505b90565b600082826040516020016135a5929190616599565b60405160208183030381529060405280519060200120905092915050565b6000807f7fffffffffffffffffffffffffffffff5d576e7357a4501ddfe92f46681b20a08360001c11156135fe5760006003915091506136c7565b601b8560ff16141580156136165750601c8560ff1614155b156136285760006004915091506136c7565b60006001878787876040516000815260200160405260405161364d94939291906165d0565b6020604051602081039080840390855afa15801561366f573d6000803e3d6000fd5b505050602060405103519050600073ffffffffffffffffffffffffffffffffffffffff168173ffffffffffffffffffffffffffffffffffffffff1614156136be576000600192509250506136c7565b80600092509250505b94509492505050565b600060048111156136e4576136e3614aed565b5b8160048111156136f7576136f6614aed565b5b1415613702576138a2565b6001600481111561371657613715614aed565b5b81600481111561372957613728614aed565b5b141561376a576040517f08c379a000000000000000000000000000000000000000000000000000000000815260040161376190616661565b60405180910390fd5b6002600481111561377e5761377d614aed565b5b81600481111561379157613790614aed565b5b14156137d2576040517f08c379a00000000000000000000000000000000000000000000000000000000081526004016137c9906166cd565b60405180910390fd5b600360048111156137e6576137e5614aed565b5b8160048111156137f9576137f8614aed565b5b141561383a576040517f08c379a00000000000000000000000000000000000000000000000000000000081526004016138319061675f565b60405180910390fd5b60048081111561384d5761384c614aed565b5b8160048111156138605761385f614aed565b5b14156138a1576040517f08c379a0000000000000000000000000000000000000000000000000000000008152600401613898906167f1565b60405180910390fd5b5b50565b60006007600087815260200190815260200160002090508060030160008673ffffffffffffffffffffffffffffffffffffffff1673ffffffffffffffffffffffffffffffffffffffff16815260200190815260200160002060009054906101000a900460ff161561394b576040517f08c379a000000000000000000000000000000000000000000000000000000000815260040161394290616883565b60405180910390fd5b60018160030160008773ffffffffffffffffffffffffffffffffffffffff1673ffffffffffffffffffffffffffffffffffffffff16815260200190815260200160002060006101000a81548160ff021916908315150217905550600060028111156139b9576139b8614aed565b5b60ff168460ff1614156139e657828160000160008282546139da919061593c565b92505081905550613aa4565b600160028111156139fa576139f9614aed565b5b60ff168460ff161415613a275782816001016000828254613a1b919061593c565b92505081905550613aa3565b600280811115613a3a57613a39614aed565b5b60ff168460ff161415613a675782816002016000828254613a5b919061593c565b92505081905550613aa2565b6040517f08c379a0000000000000000000000000000000000000000000000000000000008152600401613a9990616915565b60405180910390fd5b5b5b505050505050565b60008160000160009054906101000a9004600f0b600f0b8260000160109054906101000a9004600f0b600f0b13159050919050565b60008260000160109054906101000a9004600f0b90508183600101600083600f0b600f0b815260200190815260200160002081905550600181018360000160106101000a8154816fffffffffffffffffffffffffffffffff0219169083600f0b6fffffffffffffffffffffffffffffffff160217905550505050565b600a60009054906101000a900473ffffffffffffffffffffffffffffffffffffffff1673ffffffffffffffffffffffffffffffffffffffff1663e38335e5348686866000876040518763ffffffff1660e01b8152600401613bc29594939291906157ed565b6000604051808303818588803b158015613bdb57600080fd5b505af1158015613bef573d6000803e3d6000fd5b50505050505050505050565b60008160000160006101000a8154816fffffffffffffffffffffffffffffffff0219169083600f0b6fffffffffffffffffffffffffffffffff16021790555060008160000160106101000a8154816fffffffffffffffffffffffffffffffff0219169083600f0b6fffffffffffffffffffffffffffffffff16021790555050565b606060405180602001604052806000815250905090565b6000806001600084815260200190815260200160002090508060020160009054906101000a900460ff1615613ccc576007915050613da3565b8060020160019054906101000a900460ff1615613ced576002915050613da3565b6000613cf88461125b565b90506000811415613d3e576040517f08c379a0000000000000000000000000000000000000000000000000000000008152600401613d3590616981565b60405180910390fd5b438110613d5057600092505050613da3565b6000613d5b85611a20565b9050438110613d705760019350505050613da3565b613d7985614026565b8015613d8a5750613d898561406d565b5b15613d9b5760049350505050613da3565b600393505050505b919050565b60006002828418613db991906164f0565b828416613dc6919061593c565b905092915050565b600080826000015167ffffffffffffffff16149050919050565b600067ffffffffffffffff8016821115613e37576040517f08c379a0000000000000000000000000000000000000000000000000000000008152600401613e2e90616a13565b60405180910390fd5b819050919050565b808260000160006101000a81548167ffffffffffffffff021916908367ffffffffffffffff1602179055505050565b606082471015613eb3576040517f08c379a0000000000000000000000000000000000000000000000000000000008152600401613eaa90616aa5565b60405180910390fd5b613ebc85614098565b613efb576040517f08c379a0000000000000000000000000000000000000000000000000000000008152600401613ef290616b11565b60405180910390fd5b6000808673ffffffffffffffffffffffffffffffffffffffff168587604051613f249190616b62565b60006040518083038185875af1925050503d8060008114613f61576040519150601f19603f3d011682016040523d82523d6000602084013e613f66565b606091505b5091509150613f768282866140bb565b92505050949350505050565b60007f01ffc9a7000000000000000000000000000000000000000000000000000000007bffffffffffffffffffffffffffffffffffffffffffffffffffffffff1916827bffffffffffffffffffffffffffffffffffffffffffffffffffffffff1916149050919050565b60008383834630604051602001614007959493929190616b79565b6040516020818303038152906040528051906020012090509392505050565b60008060076000848152602001908152602001600020905080600201548160010154614052919061593c565b61406361405e8561125b565b611ebc565b1115915050919050565b6000806007600084815260200190815260200160002090508060000154816001015411915050919050565b6000808273ffffffffffffffffffffffffffffffffffffffff163b119050919050565b606083156140cb5782905061411b565b6000835111156140de5782518084602001fd5b816040517f08c379a000000000000000000000000000000000000000000000000000000000815260040161411291906145f9565b60405180910390fd5b9392505050565b6000604051905090565b600080fd5b600080fd5b60007fffffffff0000000000000000000000000000000000000000000000000000000082169050919050565b61416b81614136565b811461417657600080fd5b50565b60008135905061418881614162565b92915050565b6000602082840312156141a4576141a361412c565b5b60006141b284828501614179565b91505092915050565b60008115159050919050565b6141d0816141bb565b82525050565b60006020820190506141eb60008301846141c7565b92915050565b6000819050919050565b614204816141f1565b82525050565b600060208201905061421f60008301846141fb565b92915050565b61422e816141f1565b811461423957600080fd5b50565b60008135905061424b81614225565b92915050565b600060ff82169050919050565b61426781614251565b811461427257600080fd5b50565b6000813590506142848161425e565b92915050565b600080fd5b600080fd5b600080fd5b60008083601f8401126142af576142ae61428a565b5b8235905067ffffffffffffffff8111156142cc576142cb61428f565b5b6020830191508360018202830111156142e8576142e7614294565b5b9250929050565b600080fd5b6000601f19601f8301169050919050565b7f4e487b7100000000000000000000000000000000000000000000000000000000600052604160045260246000fd5b61433d826142f4565b810181811067ffffffffffffffff8211171561435c5761435b614305565b5b80604052505050565b600061436f614122565b905061437b8282614334565b919050565b600067ffffffffffffffff82111561439b5761439a614305565b5b6143a4826142f4565b9050602081019050919050565b82818337600083830152505050565b60006143d36143ce84614380565b614365565b9050828152602081018484840111156143ef576143ee6142ef565b5b6143fa8482856143b1565b509392505050565b600082601f8301126144175761441661428a565b5b81356144278482602086016143c0565b91505092915050565b6000819050919050565b61444381614430565b811461444e57600080fd5b50565b6000813590506144608161443a565b92915050565b60008060008060008060008060e0898b0312156144865761448561412c565b5b60006144948b828c0161423c565b98505060206144a58b828c01614275565b975050604089013567ffffffffffffffff8111156144c6576144c5614131565b5b6144d28b828c01614299565b9650965050606089013567ffffffffffffffff8111156144f5576144f4614131565b5b6145018b828c01614402565b94505060806145128b828c01614275565b93505060a06145238b828c01614451565b92505060c06145348b828c01614451565b9150509295985092959890939650565b60006020828403121561455a5761455961412c565b5b60006145688482850161423c565b91505092915050565b600081519050919050565b600082825260208201905092915050565b60005b838110156145ab578082015181840152602081019050614590565b838111156145ba576000848401525b50505050565b60006145cb82614571565b6145d5818561457c565b93506145e581856020860161458d565b6145ee816142f4565b840191505092915050565b6000602082019050818103600083015261461381846145c0565b905092915050565b600073ffffffffffffffffffffffffffffffffffffffff82169050919050565b60006146468261461b565b9050919050565b6146568161463b565b811461466157600080fd5b50565b6000813590506146738161464d565b92915050565b600080600080608085870312156146935761469261412c565b5b60006146a187828801614664565b94505060206146b287828801614664565b93505060406146c38782880161423c565b925050606085013567ffffffffffffffff8111156146e4576146e3614131565b5b6146f087828801614402565b91505092959194509250565b61470581614136565b82525050565b600060208201905061472060008301846146fc565b92915050565b600067ffffffffffffffff82111561474157614740614305565b5b602082029050602081019050919050565b600061476561476084614726565b614365565b9050808382526020820190506020840283018581111561478857614787614294565b5b835b818110156147b1578061479d8882614664565b84526020840193505060208101905061478a565b5050509392505050565b600082601f8301126147d0576147cf61428a565b5b81356147e0848260208601614752565b91505092915050565b600067ffffffffffffffff82111561480457614803614305565b5b602082029050602081019050919050565b6000614828614823846147e9565b614365565b9050808382526020820190506020840283018581111561484b5761484a614294565b5b835b818110156148745780614860888261423c565b84526020840193505060208101905061484d565b5050509392505050565b600082601f8301126148935761489261428a565b5b81356148a3848260208601614815565b91505092915050565b600067ffffffffffffffff8211156148c7576148c6614305565b5b602082029050602081019050919050565b60006148eb6148e6846148ac565b614365565b9050808382526020820190506020840283018581111561490e5761490d614294565b5b835b8181101561495557803567ffffffffffffffff8111156149335761493261428a565b5b8086016149408982614402565b85526020850194505050602081019050614910565b5050509392505050565b600082601f8301126149745761497361428a565b5b81356149848482602086016148d8565b91505092915050565b600080600080608085870312156149a7576149a661412c565b5b600085013567ffffffffffffffff8111156149c5576149c4614131565b5b6149d1878288016147bb565b945050602085013567ffffffffffffffff8111156149f2576149f1614131565b5b6149fe8782880161487e565b935050604085013567ffffffffffffffff811115614a1f57614a1e614131565b5b614a2b8782880161495f565b9250506060614a3c87828801614451565b91505092959194509250565b614a5181614430565b82525050565b6000602082019050614a6c6000830184614a48565b92915050565b600080600080600060a08688031215614a8e57614a8d61412c565b5b6000614a9c8882890161423c565b9550506020614aad88828901614275565b9450506040614abe88828901614275565b9350506060614acf88828901614451565b9250506080614ae088828901614451565b9150509295509295909350565b7f4e487b7100000000000000000000000000000000000000000000000000000000600052602160045260246000fd5b60088110614b2d57614b2c614aed565b5b50565b6000819050614b3e82614b1c565b919050565b6000614b4e82614b30565b9050919050565b614b5e81614b43565b82525050565b6000602082019050614b796000830184614b55565b92915050565b60008060408385031215614b9657614b9561412c565b5b6000614ba48582860161423c565b9250506020614bb585828601614664565b9150509250929050565b6000606082019050614bd460008301866141fb565b614be160208301856141fb565b614bee60408301846141fb565b949350505050565b60008060408385031215614c0d57614c0c61412c565b5b6000614c1b8582860161423c565b9250506020614c2c85828601614275565b9150509250929050565b600080600080600060808688031215614c5257614c5161412c565b5b6000614c608882890161423c565b9550506020614c7188828901614275565b945050604086013567ffffffffffffffff811115614c9257614c91614131565b5b614c9e88828901614299565b9350935050606086013567ffffffffffffffff811115614cc157614cc0614131565b5b614ccd88828901614402565b9150509295509295909350565b60008060008060608587031215614cf457614cf361412c565b5b6000614d028782880161423c565b9450506020614d1387828801614275565b935050604085013567ffffffffffffffff811115614d3457614d33614131565b5b614d4087828801614299565b925092505092959194509250565b600067ffffffffffffffff821115614d6957614d68614305565b5b614d72826142f4565b9050602081019050919050565b6000614d92614d8d84614d4e565b614365565b905082815260208101848484011115614dae57614dad6142ef565b5b614db98482856143b1565b509392505050565b600082601f830112614dd657614dd561428a565b5b8135614de6848260208601614d7f565b91505092915050565b60008060008060808587031215614e0957614e0861412c565b5b600085013567ffffffffffffffff811115614e2757614e26614131565b5b614e33878288016147bb565b945050602085013567ffffffffffffffff811115614e5457614e53614131565b5b614e608782880161487e565b935050604085013567ffffffffffffffff811115614e8157614e80614131565b5b614e8d8782880161495f565b925050606085013567ffffffffffffffff811115614eae57614ead614131565b5b614eba87828801614dc1565b91505092959194509250565b600080600060608486031215614edf57614ede61412c565b5b6000614eed86828701614664565b9350506020614efe8682870161423c565b925050604084013567ffffffffffffffff811115614f1f57614f1e614131565b5b614f2b86828701614402565b9150509250925092565b6000614f408261461b565b9050919050565b6000614f5282614f35565b9050919050565b614f6281614f47565b8114614f6d57600080fd5b50565b600081359050614f7f81614f59565b92915050565b600060208284031215614f9b57614f9a61412c565b5b6000614fa984828501614f70565b91505092915050565b600080600080600060a08688031215614fce57614fcd61412c565b5b6000614fdc88828901614664565b9550506020614fed88828901614664565b945050604086013567ffffffffffffffff81111561500e5761500d614131565b5b61501a8882890161487e565b935050606086013567ffffffffffffffff81111561503b5761503a614131565b5b6150478882890161487e565b925050608086013567ffffffffffffffff81111561506857615067614131565b5b61507488828901614402565b9150509295509295909350565b60008083601f8401126150975761509661428a565b5b8235905067ffffffffffffffff8111156150b4576150b361428f565b5b6020830191508360018202830111156150d0576150cf614294565b5b9250929050565b600080600080606085870312156150f1576150f061412c565b5b60006150ff87828801614664565b94505060206151108782880161423c565b935050604085013567ffffffffffffffff81111561513157615130614131565b5b61513d87828801615081565b925092505092959194509250565b6151548161463b565b82525050565b600060208201905061516f600083018461514b565b92915050565b6000806040838503121561518c5761518b61412c565b5b600061519a85828601614664565b92505060206151ab8582860161423c565b9150509250929050565b600080600080600060a086880312156151d1576151d061412c565b5b60006151df88828901614664565b95505060206151f088828901614664565b94505060406152018882890161423c565b93505060606152128882890161423c565b925050608086013567ffffffffffffffff81111561523357615232614131565b5b61523f88828901614402565b9150509295509295909350565b6000819050919050565b600061527161526c6152678461461b565b61524c565b61461b565b9050919050565b600061528382615256565b9050919050565b600061529582615278565b9050919050565b6152a58161528a565b82525050565b60006020820190506152c0600083018461529c565b92915050565b600081905092915050565b60006152dd83856152c6565b93506152ea8385846143b1565b82840190509392505050565b60006153038284866152d1565b91508190509392505050565b61531881614251565b82525050565b600060a0820190506153336000830188614a48565b61534060208301876141fb565b61534d604083018661530f565b61535a6060830185614a48565b6153676080830184614a48565b9695505050505050565b7f476f7665726e6f723a206f6e6c79476f7665726e616e63650000000000000000600082015250565b60006153a760188361457c565b91506153b282615371565b602082019050919050565b600060208201905081810360008301526153d68161539a565b9050919050565b7f4e487b7100000000000000000000000000000000000000000000000000000000600052602260045260246000fd5b6000600282049050600182168061542457607f821691505b60208210811415615438576154376153dd565b5b50919050565b7f476f7665726e6f723a2070726f706f73616c206e6f742073756363657373667560008201527f6c00000000000000000000000000000000000000000000000000000000000000602082015250565b600061549a60218361457c565b91506154a58261543e565b604082019050919050565b600060208201905081810360008301526154c98161548d565b9050919050565b6000815190506154df81614225565b92915050565b6000602082840312156154fb576154fa61412c565b5b6000615509848285016154d0565b91505092915050565b600081519050919050565b600082825260208201905092915050565b6000819050602082019050919050565b6155478161463b565b82525050565b6000615559838361553e565b60208301905092915050565b6000602082019050919050565b600061557d82615512565b615587818561551d565b93506155928361552e565b8060005b838110156155c35781516155aa888261554d565b97506155b583615565565b925050600181019050615596565b5085935050505092915050565b600081519050919050565b600082825260208201905092915050565b6000819050602082019050919050565b615605816141f1565b82525050565b600061561783836155fc565b60208301905092915050565b6000602082019050919050565b600061563b826155d0565b61564581856155db565b9350615650836155ec565b8060005b83811015615681578151615668888261560b565b975061567383615623565b925050600181019050615654565b5085935050505092915050565b600081519050919050565b600082825260208201905092915050565b6000819050602082019050919050565b600081519050919050565b600082825260208201905092915050565b60006156e1826156ba565b6156eb81856156c5565b93506156fb81856020860161458d565b615704816142f4565b840191505092915050565b600061571b83836156d6565b905092915050565b6000602082019050919050565b600061573b8261568e565b6157458185615699565b935083602082028501615757856156aa565b8060005b858110156157935784840389528151615774858261570f565b945061577f83615723565b925060208a0199505060018101905061575b565b50829750879550505050505092915050565b6000819050919050565b60008160001b9050919050565b60006157d76157d26157cd846157a5565b6157af565b614430565b9050919050565b6157e7816157bc565b82525050565b600060a08201905081810360008301526158078188615572565b9050818103602083015261581b8187615630565b9050818103604083015261582f8186615730565b905061583e60608301856157de565b61584b6080830184614a48565b9695505050505050565b6000815190506158648161443a565b92915050565b6000602082840312156158805761587f61412c565b5b600061588e84828501615855565b91505092915050565b600060c08201905081810360008301526158b18189615572565b905081810360208301526158c58188615630565b905081810360408301526158d98187615730565b90506158e860608301866157de565b6158f56080830185614a48565b61590260a08301846141fb565b979650505050505050565b7f4e487b7100000000000000000000000000000000000000000000000000000000600052601160045260246000fd5b6000615947826141f1565b9150615952836141f1565b9250827fffffffffffffffffffffffffffffffffffffffffffffffffffffffffffffffff038211156159875761598661590d565b5b828201905092915050565b60006040820190506159a760008301856141fb565b6159b460208301846141fb565b9392505050565b60006060820190506159d06000830186614a48565b6159dd60208301856141fb565b6159ea604083018461530f565b949350505050565b60006159fd826141f1565b9150615a08836141f1565b925082821015615a1b57615a1a61590d565b5b828203905092915050565b7f4e487b7100000000000000000000000000000000000000000000000000000000600052603260045260246000fd5b60006080820190508181036000830152615a6f8187615572565b90508181036020830152615a838186615630565b90508181036040830152615a978185615730565b9050615aa66060830184614a48565b95945050505050565b7f53616665436173743a2076616c756520646f65736e27742066697420696e203260008201527f3234206269747300000000000000000000000000000000000000000000000000602082015250565b6000615b0b60278361457c565b9150615b1682615aaf565b604082019050919050565b60006020820190508181036000830152615b3a81615afe565b9050919050565b7f53616665436173743a2076616c756520646f65736e27742066697420696e203360008201527f3220626974730000000000000000000000000000000000000000000000000000602082015250565b6000615b9d60268361457c565b9150615ba882615b41565b604082019050919050565b60006020820190508181036000830152615bcc81615b90565b9050919050565b7f476f7665726e6f723a20766f7465206e6f742063757272656e746c792061637460008201527f6976650000000000000000000000000000000000000000000000000000000000602082015250565b6000615c2f60238361457c565b9150615c3a82615bd3565b604082019050919050565b60006020820190508181036000830152615c5e81615c22565b9050919050565b6000608082019050615c7a60008301876141fb565b615c87602083018661530f565b615c9460408301856141fb565b8181036060830152615ca681846145c0565b905095945050505050565b600082825260208201905092915050565b6000615ccd826156ba565b615cd78185615cb1565b9350615ce781856020860161458d565b615cf0816142f4565b840191505092915050565b600060a082019050615d1060008301886141fb565b615d1d602083018761530f565b615d2a60408301866141fb565b8181036060830152615d3c81856145c0565b90508181036080830152615d508184615cc2565b90509695505050505050565b7f476f7665726e6f72566f74657351756f72756d4672616374696f6e3a2071756f60008201527f72756d4e756d657261746f72206f7665722071756f72756d44656e6f6d696e6160208201527f746f720000000000000000000000000000000000000000000000000000000000604082015250565b6000615dde60438361457c565b9150615de982615d5c565b606082019050919050565b60006020820190508181036000830152615e0d81615dd1565b9050919050565b6000615e1f826141f1565b91507fffffffffffffffffffffffffffffffffffffffffffffffffffffffffffffffff821415615e5257615e5161590d565b5b600182019050919050565b615e66816141bb565b8114615e7157600080fd5b50565b600081519050615e8381615e5d565b92915050565b600060208284031215615e9f57615e9e61412c565b5b6000615ead84828501615e74565b91505092915050565b7f436865636b706f696e74733a20626c6f636b206e6f7420796574206d696e6564600082015250565b6000615eec60208361457c565b9150615ef782615eb6565b602082019050919050565b60006020820190508181036000830152615f1b81615edf565b9050919050565b7f476f7665726e6f723a2070726f706f73657220766f7465732062656c6f77207060008201527f726f706f73616c207468726573686f6c64000000000000000000000000000000602082015250565b6000615f7e60318361457c565b9150615f8982615f22565b604082019050919050565b60006020820190508181036000830152615fad81615f71565b9050919050565b7f476f7665726e6f723a20696e76616c69642070726f706f73616c206c656e677460008201527f6800000000000000000000000000000000000000000000000000000000000000602082015250565b600061601060218361457c565b915061601b82615fb4565b604082019050919050565b6000602082019050818103600083015261603f81616003565b9050919050565b7f476f7665726e6f723a20656d7074792070726f706f73616c0000000000000000600082015250565b600061607c60188361457c565b915061608782616046565b602082019050919050565b600060208201905081810360008301526160ab8161606f565b9050919050565b7f476f7665726e6f723a2070726f706f73616c20616c726561647920657869737460008201527f7300000000000000000000000000000000000000000000000000000000000000602082015250565b600061610e60218361457c565b9150616119826160b2565b604082019050919050565b6000602082019050818103600083015261613d81616101565b9050919050565b600067ffffffffffffffff82169050919050565b600061616382616144565b915061616e83616144565b92508267ffffffffffffffff0382111561618b5761618a61590d565b5b828201905092915050565b600081519050919050565b600082825260208201905092915050565b6000819050602082019050919050565b600082825260208201905092915050565b60006161de82614571565b6161e881856161c2565b93506161f881856020860161458d565b616201816142f4565b840191505092915050565b600061621883836161d3565b905092915050565b6000602082019050919050565b600061623882616196565b61624281856161a1565b935083602082028501616254856161b2565b8060005b858110156162905784840389528151616271858261620c565b945061627c83616220565b925060208a01995050600181019050616258565b50829750879550505050505092915050565b60006162bd6162b86162b384616144565b61524c565b6141f1565b9050919050565b6162cd816162a2565b82525050565b6000610120820190506162e9600083018c6141fb565b6162f6602083018b61514b565b8181036040830152616308818a615572565b9050818103606083015261631c8189615630565b90508181036080830152616330818861622d565b905081810360a08301526163448187615730565b905061635360c08301866162c4565b61636060e08301856162c4565b81810361010083015261637381846145c0565b90509a9950505050505050505050565b6000604082019050616398600083018561514b565b6163a560208301846141fb565b9392505050565b60006040820190506163c1600083018561514b565b6163ce602083018461514b565b9392505050565b7f476f7665726e6f7253657474696e67733a20766f74696e6720706572696f642060008201527f746f6f206c6f7700000000000000000000000000000000000000000000000000602082015250565b600061643160278361457c565b915061643c826163d5565b604082019050919050565b6000602082019050818103600083015261646081616424565b9050919050565b6000616472826141f1565b915061647d836141f1565b9250817fffffffffffffffffffffffffffffffffffffffffffffffffffffffffffffffff04831182151516156164b6576164b561590d565b5b828202905092915050565b7f4e487b7100000000000000000000000000000000000000000000000000000000600052601260045260246000fd5b60006164fb826141f1565b9150616506836141f1565b925082616516576165156164c1565b5b828204905092915050565b600081905092915050565b7f1901000000000000000000000000000000000000000000000000000000000000600082015250565b6000616562600283616521565b915061656d8261652c565b600282019050919050565b6000819050919050565b61659361658e82614430565b616578565b82525050565b60006165a482616555565b91506165b08285616582565b6020820191506165c08284616582565b6020820191508190509392505050565b60006080820190506165e56000830187614a48565b6165f2602083018661530f565b6165ff6040830185614a48565b61660c6060830184614a48565b95945050505050565b7f45434453413a20696e76616c6964207369676e61747572650000000000000000600082015250565b600061664b60188361457c565b915061665682616615565b602082019050919050565b6000602082019050818103600083015261667a8161663e565b9050919050565b7f45434453413a20696e76616c6964207369676e6174757265206c656e67746800600082015250565b60006166b7601f8361457c565b91506166c282616681565b602082019050919050565b600060208201905081810360008301526166e6816166aa565b9050919050565b7f45434453413a20696e76616c6964207369676e6174757265202773272076616c60008201527f7565000000000000000000000000000000000000000000000000000000000000602082015250565b600061674960228361457c565b9150616754826166ed565b604082019050919050565b600060208201905081810360008301526167788161673c565b9050919050565b7f45434453413a20696e76616c6964207369676e6174757265202776272076616c60008201527f7565000000000000000000000000000000000000000000000000000000000000602082015250565b60006167db60228361457c565b91506167e68261677f565b604082019050919050565b6000602082019050818103600083015261680a816167ce565b9050919050565b7f476f7665726e6f72566f74696e6753696d706c653a20766f746520616c72656160008201527f6479206361737400000000000000000000000000000000000000000000000000602082015250565b600061686d60278361457c565b915061687882616811565b604082019050919050565b6000602082019050818103600083015261689c81616860565b9050919050565b7f476f7665726e6f72566f74696e6753696d706c653a20696e76616c696420766160008201527f6c756520666f7220656e756d20566f7465547970650000000000000000000000602082015250565b60006168ff60358361457c565b915061690a826168a3565b604082019050919050565b6000602082019050818103600083015261692e816168f2565b9050919050565b7f476f7665726e6f723a20756e6b6e6f776e2070726f706f73616c206964000000600082015250565b600061696b601d8361457c565b915061697682616935565b602082019050919050565b6000602082019050818103600083015261699a8161695e565b9050919050565b7f53616665436173743a2076616c756520646f65736e27742066697420696e203660008201527f3420626974730000000000000000000000000000000000000000000000000000602082015250565b60006169fd60268361457c565b9150616a08826169a1565b604082019050919050565b60006020820190508181036000830152616a2c816169f0565b9050919050565b7f416464726573733a20696e73756666696369656e742062616c616e636520666f60008201527f722063616c6c0000000000000000000000000000000000000000000000000000602082015250565b6000616a8f60268361457c565b9150616a9a82616a33565b604082019050919050565b60006020820190508181036000830152616abe81616a82565b9050919050565b7f416464726573733a2063616c6c20746f206e6f6e2d636f6e7472616374000000600082015250565b6000616afb601d8361457c565b9150616b0682616ac5565b602082019050919050565b60006020820190508181036000830152616b2a81616aee565b9050919050565b6000616b3c826156ba565b616b4681856152c6565b9350616b5681856020860161458d565b80840191505092915050565b6000616b6e8284616b31565b915081905092915050565b600060a082019050616b8e6000830188614a48565b616b9b6020830187614a48565b616ba86040830186614a48565b616bb560608301856141fb565b616bc2608083018461514b565b969550505050505056fe416464726573733a206c6f772d6c6576656c2063616c6c20776974682076616c7565206661696c6564a2646970667358221220df8621a7e119f367f3a2fb3b330a2d902366f7d1d847f12690eb46d771235cde64736f6c63430008090033",
  "linkReferences": {},
  "deployedLinkReferences": {}
}