{
  "_format": "hh-sol-artifact-1",
  "contractName": "PolyCareMain",
  "sourceName": "contracts/PolyCareMain.sol",
  "abi": [
    {
      "inputs": [
        {
          "internalType": "uint256",
          "name": "_value",
          "type": "uint256"
        },
        {
          "internalType": "address payable",
          "name": "_treasury",
          "type": "address"
        }
      ],
      "stateMutability": "nonpayable",
      "type": "constructor"
    },
    {
      "anonymous": false,
      "inputs": [
        {
          "indexed": true,
          "internalType": "address",
          "name": "owner",
          "type": "address"
        },
        {
          "indexed": true,
          "internalType": "address",
          "name": "spender",
          "type": "address"
        },
        {
          "indexed": false,
          "internalType": "uint256",
          "name": "value",
          "type": "uint256"
        }
      ],
      "name": "Approval",
      "type": "event"
    },
    {
      "anonymous": false,
      "inputs": [
        {
          "indexed": true,
          "internalType": "address",
          "name": "delegator",
          "type": "address"
        },
        {
          "indexed": true,
          "internalType": "address",
          "name": "fromDelegate",
          "type": "address"
        },
        {
          "indexed": true,
          "internalType": "address",
          "name": "toDelegate",
          "type": "address"
        }
      ],
      "name": "DelegateChanged",
      "type": "event"
    },
    {
      "anonymous": false,
      "inputs": [
        {
          "indexed": true,
          "internalType": "address",
          "name": "delegate",
          "type": "address"
        },
        {
          "indexed": false,
          "internalType": "uint256",
          "name": "previousBalance",
          "type": "uint256"
        },
        {
          "indexed": false,
          "internalType": "uint256",
          "name": "newBalance",
          "type": "uint256"
        }
      ],
      "name": "DelegateVotesChanged",
      "type": "event"
    },
    {
      "anonymous": false,
      "inputs": [
        {
          "indexed": true,
          "internalType": "address",
          "name": "user",
          "type": "address"
        },
        {
          "indexed": false,
          "internalType": "uint256",
          "name": "amount",
          "type": "uint256"
        }
      ],
      "name": "Donate",
      "type": "event"
    },
    {
      "anonymous": false,
      "inputs": [
        {
          "indexed": true,
          "internalType": "address",
          "name": "user",
          "type": "address"
        },
        {
          "indexed": false,
          "internalType": "uint256",
          "name": "amount",
          "type": "uint256"
        }
      ],
      "name": "DonateWithoutToken",
      "type": "event"
    },
    {
      "anonymous": false,
      "inputs": [
        {
          "indexed": true,
          "internalType": "address",
          "name": "from",
          "type": "address"
        },
        {
          "indexed": true,
          "internalType": "address",
          "name": "to",
          "type": "address"
        },
        {
          "indexed": false,
          "internalType": "uint256",
          "name": "value",
          "type": "uint256"
        }
      ],
      "name": "Transfer",
      "type": "event"
    },
    {
      "inputs": [],
      "name": "DOMAIN_SEPARATOR",
      "outputs": [
        {
          "internalType": "bytes32",
          "name": "",
          "type": "bytes32"
        }
      ],
      "stateMutability": "view",
      "type": "function"
    },
    {
      "inputs": [
        {
          "internalType": "address",
          "name": "owner",
          "type": "address"
        },
        {
          "internalType": "address",
          "name": "spender",
          "type": "address"
        }
      ],
      "name": "allowance",
      "outputs": [
        {
          "internalType": "uint256",
          "name": "",
          "type": "uint256"
        }
      ],
      "stateMutability": "view",
      "type": "function"
    },
    {
      "inputs": [
        {
          "internalType": "address",
          "name": "spender",
          "type": "address"
        },
        {
          "internalType": "uint256",
          "name": "amount",
          "type": "uint256"
        }
      ],
      "name": "approve",
      "outputs": [
        {
          "internalType": "bool",
          "name": "",
          "type": "bool"
        }
      ],
      "stateMutability": "nonpayable",
      "type": "function"
    },
    {
      "inputs": [
        {
          "internalType": "address",
          "name": "account",
          "type": "address"
        }
      ],
      "name": "balanceOf",
      "outputs": [
        {
          "internalType": "uint256",
          "name": "",
          "type": "uint256"
        }
      ],
      "stateMutability": "view",
      "type": "function"
    },
    {
      "inputs": [
        {
          "internalType": "address",
          "name": "account",
          "type": "address"
        },
        {
          "internalType": "uint32",
          "name": "pos",
          "type": "uint32"
        }
      ],
      "name": "checkpoints",
      "outputs": [
        {
          "components": [
            {
              "internalType": "uint32",
              "name": "fromBlock",
              "type": "uint32"
            },
            {
              "internalType": "uint224",
              "name": "votes",
              "type": "uint224"
            }
          ],
          "internalType": "struct ERC20Votes.Checkpoint",
          "name": "",
          "type": "tuple"
        }
      ],
      "stateMutability": "view",
      "type": "function"
    },
    {
      "inputs": [],
      "name": "currentSupply",
      "outputs": [
        {
          "internalType": "uint256",
          "name": "",
          "type": "uint256"
        }
      ],
      "stateMutability": "view",
      "type": "function"
    },
    {
      "inputs": [],
      "name": "decimals",
      "outputs": [
        {
          "internalType": "uint8",
          "name": "",
          "type": "uint8"
        }
      ],
      "stateMutability": "view",
      "type": "function"
    },
    {
      "inputs": [
        {
          "internalType": "address",
          "name": "spender",
          "type": "address"
        },
        {
          "internalType": "uint256",
          "name": "subtractedValue",
          "type": "uint256"
        }
      ],
      "name": "decreaseAllowance",
      "outputs": [
        {
          "internalType": "bool",
          "name": "",
          "type": "bool"
        }
      ],
      "stateMutability": "nonpayable",
      "type": "function"
    },
    {
      "inputs": [
        {
          "internalType": "address",
          "name": "delegatee",
          "type": "address"
        }
      ],
      "name": "delegate",
      "outputs": [],
      "stateMutability": "nonpayable",
      "type": "function"
    },
    {
      "inputs": [
        {
          "internalType": "address",
          "name": "delegatee",
          "type": "address"
        },
        {
          "internalType": "uint256",
          "name": "nonce",
          "type": "uint256"
        },
        {
          "internalType": "uint256",
          "name": "expiry",
          "type": "uint256"
        },
        {
          "internalType": "uint8",
          "name": "v",
          "type": "uint8"
        },
        {
          "internalType": "bytes32",
          "name": "r",
          "type": "bytes32"
        },
        {
          "internalType": "bytes32",
          "name": "s",
          "type": "bytes32"
        }
      ],
      "name": "delegateBySig",
      "outputs": [],
      "stateMutability": "nonpayable",
      "type": "function"
    },
    {
      "inputs": [
        {
          "internalType": "address",
          "name": "account",
          "type": "address"
        }
      ],
      "name": "delegates",
      "outputs": [
        {
          "internalType": "address",
          "name": "",
          "type": "address"
        }
      ],
      "stateMutability": "view",
      "type": "function"
    },
    {
      "inputs": [],
      "name": "donate",
      "outputs": [],
      "stateMutability": "payable",
      "type": "function"
    },
    {
      "inputs": [],
      "name": "donateWithoutToken",
      "outputs": [],
      "stateMutability": "payable",
      "type": "function"
    },
    {
      "inputs": [
        {
          "internalType": "uint256",
          "name": "",
          "type": "uint256"
        }
      ],
      "name": "donations",
      "outputs": [
        {
          "internalType": "address",
          "name": "donor",
          "type": "address"
        },
        {
          "internalType": "uint256",
          "name": "quantity",
          "type": "uint256"
        }
      ],
      "stateMutability": "view",
      "type": "function"
    },
    {
      "inputs": [
        {
          "internalType": "address",
          "name": "",
          "type": "address"
        }
      ],
      "name": "donors",
      "outputs": [
        {
          "internalType": "bool",
          "name": "",
          "type": "bool"
        }
      ],
      "stateMutability": "view",
      "type": "function"
    },
    {
      "inputs": [
        {
          "internalType": "uint256",
          "name": "blockNumber",
          "type": "uint256"
        }
      ],
      "name": "getPastTotalSupply",
      "outputs": [
        {
          "internalType": "uint256",
          "name": "",
          "type": "uint256"
        }
      ],
      "stateMutability": "view",
      "type": "function"
    },
    {
      "inputs": [
        {
          "internalType": "address",
          "name": "account",
          "type": "address"
        },
        {
          "internalType": "uint256",
          "name": "blockNumber",
          "type": "uint256"
        }
      ],
      "name": "getPastVotes",
      "outputs": [
        {
          "internalType": "uint256",
          "name": "",
          "type": "uint256"
        }
      ],
      "stateMutability": "view",
      "type": "function"
    },
    {
      "inputs": [],
      "name": "getTokenBalance",
      "outputs": [
        {
          "internalType": "uint256",
          "name": "balance",
          "type": "uint256"
        }
      ],
      "stateMutability": "view",
      "type": "function"
    },
    {
      "inputs": [
        {
          "internalType": "address",
          "name": "account",
          "type": "address"
        }
      ],
      "name": "getVotes",
      "outputs": [
        {
          "internalType": "uint256",
          "name": "",
          "type": "uint256"
        }
      ],
      "stateMutability": "view",
      "type": "function"
    },
    {
      "inputs": [
        {
          "internalType": "address",
          "name": "spender",
          "type": "address"
        },
        {
          "internalType": "uint256",
          "name": "addedValue",
          "type": "uint256"
        }
      ],
      "name": "increaseAllowance",
      "outputs": [
        {
          "internalType": "bool",
          "name": "",
          "type": "bool"
        }
      ],
      "stateMutability": "nonpayable",
      "type": "function"
    },
    {
      "inputs": [
        {
          "internalType": "address",
          "name": "_donor",
          "type": "address"
        }
      ],
      "name": "isDonor",
      "outputs": [
        {
          "internalType": "bool",
          "name": "",
          "type": "bool"
        }
      ],
      "stateMutability": "view",
      "type": "function"
    },
    {
      "inputs": [],
      "name": "maxPurchase",
      "outputs": [
        {
          "internalType": "uint256",
          "name": "",
          "type": "uint256"
        }
      ],
      "stateMutability": "view",
      "type": "function"
    },
    {
      "inputs": [],
      "name": "minPurchase",
      "outputs": [
        {
          "internalType": "uint256",
          "name": "",
          "type": "uint256"
        }
      ],
      "stateMutability": "view",
      "type": "function"
    },
    {
      "inputs": [],
      "name": "name",
      "outputs": [
        {
          "internalType": "string",
          "name": "",
          "type": "string"
        }
      ],
      "stateMutability": "view",
      "type": "function"
    },
    {
      "inputs": [
        {
          "internalType": "address",
          "name": "owner",
          "type": "address"
        }
      ],
      "name": "nonces",
      "outputs": [
        {
          "internalType": "uint256",
          "name": "",
          "type": "uint256"
        }
      ],
      "stateMutability": "view",
      "type": "function"
    },
    {
      "inputs": [
        {
          "internalType": "address",
          "name": "account",
          "type": "address"
        }
      ],
      "name": "numCheckpoints",
      "outputs": [
        {
          "internalType": "uint32",
          "name": "",
          "type": "uint32"
        }
      ],
      "stateMutability": "view",
      "type": "function"
    },
    {
      "inputs": [
        {
          "internalType": "address",
          "name": "owner",
          "type": "address"
        },
        {
          "internalType": "address",
          "name": "spender",
          "type": "address"
        },
        {
          "internalType": "uint256",
          "name": "value",
          "type": "uint256"
        },
        {
          "internalType": "uint256",
          "name": "deadline",
          "type": "uint256"
        },
        {
          "internalType": "uint8",
          "name": "v",
          "type": "uint8"
        },
        {
          "internalType": "bytes32",
          "name": "r",
          "type": "bytes32"
        },
        {
          "internalType": "bytes32",
          "name": "s",
          "type": "bytes32"
        }
      ],
      "name": "permit",
      "outputs": [],
      "stateMutability": "nonpayable",
      "type": "function"
    },
    {
      "inputs": [],
      "name": "s_maxSupply",
      "outputs": [
        {
          "internalType": "uint256",
          "name": "",
          "type": "uint256"
        }
      ],
      "stateMutability": "view",
      "type": "function"
    },
    {
      "inputs": [],
      "name": "symbol",
      "outputs": [
        {
          "internalType": "string",
          "name": "",
          "type": "string"
        }
      ],
      "stateMutability": "view",
      "type": "function"
    },
    {
      "inputs": [],
      "name": "totalSupply",
      "outputs": [
        {
          "internalType": "uint256",
          "name": "",
          "type": "uint256"
        }
      ],
      "stateMutability": "view",
      "type": "function"
    },
    {
      "inputs": [
        {
          "internalType": "address",
          "name": "to",
          "type": "address"
        },
        {
          "internalType": "uint256",
          "name": "amount",
          "type": "uint256"
        }
      ],
      "name": "transfer",
      "outputs": [
        {
          "internalType": "bool",
          "name": "",
          "type": "bool"
        }
      ],
      "stateMutability": "nonpayable",
      "type": "function"
    },
    {
      "inputs": [
        {
          "internalType": "address",
          "name": "from",
          "type": "address"
        },
        {
          "internalType": "address",
          "name": "to",
          "type": "address"
        },
        {
          "internalType": "uint256",
          "name": "amount",
          "type": "uint256"
        }
      ],
      "name": "transferFrom",
      "outputs": [
        {
          "internalType": "bool",
          "name": "",
          "type": "bool"
        }
      ],
      "stateMutability": "nonpayable",
      "type": "function"
    },
    {
      "inputs": [],
      "name": "value",
      "outputs": [
        {
          "internalType": "uint256",
          "name": "",
          "type": "uint256"
        }
      ],
      "stateMutability": "view",
      "type": "function"
    }
  ],
  "bytecode": "0x6101406040526a52b7d2dcc80cd2e4000000600a553480156200002157600080fd5b50604051620048ca380380620048ca8339818101604052810190620000479190620003e8565b6040518060400160405280600d81526020017f506f6c7963617265546f6b656e00000000000000000000000000000000000000815250806040518060400160405280600181526020017f31000000000000000000000000000000000000000000000000000000000000008152506040518060400160405280600d81526020017f506f6c7963617265546f6b656e000000000000000000000000000000000000008152506040518060400160405280600381526020017f504354000000000000000000000000000000000000000000000000000000000081525081600390805190602001906200013892919062000293565b5080600490805190602001906200015192919062000293565b50505060008280519060200120905060008280519060200120905060007f8b73c3c69bb8fe3d512ecc4cf759cc79239f7b179b0ffacaa9a75d522b39400f90508260e081815250508161010081815250504660a08181525050620001bd8184846200025760201b60201c565b608081815250503073ffffffffffffffffffffffffffffffffffffffff1660c08173ffffffffffffffffffffffffffffffffffffffff168152505080610120818152505050505050505081600c8190555080601260006101000a81548173ffffffffffffffffffffffffffffffffffffffff021916908373ffffffffffffffffffffffffffffffffffffffff160217905550505062000542565b600083838346306040516020016200027495949392919062000480565b6040516020818303038152906040528051906020012090509392505050565b828054620002a1906200050c565b90600052602060002090601f016020900481019282620002c5576000855562000311565b82601f10620002e057805160ff191683800117855562000311565b8280016001018555821562000311579182015b8281111562000310578251825591602001919060010190620002f3565b5b50905062000320919062000324565b5090565b5b808211156200033f57600081600090555060010162000325565b5090565b600080fd5b6000819050919050565b6200035d8162000348565b81146200036957600080fd5b50565b6000815190506200037d8162000352565b92915050565b600073ffffffffffffffffffffffffffffffffffffffff82169050919050565b6000620003b08262000383565b9050919050565b620003c281620003a3565b8114620003ce57600080fd5b50565b600081519050620003e281620003b7565b92915050565b6000806040838503121562000402576200040162000343565b5b600062000412858286016200036c565b92505060206200042585828601620003d1565b9150509250929050565b6000819050919050565b62000444816200042f565b82525050565b620004558162000348565b82525050565b6000620004688262000383565b9050919050565b6200047a816200045b565b82525050565b600060a08201905062000497600083018862000439565b620004a6602083018762000439565b620004b5604083018662000439565b620004c460608301856200044a565b620004d360808301846200046f565b9695505050505050565b7f4e487b7100000000000000000000000000000000000000000000000000000000600052602260045260246000fd5b600060028204905060018216806200052557607f821691505b602082108114156200053c576200053b620004dd565b5b50919050565b60805160a05160c05160e0516101005161012051614338620005926000396000611dfb01526000611e3d01526000611e1c01526000611d5101526000611da701526000611dd001526143386000f3fe6080604052600436106101fe5760003560e01c806370a082311161011d578063a457c2d7116100b0578063d505accf1161007f578063ed88c68e11610064578063ed88c68e146107f4578063f1127ed8146107fe578063f8626af81461083b576101fe565b8063d505accf1461078e578063dd62ed3e146107b7576101fe565b8063a457c2d7146106ae578063a9059cbb146106eb578063c3cda52014610728578063ca0cdea814610751576101fe565b80638e539e8c116100ec5780638e539e8c146105de57806395d89b411461061b578063977b055b146106465780639ab24eb014610671576101fe565b806370a082311461050e578063771282f61461054b5780637ecebe001461057657806382b2e257146105b3576101fe565b806339509351116101955780635c19a95c116101645780635c19a95c146104735780635d6418471461049c57806363ca4549146104c75780636fcfff45146104d1576101fe565b806339509351146103915780633a46b1a8146103ce5780633fa4f2451461040b578063587cde1e14610436576101fe565b80632bc3d7aa116101d15780632bc3d7aa146102d3578063313ce5671461031057806333b5b62e1461033b5780633644e51514610366576101fe565b806306fdde0314610203578063095ea7b31461022e57806318160ddd1461026b57806323b872dd14610296575b600080fd5b34801561020f57600080fd5b50610218610879565b6040516102259190612e21565b60405180910390f35b34801561023a57600080fd5b5061025560048036038101906102509190612edc565b61090b565b6040516102629190612f37565b60405180910390f35b34801561027757600080fd5b5061028061092e565b60405161028d9190612f61565b60405180910390f35b3480156102a257600080fd5b506102bd60048036038101906102b89190612f7c565b610938565b6040516102ca9190612f37565b60405180910390f35b3480156102df57600080fd5b506102fa60048036038101906102f59190612fcf565b610967565b6040516103079190612f37565b60405180910390f35b34801561031c57600080fd5b506103256109bd565b6040516103329190613018565b60405180910390f35b34801561034757600080fd5b506103506109c6565b60405161035d9190612f61565b60405180910390f35b34801561037257600080fd5b5061037b6109cc565b604051610388919061304c565b60405180910390f35b34801561039d57600080fd5b506103b860048036038101906103b39190612edc565b6109db565b6040516103c59190612f37565b60405180910390f35b3480156103da57600080fd5b506103f560048036038101906103f09190612edc565b610a12565b6040516104029190612f61565b60405180910390f35b34801561041757600080fd5b50610420610aa6565b60405161042d9190612f61565b60405180910390f35b34801561044257600080fd5b5061045d60048036038101906104589190612fcf565b610aac565b60405161046a9190613076565b60405180910390f35b34801561047f57600080fd5b5061049a60048036038101906104959190612fcf565b610b15565b005b3480156104a857600080fd5b506104b1610b29565b6040516104be9190612f61565b60405180910390f35b6104cf610b2f565b005b3480156104dd57600080fd5b506104f860048036038101906104f39190612fcf565b610c4e565b60405161050591906130b0565b60405180910390f35b34801561051a57600080fd5b5061053560048036038101906105309190612fcf565b610ca2565b6040516105429190612f61565b60405180910390f35b34801561055757600080fd5b50610560610cea565b60405161056d9190612f61565b60405180910390f35b34801561058257600080fd5b5061059d60048036038101906105989190612fcf565b610cf0565b6040516105aa9190612f61565b60405180910390f35b3480156105bf57600080fd5b506105c8610d40565b6040516105d59190612f61565b60405180910390f35b3480156105ea57600080fd5b50610605600480360381019061060091906130cb565b610d57565b6040516106129190612f61565b60405180910390f35b34801561062757600080fd5b50610630610dad565b60405161063d9190612e21565b60405180910390f35b34801561065257600080fd5b5061065b610e3f565b6040516106689190612f61565b60405180910390f35b34801561067d57600080fd5b5061069860048036038101906106939190612fcf565b610e45565b6040516106a59190612f61565b60405180910390f35b3480156106ba57600080fd5b506106d560048036038101906106d09190612edc565b610f56565b6040516106e29190612f37565b60405180910390f35b3480156106f757600080fd5b50610712600480360381019061070d9190612edc565b610fcd565b60405161071f9190612f37565b60405180910390f35b34801561073457600080fd5b5061074f600480360381019061074a9190613150565b610ff0565b005b34801561075d57600080fd5b5061077860048036038101906107739190612fcf565b6110f4565b6040516107859190612f37565b60405180910390f35b34801561079a57600080fd5b506107b560048036038101906107b091906131dd565b611114565b005b3480156107c357600080fd5b506107de60048036038101906107d9919061327f565b611256565b6040516107eb9190612f61565b60405180910390f35b6107fc6112dd565b005b34801561080a57600080fd5b50610825600480360381019061082091906132eb565b611709565b60405161083291906133a0565b60405180910390f35b34801561084757600080fd5b50610862600480360381019061085d91906130cb565b611819565b6040516108709291906133bb565b60405180910390f35b60606003805461088890613413565b80601f01602080910402602001604051908101604052809291908181526020018280546108b490613413565b80156109015780601f106108d657610100808354040283529160200191610901565b820191906000526020600020905b8154815290600101906020018083116108e457829003601f168201915b5050505050905090565b60008061091661186d565b9050610923818585611875565b600191505092915050565b6000600254905090565b60008061094361186d565b9050610950858285611a40565b61095b858585611acc565b60019150509392505050565b6000601060008373ffffffffffffffffffffffffffffffffffffffff1673ffffffffffffffffffffffffffffffffffffffff16815260200190815260200160002060009054906101000a900460ff169050919050565b60006012905090565b600d5481565b60006109d6611d4d565b905090565b6000806109e661186d565b9050610a078185856109f88589611256565b610a029190613474565b611875565b600191505092915050565b6000438210610a56576040517f08c379a0000000000000000000000000000000000000000000000000000000008152600401610a4d90613516565b60405180910390fd5b610a9e600860008573ffffffffffffffffffffffffffffffffffffffff1673ffffffffffffffffffffffffffffffffffffffff16815260200190815260200160002083611e67565b905092915050565b600c5481565b6000600760008373ffffffffffffffffffffffffffffffffffffffff1673ffffffffffffffffffffffffffffffffffffffff16815260200190815260200160002060009054906101000a900473ffffffffffffffffffffffffffffffffffffffff169050919050565b610b26610b2061186d565b82611f73565b50565b600a5481565b6000601260009054906101000a900473ffffffffffffffffffffffffffffffffffffffff1673ffffffffffffffffffffffffffffffffffffffff1647604051610b7790613567565b60006040518083038185875af1925050503d8060008114610bb4576040519150601f19603f3d011682016040523d82523d6000602084013e610bb9565b606091505b5050905080610bfd576040517f08c379a0000000000000000000000000000000000000000000000000000000008152600401610bf4906135c8565b60405180910390fd5b3373ffffffffffffffffffffffffffffffffffffffff167fb4da4cb7a2d08faa2513eeb8b3996bc334b6ce63b02eebcca7f87341a7acfd9a34604051610c439190612f61565b60405180910390a250565b6000610c9b600860008473ffffffffffffffffffffffffffffffffffffffff1673ffffffffffffffffffffffffffffffffffffffff1681526020019081526020016000208054905061208d565b9050919050565b60008060008373ffffffffffffffffffffffffffffffffffffffff1673ffffffffffffffffffffffffffffffffffffffff168152602001908152602001600020549050919050565b600b5481565b6000610d39600560008473ffffffffffffffffffffffffffffffffffffffff1673ffffffffffffffffffffffffffffffffffffffff1681526020019081526020016000206120e0565b9050919050565b6000600b54600a54610d5291906135e8565b905090565b6000438210610d9b576040517f08c379a0000000000000000000000000000000000000000000000000000000008152600401610d9290613516565b60405180910390fd5b610da6600983611e67565b9050919050565b606060048054610dbc90613413565b80601f0160208091040260200160405190810160405280929190818152602001828054610de890613413565b8015610e355780601f10610e0a57610100808354040283529160200191610e35565b820191906000526020600020905b815481529060010190602001808311610e1857829003601f168201915b5050505050905090565b600e5481565b600080600860008473ffffffffffffffffffffffffffffffffffffffff1673ffffffffffffffffffffffffffffffffffffffff16815260200190815260200160002080549050905060008114610f2d57600860008473ffffffffffffffffffffffffffffffffffffffff1673ffffffffffffffffffffffffffffffffffffffff168152602001908152602001600020600182610ee191906135e8565b81548110610ef257610ef161361c565b5b9060005260206000200160000160049054906101000a90047bffffffffffffffffffffffffffffffffffffffffffffffffffffffff16610f30565b60005b7bffffffffffffffffffffffffffffffffffffffffffffffffffffffff16915050919050565b600080610f6161186d565b90506000610f6f8286611256565b905083811015610fb4576040517f08c379a0000000000000000000000000000000000000000000000000000000008152600401610fab906136bd565b60405180910390fd5b610fc18286868403611875565b60019250505092915050565b600080610fd861186d565b9050610fe5818585611acc565b600191505092915050565b83421115611033576040517f08c379a000000000000000000000000000000000000000000000000000000000815260040161102a90613729565b60405180910390fd5b600061109561108d7fe48329057bfd03d55e49b547132e39cffd9c1820ad7b9d4c5307691425d15adf8989896040516020016110729493929190613749565b604051602081830303815290604052805190602001206120ee565b858585612108565b90506110a081612133565b86146110e1576040517f08c379a00000000000000000000000000000000000000000000000000000000081526004016110d8906137da565b60405180910390fd5b6110eb8188611f73565b50505050505050565b60106020528060005260406000206000915054906101000a900460ff1681565b83421115611157576040517f08c379a000000000000000000000000000000000000000000000000000000000815260040161114e90613846565b60405180910390fd5b60007f6e71edae12b1b97f4d1f60370fef10105fa2faae0126114a169c64845d6126c98888886111868c612133565b8960405160200161119c96959493929190613866565b60405160208183030381529060405280519060200120905060006111bf826120ee565b905060006111cf82878787612108565b90508973ffffffffffffffffffffffffffffffffffffffff168173ffffffffffffffffffffffffffffffffffffffff161461123f576040517f08c379a000000000000000000000000000000000000000000000000000000000815260040161123690613913565b60405180910390fd5b61124a8a8a8a611875565b50505050505050505050565b6000600160008473ffffffffffffffffffffffffffffffffffffffff1673ffffffffffffffffffffffffffffffffffffffff16815260200190815260200160002060008373ffffffffffffffffffffffffffffffffffffffff1673ffffffffffffffffffffffffffffffffffffffff16815260200190815260200160002054905092915050565b600069021e19e0c9bab24000009050806112f5610d40565b1015611336576040517f08c379a000000000000000000000000000000000000000000000000000000000815260040161132d9061397f565b60405180910390fd5b60011515601060003373ffffffffffffffffffffffffffffffffffffffff1673ffffffffffffffffffffffffffffffffffffffff16815260200190815260200160002060009054906101000a900460ff16151514156113f3576000601160003373ffffffffffffffffffffffffffffffffffffffff1673ffffffffffffffffffffffffffffffffffffffff1681526020019081526020016000209050818160010160008282546113e69190613474565b92505081905550506115b3565b600f60405180604001604052803373ffffffffffffffffffffffffffffffffffffffff16815260200183815250908060018154018082558091505060019003906000526020600020906002020160009091909190915060008201518160000160006101000a81548173ffffffffffffffffffffffffffffffffffffffff021916908373ffffffffffffffffffffffffffffffffffffffff1602179055506020820151816001015550506001601060003373ffffffffffffffffffffffffffffffffffffffff1673ffffffffffffffffffffffffffffffffffffffff16815260200190815260200160002060006101000a81548160ff02191690831515021790555060405180604001604052803373ffffffffffffffffffffffffffffffffffffffff16815260200182815250601160003373ffffffffffffffffffffffffffffffffffffffff1673ffffffffffffffffffffffffffffffffffffffff16815260200190815260200160002060008201518160000160006101000a81548173ffffffffffffffffffffffffffffffffffffffff021916908373ffffffffffffffffffffffffffffffffffffffff160217905550602082015181600101559050505b6115bc47612191565b6000471115611706576000601260009054906101000a900473ffffffffffffffffffffffffffffffffffffffff1673ffffffffffffffffffffffffffffffffffffffff164760405161160d90613567565b60006040518083038185875af1925050503d806000811461164a576040519150601f19603f3d011682016040523d82523d6000602084013e61164f565b606091505b5050905080611693576040517f08c379a000000000000000000000000000000000000000000000000000000000815260040161168a906135c8565b60405180910390fd5b61169d338361222a565b81600b60008282546116af9190613474565b925050819055503373ffffffffffffffffffffffffffffffffffffffff167f0553260a2e46b0577270d8992db02d30856ca880144c72d6e9503760946aef13346040516116fc9190612f61565b60405180910390a2505b50565b611711612d4a565b600860008473ffffffffffffffffffffffffffffffffffffffff1673ffffffffffffffffffffffffffffffffffffffff1681526020019081526020016000208263ffffffff16815481106117685761176761361c565b5b906000526020600020016040518060400160405290816000820160009054906101000a900463ffffffff1663ffffffff1663ffffffff1681526020016000820160049054906101000a90047bffffffffffffffffffffffffffffffffffffffffffffffffffffffff167bffffffffffffffffffffffffffffffffffffffffffffffffffffffff167bffffffffffffffffffffffffffffffffffffffffffffffffffffffff1681525050905092915050565b600f818154811061182957600080fd5b90600052602060002090600202016000915090508060000160009054906101000a900473ffffffffffffffffffffffffffffffffffffffff16908060010154905082565b600033905090565b600073ffffffffffffffffffffffffffffffffffffffff168373ffffffffffffffffffffffffffffffffffffffff1614156118e5576040517f08c379a00000000000000000000000000000000000000000000000000000000081526004016118dc90613a11565b60405180910390fd5b600073ffffffffffffffffffffffffffffffffffffffff168273ffffffffffffffffffffffffffffffffffffffff161415611955576040517f08c379a000000000000000000000000000000000000000000000000000000000815260040161194c90613aa3565b60405180910390fd5b80600160008573ffffffffffffffffffffffffffffffffffffffff1673ffffffffffffffffffffffffffffffffffffffff16815260200190815260200160002060008473ffffffffffffffffffffffffffffffffffffffff1673ffffffffffffffffffffffffffffffffffffffff168152602001908152602001600020819055508173ffffffffffffffffffffffffffffffffffffffff168373ffffffffffffffffffffffffffffffffffffffff167f8c5be1e5ebec7d5bd14f71427d1e84f3dd0314c0f7b2291e5b200ac8c7c3b92583604051611a339190612f61565b60405180910390a3505050565b6000611a4c8484611256565b90507fffffffffffffffffffffffffffffffffffffffffffffffffffffffffffffffff8114611ac65781811015611ab8576040517f08c379a0000000000000000000000000000000000000000000000000000000008152600401611aaf90613b0f565b60405180910390fd5b611ac58484848403611875565b5b50505050565b600073ffffffffffffffffffffffffffffffffffffffff168373ffffffffffffffffffffffffffffffffffffffff161415611b3c576040517f08c379a0000000000000000000000000000000000000000000000000000000008152600401611b3390613ba1565b60405180910390fd5b600073ffffffffffffffffffffffffffffffffffffffff168273ffffffffffffffffffffffffffffffffffffffff161415611bac576040517f08c379a0000000000000000000000000000000000000000000000000000000008152600401611ba390613c33565b60405180910390fd5b611bb7838383612238565b60008060008573ffffffffffffffffffffffffffffffffffffffff1673ffffffffffffffffffffffffffffffffffffffff16815260200190815260200160002054905081811015611c3d576040517f08c379a0000000000000000000000000000000000000000000000000000000008152600401611c3490613cc5565b60405180910390fd5b8181036000808673ffffffffffffffffffffffffffffffffffffffff1673ffffffffffffffffffffffffffffffffffffffff16815260200190815260200160002081905550816000808573ffffffffffffffffffffffffffffffffffffffff1673ffffffffffffffffffffffffffffffffffffffff1681526020019081526020016000206000828254611cd09190613474565b925050819055508273ffffffffffffffffffffffffffffffffffffffff168473ffffffffffffffffffffffffffffffffffffffff167fddf252ad1be2c89b69c2b068fc378daa952ba7f163c4a11628f55a4df523b3ef84604051611d349190612f61565b60405180910390a3611d4784848461223d565b50505050565b60007f000000000000000000000000000000000000000000000000000000000000000073ffffffffffffffffffffffffffffffffffffffff163073ffffffffffffffffffffffffffffffffffffffff16148015611dc957507f000000000000000000000000000000000000000000000000000000000000000046145b15611df6577f00000000000000000000000000000000000000000000000000000000000000009050611e64565b611e617f00000000000000000000000000000000000000000000000000000000000000007f00000000000000000000000000000000000000000000000000000000000000007f000000000000000000000000000000000000000000000000000000000000000061224d565b90505b90565b6000808380549050905060005b81811015611ee6576000611e888284612287565b905084868281548110611e9e57611e9d61361c565b5b9060005260206000200160000160009054906101000a900463ffffffff1663ffffffff161115611ed057809250611ee0565b600181611edd9190613474565b91505b50611e74565b60008214611f485784600183611efc91906135e8565b81548110611f0d57611f0c61361c565b5b9060005260206000200160000160049054906101000a90047bffffffffffffffffffffffffffffffffffffffffffffffffffffffff16611f4b565b60005b7bffffffffffffffffffffffffffffffffffffffffffffffffffffffff169250505092915050565b6000611f7e83610aac565b90506000611f8b84610ca2565b905082600760008673ffffffffffffffffffffffffffffffffffffffff1673ffffffffffffffffffffffffffffffffffffffff16815260200190815260200160002060006101000a81548173ffffffffffffffffffffffffffffffffffffffff021916908373ffffffffffffffffffffffffffffffffffffffff1602179055508273ffffffffffffffffffffffffffffffffffffffff168273ffffffffffffffffffffffffffffffffffffffff168573ffffffffffffffffffffffffffffffffffffffff167f3134e8a2e6d97e929a7e54011ea5485d7d196dd5f0ba4d4ef95803e8e3fc257f60405160405180910390a46120878284836122ad565b50505050565b600063ffffffff80168211156120d8576040517f08c379a00000000000000000000000000000000000000000000000000000000081526004016120cf90613d57565b60405180910390fd5b819050919050565b600081600001549050919050565b60006121016120fb611d4d565b836124a6565b9050919050565b6000806000612119878787876124d9565b91509150612126816125e6565b8192505050949350505050565b600080600560008473ffffffffffffffffffffffffffffffffffffffff1673ffffffffffffffffffffffffffffffffffffffff1681526020019081526020016000209050612180816120e0565b915061218b816127bb565b50919050565b612227816040516024016121a59190612f61565b6040516020818303038152906040527ff5b1bba9000000000000000000000000000000000000000000000000000000007bffffffffffffffffffffffffffffffffffffffffffffffffffffffff19166020820180517bffffffffffffffffffffffffffffffffffffffffffffffffffffffff83818316178352505050506127d1565b50565b61223482826127fa565b5050565b505050565b612248838383612887565b505050565b60008383834630604051602001612268959493929190613d77565b6040516020818303038152906040528051906020012090509392505050565b600060028284186122989190613df9565b8284166122a59190613474565b905092915050565b8173ffffffffffffffffffffffffffffffffffffffff168373ffffffffffffffffffffffffffffffffffffffff16141580156122e95750600081115b156124a157600073ffffffffffffffffffffffffffffffffffffffff168373ffffffffffffffffffffffffffffffffffffffff16146123c757600080612370600860008773ffffffffffffffffffffffffffffffffffffffff1673ffffffffffffffffffffffffffffffffffffffff1681526020019081526020016000206128b2856128c8565b915091508473ffffffffffffffffffffffffffffffffffffffff167fdec2bacdd2f05b59de34da9b523dff8be42e5e38e818c82fdb0bae774387a72483836040516123bc929190613e2a565b60405180910390a250505b600073ffffffffffffffffffffffffffffffffffffffff168273ffffffffffffffffffffffffffffffffffffffff16146124a057600080612449600860008673ffffffffffffffffffffffffffffffffffffffff1673ffffffffffffffffffffffffffffffffffffffff168152602001908152602001600020612b40856128c8565b915091508373ffffffffffffffffffffffffffffffffffffffff167fdec2bacdd2f05b59de34da9b523dff8be42e5e38e818c82fdb0bae774387a7248383604051612495929190613e2a565b60405180910390a250505b5b505050565b600082826040516020016124bb929190613ecb565b60405160208183030381529060405280519060200120905092915050565b6000807f7fffffffffffffffffffffffffffffff5d576e7357a4501ddfe92f46681b20a08360001c11156125145760006003915091506125dd565b601b8560ff161415801561252c5750601c8560ff1614155b1561253e5760006004915091506125dd565b6000600187878787604051600081526020016040526040516125639493929190613f02565b6020604051602081039080840390855afa158015612585573d6000803e3d6000fd5b505050602060405103519050600073ffffffffffffffffffffffffffffffffffffffff168173ffffffffffffffffffffffffffffffffffffffff1614156125d4576000600192509250506125dd565b80600092509250505b94509492505050565b600060048111156125fa576125f9613f47565b5b81600481111561260d5761260c613f47565b5b1415612618576127b8565b6001600481111561262c5761262b613f47565b5b81600481111561263f5761263e613f47565b5b1415612680576040517f08c379a000000000000000000000000000000000000000000000000000000000815260040161267790613fc2565b60405180910390fd5b6002600481111561269457612693613f47565b5b8160048111156126a7576126a6613f47565b5b14156126e8576040517f08c379a00000000000000000000000000000000000000000000000000000000081526004016126df9061402e565b60405180910390fd5b600360048111156126fc576126fb613f47565b5b81600481111561270f5761270e613f47565b5b1415612750576040517f08c379a0000000000000000000000000000000000000000000000000000000008152600401612747906140c0565b60405180910390fd5b60048081111561276357612762613f47565b5b81600481111561277657612775613f47565b5b14156127b7576040517f08c379a00000000000000000000000000000000000000000000000000000000081526004016127ae90614152565b60405180910390fd5b5b50565b6001816000016000828254019250508190555050565b60008151905060006a636f6e736f6c652e6c6f679050602083016000808483855afa5050505050565b6128048282612b56565b61280c612cb6565b7bffffffffffffffffffffffffffffffffffffffffffffffffffffffff1661283261092e565b1115612873576040517f08c379a000000000000000000000000000000000000000000000000000000000815260040161286a906141e4565b60405180910390fd5b6128816009612b40836128c8565b50505050565b612892838383612cda565b6128ad61289e84610aac565b6128a784610aac565b836122ad565b505050565b600081836128c091906135e8565b905092915050565b6000806000858054905090506000811461293657856001826128ea91906135e8565b815481106128fb576128fa61361c565b5b9060005260206000200160000160049054906101000a90047bffffffffffffffffffffffffffffffffffffffffffffffffffffffff16612939565b60005b7bffffffffffffffffffffffffffffffffffffffffffffffffffffffff16925061296783858763ffffffff16565b91506000811180156129ba5750438660018361298391906135e8565b815481106129945761299361361c565b5b9060005260206000200160000160009054906101000a900463ffffffff1663ffffffff16145b15612a47576129c882612cdf565b866001836129d691906135e8565b815481106129e7576129e661361c565b5b9060005260206000200160000160046101000a8154817bffffffffffffffffffffffffffffffffffffffffffffffffffffffff02191690837bffffffffffffffffffffffffffffffffffffffffffffffffffffffff160217905550612b37565b856040518060400160405280612a5c4361208d565b63ffffffff168152602001612a7085612cdf565b7bffffffffffffffffffffffffffffffffffffffffffffffffffffffff168152509080600181540180825580915050600190039060005260206000200160009091909190915060008201518160000160006101000a81548163ffffffff021916908363ffffffff16021790555060208201518160000160046101000a8154817bffffffffffffffffffffffffffffffffffffffffffffffffffffffff02191690837bffffffffffffffffffffffffffffffffffffffffffffffffffffffff16021790555050505b50935093915050565b60008183612b4e9190613474565b905092915050565b600073ffffffffffffffffffffffffffffffffffffffff168273ffffffffffffffffffffffffffffffffffffffff161415612bc6576040517f08c379a0000000000000000000000000000000000000000000000000000000008152600401612bbd90614250565b60405180910390fd5b612bd260008383612238565b8060026000828254612be49190613474565b92505081905550806000808473ffffffffffffffffffffffffffffffffffffffff1673ffffffffffffffffffffffffffffffffffffffff1681526020019081526020016000206000828254612c399190613474565b925050819055508173ffffffffffffffffffffffffffffffffffffffff16600073ffffffffffffffffffffffffffffffffffffffff167fddf252ad1be2c89b69c2b068fc378daa952ba7f163c4a11628f55a4df523b3ef83604051612c9e9190612f61565b60405180910390a3612cb26000838361223d565b5050565b60007bffffffffffffffffffffffffffffffffffffffffffffffffffffffff905090565b505050565b60007bffffffffffffffffffffffffffffffffffffffffffffffffffffffff8016821115612d42576040517f08c379a0000000000000000000000000000000000000000000000000000000008152600401612d39906142e2565b60405180910390fd5b819050919050565b6040518060400160405280600063ffffffff16815260200160007bffffffffffffffffffffffffffffffffffffffffffffffffffffffff1681525090565b600081519050919050565b600082825260208201905092915050565b60005b83811015612dc2578082015181840152602081019050612da7565b83811115612dd1576000848401525b50505050565b6000601f19601f8301169050919050565b6000612df382612d88565b612dfd8185612d93565b9350612e0d818560208601612da4565b612e1681612dd7565b840191505092915050565b60006020820190508181036000830152612e3b8184612de8565b905092915050565b600080fd5b600073ffffffffffffffffffffffffffffffffffffffff82169050919050565b6000612e7382612e48565b9050919050565b612e8381612e68565b8114612e8e57600080fd5b50565b600081359050612ea081612e7a565b92915050565b6000819050919050565b612eb981612ea6565b8114612ec457600080fd5b50565b600081359050612ed681612eb0565b92915050565b60008060408385031215612ef357612ef2612e43565b5b6000612f0185828601612e91565b9250506020612f1285828601612ec7565b9150509250929050565b60008115159050919050565b612f3181612f1c565b82525050565b6000602082019050612f4c6000830184612f28565b92915050565b612f5b81612ea6565b82525050565b6000602082019050612f766000830184612f52565b92915050565b600080600060608486031215612f9557612f94612e43565b5b6000612fa386828701612e91565b9350506020612fb486828701612e91565b9250506040612fc586828701612ec7565b9150509250925092565b600060208284031215612fe557612fe4612e43565b5b6000612ff384828501612e91565b91505092915050565b600060ff82169050919050565b61301281612ffc565b82525050565b600060208201905061302d6000830184613009565b92915050565b6000819050919050565b61304681613033565b82525050565b6000602082019050613061600083018461303d565b92915050565b61307081612e68565b82525050565b600060208201905061308b6000830184613067565b92915050565b600063ffffffff82169050919050565b6130aa81613091565b82525050565b60006020820190506130c560008301846130a1565b92915050565b6000602082840312156130e1576130e0612e43565b5b60006130ef84828501612ec7565b91505092915050565b61310181612ffc565b811461310c57600080fd5b50565b60008135905061311e816130f8565b92915050565b61312d81613033565b811461313857600080fd5b50565b60008135905061314a81613124565b92915050565b60008060008060008060c0878903121561316d5761316c612e43565b5b600061317b89828a01612e91565b965050602061318c89828a01612ec7565b955050604061319d89828a01612ec7565b94505060606131ae89828a0161310f565b93505060806131bf89828a0161313b565b92505060a06131d089828a0161313b565b9150509295509295509295565b600080600080600080600060e0888a0312156131fc576131fb612e43565b5b600061320a8a828b01612e91565b975050602061321b8a828b01612e91565b965050604061322c8a828b01612ec7565b955050606061323d8a828b01612ec7565b945050608061324e8a828b0161310f565b93505060a061325f8a828b0161313b565b92505060c06132708a828b0161313b565b91505092959891949750929550565b6000806040838503121561329657613295612e43565b5b60006132a485828601612e91565b92505060206132b585828601612e91565b9150509250929050565b6132c881613091565b81146132d357600080fd5b50565b6000813590506132e5816132bf565b92915050565b6000806040838503121561330257613301612e43565b5b600061331085828601612e91565b9250506020613321858286016132d6565b9150509250929050565b61333481613091565b82525050565b60007bffffffffffffffffffffffffffffffffffffffffffffffffffffffff82169050919050565b61336b8161333a565b82525050565b604082016000820151613387600085018261332b565b50602082015161339a6020850182613362565b50505050565b60006040820190506133b56000830184613371565b92915050565b60006040820190506133d06000830185613067565b6133dd6020830184612f52565b9392505050565b7f4e487b7100000000000000000000000000000000000000000000000000000000600052602260045260246000fd5b6000600282049050600182168061342b57607f821691505b6020821081141561343f5761343e6133e4565b5b50919050565b7f4e487b7100000000000000000000000000000000000000000000000000000000600052601160045260246000fd5b600061347f82612ea6565b915061348a83612ea6565b9250827fffffffffffffffffffffffffffffffffffffffffffffffffffffffffffffffff038211156134bf576134be613445565b5b828201905092915050565b7f4552433230566f7465733a20626c6f636b206e6f7420796574206d696e656400600082015250565b6000613500601f83612d93565b915061350b826134ca565b602082019050919050565b6000602082019050818103600083015261352f816134f3565b9050919050565b600081905092915050565b50565b6000613551600083613536565b915061355c82613541565b600082019050919050565b600061357282613544565b9150819050919050565b7f4661696c656420746f207472616e7366657220746f2074726561737572790000600082015250565b60006135b2601e83612d93565b91506135bd8261357c565b602082019050919050565b600060208201905081810360008301526135e1816135a5565b9050919050565b60006135f382612ea6565b91506135fe83612ea6565b92508282101561361157613610613445565b5b828203905092915050565b7f4e487b7100000000000000000000000000000000000000000000000000000000600052603260045260246000fd5b7f45524332303a2064656372656173656420616c6c6f77616e63652062656c6f7760008201527f207a65726f000000000000000000000000000000000000000000000000000000602082015250565b60006136a7602583612d93565b91506136b28261364b565b604082019050919050565b600060208201905081810360008301526136d68161369a565b9050919050565b7f4552433230566f7465733a207369676e61747572652065787069726564000000600082015250565b6000613713601d83612d93565b915061371e826136dd565b602082019050919050565b6000602082019050818103600083015261374281613706565b9050919050565b600060808201905061375e600083018761303d565b61376b6020830186613067565b6137786040830185612f52565b6137856060830184612f52565b95945050505050565b7f4552433230566f7465733a20696e76616c6964206e6f6e636500000000000000600082015250565b60006137c4601983612d93565b91506137cf8261378e565b602082019050919050565b600060208201905081810360008301526137f3816137b7565b9050919050565b7f45524332305065726d69743a206578706972656420646561646c696e65000000600082015250565b6000613830601d83612d93565b915061383b826137fa565b602082019050919050565b6000602082019050818103600083015261385f81613823565b9050919050565b600060c08201905061387b600083018961303d565b6138886020830188613067565b6138956040830187613067565b6138a26060830186612f52565b6138af6080830185612f52565b6138bc60a0830184612f52565b979650505050505050565b7f45524332305065726d69743a20696e76616c6964207369676e61747572650000600082015250565b60006138fd601e83612d93565b9150613908826138c7565b602082019050919050565b6000602082019050818103600083015261392c816138f0565b9050919050565b7f4e6f7420656e6f75676820746f6b656e73206c65667400000000000000000000600082015250565b6000613969601683612d93565b915061397482613933565b602082019050919050565b600060208201905081810360008301526139988161395c565b9050919050565b7f45524332303a20617070726f76652066726f6d20746865207a65726f2061646460008201527f7265737300000000000000000000000000000000000000000000000000000000602082015250565b60006139fb602483612d93565b9150613a068261399f565b604082019050919050565b60006020820190508181036000830152613a2a816139ee565b9050919050565b7f45524332303a20617070726f766520746f20746865207a65726f20616464726560008201527f7373000000000000000000000000000000000000000000000000000000000000602082015250565b6000613a8d602283612d93565b9150613a9882613a31565b604082019050919050565b60006020820190508181036000830152613abc81613a80565b9050919050565b7f45524332303a20696e73756666696369656e7420616c6c6f77616e6365000000600082015250565b6000613af9601d83612d93565b9150613b0482613ac3565b602082019050919050565b60006020820190508181036000830152613b2881613aec565b9050919050565b7f45524332303a207472616e736665722066726f6d20746865207a65726f20616460008201527f6472657373000000000000000000000000000000000000000000000000000000602082015250565b6000613b8b602583612d93565b9150613b9682613b2f565b604082019050919050565b60006020820190508181036000830152613bba81613b7e565b9050919050565b7f45524332303a207472616e7366657220746f20746865207a65726f206164647260008201527f6573730000000000000000000000000000000000000000000000000000000000602082015250565b6000613c1d602383612d93565b9150613c2882613bc1565b604082019050919050565b60006020820190508181036000830152613c4c81613c10565b9050919050565b7f45524332303a207472616e7366657220616d6f756e742065786365656473206260008201527f616c616e63650000000000000000000000000000000000000000000000000000602082015250565b6000613caf602683612d93565b9150613cba82613c53565b604082019050919050565b60006020820190508181036000830152613cde81613ca2565b9050919050565b7f53616665436173743a2076616c756520646f65736e27742066697420696e203360008201527f3220626974730000000000000000000000000000000000000000000000000000602082015250565b6000613d41602683612d93565b9150613d4c82613ce5565b604082019050919050565b60006020820190508181036000830152613d7081613d34565b9050919050565b600060a082019050613d8c600083018861303d565b613d99602083018761303d565b613da6604083018661303d565b613db36060830185612f52565b613dc06080830184613067565b9695505050505050565b7f4e487b7100000000000000000000000000000000000000000000000000000000600052601260045260246000fd5b6000613e0482612ea6565b9150613e0f83612ea6565b925082613e1f57613e1e613dca565b5b828204905092915050565b6000604082019050613e3f6000830185612f52565b613e4c6020830184612f52565b9392505050565b600081905092915050565b7f1901000000000000000000000000000000000000000000000000000000000000600082015250565b6000613e94600283613e53565b9150613e9f82613e5e565b600282019050919050565b6000819050919050565b613ec5613ec082613033565b613eaa565b82525050565b6000613ed682613e87565b9150613ee28285613eb4565b602082019150613ef28284613eb4565b6020820191508190509392505050565b6000608082019050613f17600083018761303d565b613f246020830186613009565b613f31604083018561303d565b613f3e606083018461303d565b95945050505050565b7f4e487b7100000000000000000000000000000000000000000000000000000000600052602160045260246000fd5b7f45434453413a20696e76616c6964207369676e61747572650000000000000000600082015250565b6000613fac601883612d93565b9150613fb782613f76565b602082019050919050565b60006020820190508181036000830152613fdb81613f9f565b9050919050565b7f45434453413a20696e76616c6964207369676e6174757265206c656e67746800600082015250565b6000614018601f83612d93565b915061402382613fe2565b602082019050919050565b600060208201905081810360008301526140478161400b565b9050919050565b7f45434453413a20696e76616c6964207369676e6174757265202773272076616c60008201527f7565000000000000000000000000000000000000000000000000000000000000602082015250565b60006140aa602283612d93565b91506140b58261404e565b604082019050919050565b600060208201905081810360008301526140d98161409d565b9050919050565b7f45434453413a20696e76616c6964207369676e6174757265202776272076616c60008201527f7565000000000000000000000000000000000000000000000000000000000000602082015250565b600061413c602283612d93565b9150614147826140e0565b604082019050919050565b6000602082019050818103600083015261416b8161412f565b9050919050565b7f4552433230566f7465733a20746f74616c20737570706c79207269736b73206f60008201527f766572666c6f77696e6720766f74657300000000000000000000000000000000602082015250565b60006141ce603083612d93565b91506141d982614172565b604082019050919050565b600060208201905081810360008301526141fd816141c1565b9050919050565b7f45524332303a206d696e7420746f20746865207a65726f206164647265737300600082015250565b600061423a601f83612d93565b915061424582614204565b602082019050919050565b600060208201905081810360008301526142698161422d565b9050919050565b7f53616665436173743a2076616c756520646f65736e27742066697420696e203260008201527f3234206269747300000000000000000000000000000000000000000000000000602082015250565b60006142cc602783612d93565b91506142d782614270565b604082019050919050565b600060208201905081810360008301526142fb816142bf565b905091905056fea26469706673582212207712f7d45bbccc6ae0c6c8844f4bcc818b1f7c137e45d2c8c488e7b802fa14b164736f6c63430008090033",
  "linkReferences": {},
  "deployedLinkReferences": {}
}