{
  "_format": "hh-sol-artifact-1",
  "contractName": "PolyCareSVG",
  "sourceName": "contracts/PolyCareSVG.sol",
  "abi": [
    {
      "inputs": [
        {
          "internalType": "address payable",
          "name": "_treasury",
          "type": "address"
        },
        {
          "internalType": "address payable",
          "name": "_polyCareMain",
          "type": "address"
        }
      ],
      "stateMutability": "nonpayable",
      "type": "constructor"
    },
    {
      "anonymous": false,
      "inputs": [
        {
          "indexed": true,
          "internalType": "address",
          "name": "owner",
          "type": "address"
        },
        {
          "indexed": true,
          "internalType": "address",
          "name": "approved",
          "type": "address"
        },
        {
          "indexed": true,
          "internalType": "uint256",
          "name": "tokenId",
          "type": "uint256"
        }
      ],
      "name": "Approval",
      "type": "event"
    },
    {
      "anonymous": false,
      "inputs": [
        {
          "indexed": true,
          "internalType": "address",
          "name": "owner",
          "type": "address"
        },
        {
          "indexed": true,
          "internalType": "address",
          "name": "operator",
          "type": "address"
        },
        {
          "indexed": false,
          "internalType": "bool",
          "name": "approved",
          "type": "bool"
        }
      ],
      "name": "ApprovalForAll",
      "type": "event"
    },
    {
      "anonymous": false,
      "inputs": [
        {
          "indexed": true,
          "internalType": "address",
          "name": "previousOwner",
          "type": "address"
        },
        {
          "indexed": true,
          "internalType": "address",
          "name": "newOwner",
          "type": "address"
        }
      ],
      "name": "OwnershipTransferred",
      "type": "event"
    },
    {
      "anonymous": false,
      "inputs": [
        {
          "indexed": true,
          "internalType": "address",
          "name": "from",
          "type": "address"
        },
        {
          "indexed": true,
          "internalType": "address",
          "name": "to",
          "type": "address"
        },
        {
          "indexed": true,
          "internalType": "uint256",
          "name": "tokenId",
          "type": "uint256"
        }
      ],
      "name": "Transfer",
      "type": "event"
    },
    {
      "inputs": [
        {
          "internalType": "address",
          "name": "to",
          "type": "address"
        },
        {
          "internalType": "uint256",
          "name": "tokenId",
          "type": "uint256"
        }
      ],
      "name": "approve",
      "outputs": [],
      "stateMutability": "nonpayable",
      "type": "function"
    },
    {
      "inputs": [
        {
          "internalType": "uint256",
          "name": "",
          "type": "uint256"
        }
      ],
      "name": "attributes",
      "outputs": [
        {
          "internalType": "string",
          "name": "name",
          "type": "string"
        },
        {
          "internalType": "string",
          "name": "material",
          "type": "string"
        },
        {
          "internalType": "uint8",
          "name": "speed",
          "type": "uint8"
        },
        {
          "internalType": "uint8",
          "name": "attack",
          "type": "uint8"
        },
        {
          "internalType": "uint8",
          "name": "defence",
          "type": "uint8"
        }
      ],
      "stateMutability": "view",
      "type": "function"
    },
    {
      "inputs": [
        {
          "internalType": "address",
          "name": "owner",
          "type": "address"
        }
      ],
      "name": "balanceOf",
      "outputs": [
        {
          "internalType": "uint256",
          "name": "",
          "type": "uint256"
        }
      ],
      "stateMutability": "view",
      "type": "function"
    },
    {
      "inputs": [
        {
          "internalType": "uint256",
          "name": "tokenId",
          "type": "uint256"
        }
      ],
      "name": "getApproved",
      "outputs": [
        {
          "internalType": "address",
          "name": "",
          "type": "address"
        }
      ],
      "stateMutability": "view",
      "type": "function"
    },
    {
      "inputs": [
        {
          "internalType": "address",
          "name": "owner",
          "type": "address"
        },
        {
          "internalType": "address",
          "name": "operator",
          "type": "address"
        }
      ],
      "name": "isApprovedForAll",
      "outputs": [
        {
          "internalType": "bool",
          "name": "",
          "type": "bool"
        }
      ],
      "stateMutability": "view",
      "type": "function"
    },
    {
      "inputs": [
        {
          "internalType": "uint256",
          "name": "tokenId",
          "type": "uint256"
        }
      ],
      "name": "mint",
      "outputs": [],
      "stateMutability": "nonpayable",
      "type": "function"
    },
    {
      "inputs": [],
      "name": "name",
      "outputs": [
        {
          "internalType": "string",
          "name": "",
          "type": "string"
        }
      ],
      "stateMutability": "view",
      "type": "function"
    },
    {
      "inputs": [],
      "name": "owner",
      "outputs": [
        {
          "internalType": "address",
          "name": "",
          "type": "address"
        }
      ],
      "stateMutability": "view",
      "type": "function"
    },
    {
      "inputs": [
        {
          "internalType": "uint256",
          "name": "tokenId",
          "type": "uint256"
        }
      ],
      "name": "ownerOf",
      "outputs": [
        {
          "internalType": "address",
          "name": "",
          "type": "address"
        }
      ],
      "stateMutability": "view",
      "type": "function"
    },
    {
      "inputs": [],
      "name": "renounceOwnership",
      "outputs": [],
      "stateMutability": "nonpayable",
      "type": "function"
    },
    {
      "inputs": [
        {
          "internalType": "address",
          "name": "from",
          "type": "address"
        },
        {
          "internalType": "address",
          "name": "to",
          "type": "address"
        },
        {
          "internalType": "uint256",
          "name": "tokenId",
          "type": "uint256"
        }
      ],
      "name": "safeTransferFrom",
      "outputs": [],
      "stateMutability": "nonpayable",
      "type": "function"
    },
    {
      "inputs": [
        {
          "internalType": "address",
          "name": "from",
          "type": "address"
        },
        {
          "internalType": "address",
          "name": "to",
          "type": "address"
        },
        {
          "internalType": "uint256",
          "name": "tokenId",
          "type": "uint256"
        },
        {
          "internalType": "bytes",
          "name": "data",
          "type": "bytes"
        }
      ],
      "name": "safeTransferFrom",
      "outputs": [],
      "stateMutability": "nonpayable",
      "type": "function"
    },
    {
      "inputs": [
        {
          "internalType": "address",
          "name": "operator",
          "type": "address"
        },
        {
          "internalType": "bool",
          "name": "approved",
          "type": "bool"
        }
      ],
      "name": "setApprovalForAll",
      "outputs": [],
      "stateMutability": "nonpayable",
      "type": "function"
    },
    {
      "inputs": [
        {
          "internalType": "bytes4",
          "name": "interfaceId",
          "type": "bytes4"
        }
      ],
      "name": "supportsInterface",
      "outputs": [
        {
          "internalType": "bool",
          "name": "",
          "type": "bool"
        }
      ],
      "stateMutability": "view",
      "type": "function"
    },
    {
      "inputs": [],
      "name": "symbol",
      "outputs": [
        {
          "internalType": "string",
          "name": "",
          "type": "string"
        }
      ],
      "stateMutability": "view",
      "type": "function"
    },
    {
      "inputs": [
        {
          "internalType": "uint256",
          "name": "index",
          "type": "uint256"
        }
      ],
      "name": "tokenByIndex",
      "outputs": [
        {
          "internalType": "uint256",
          "name": "",
          "type": "uint256"
        }
      ],
      "stateMutability": "view",
      "type": "function"
    },
    {
      "inputs": [
        {
          "internalType": "address",
          "name": "owner",
          "type": "address"
        },
        {
          "internalType": "uint256",
          "name": "index",
          "type": "uint256"
        }
      ],
      "name": "tokenOfOwnerByIndex",
      "outputs": [
        {
          "internalType": "uint256",
          "name": "",
          "type": "uint256"
        }
      ],
      "stateMutability": "view",
      "type": "function"
    },
    {
      "inputs": [
        {
          "internalType": "uint256",
          "name": "tokenId",
          "type": "uint256"
        }
      ],
      "name": "tokenURI",
      "outputs": [
        {
          "internalType": "string",
          "name": "",
          "type": "string"
        }
      ],
      "stateMutability": "view",
      "type": "function"
    },
    {
      "inputs": [],
      "name": "totalSupply",
      "outputs": [
        {
          "internalType": "uint256",
          "name": "",
          "type": "uint256"
        }
      ],
      "stateMutability": "view",
      "type": "function"
    },
    {
      "inputs": [
        {
          "internalType": "address",
          "name": "from",
          "type": "address"
        },
        {
          "internalType": "address",
          "name": "to",
          "type": "address"
        },
        {
          "internalType": "uint256",
          "name": "tokenId",
          "type": "uint256"
        }
      ],
      "name": "transferFrom",
      "outputs": [],
      "stateMutability": "nonpayable",
      "type": "function"
    },
    {
      "inputs": [
        {
          "internalType": "address",
          "name": "newOwner",
          "type": "address"
        }
      ],
      "name": "transferOwnership",
      "outputs": [],
      "stateMutability": "nonpayable",
      "type": "function"
    },
    {
      "inputs": [
        {
          "internalType": "address",
          "name": "",
          "type": "address"
        },
        {
          "internalType": "uint256",
          "name": "",
          "type": "uint256"
        }
      ],
      "name": "userMinted",
      "outputs": [
        {
          "internalType": "bool",
          "name": "",
          "type": "bool"
        }
      ],
      "stateMutability": "view",
      "type": "function"
    }
  ],
  "bytecode": "0x60806040523480156200001157600080fd5b5060405162004b3b38038062004b3b833981810160405281019062000037919062000369565b6040518060400160405280600881526020017f506f6c79636172650000000000000000000000000000000000000000000000008152506040518060400160405280600581526020017f504f4c59430000000000000000000000000000000000000000000000000000008152508160009080519060200190620000bb9291906200024f565b508060019080519060200190620000d49291906200024f565b505050620000f7620000eb6200018160201b60201c565b6200018960201b60201c565b81600d60006101000a81548173ffffffffffffffffffffffffffffffffffffffff021916908373ffffffffffffffffffffffffffffffffffffffff16021790555080600e60006101000a81548173ffffffffffffffffffffffffffffffffffffffff021916908373ffffffffffffffffffffffffffffffffffffffff160217905550505062000415565b600033905090565b6000600a60009054906101000a900473ffffffffffffffffffffffffffffffffffffffff16905081600a60006101000a81548173ffffffffffffffffffffffffffffffffffffffff021916908373ffffffffffffffffffffffffffffffffffffffff1602179055508173ffffffffffffffffffffffffffffffffffffffff168173ffffffffffffffffffffffffffffffffffffffff167f8be0079c531659141344cd1fd0a4f28419497f9722a3daafe3b4186f6b6457e060405160405180910390a35050565b8280546200025d90620003df565b90600052602060002090601f016020900481019282620002815760008555620002cd565b82601f106200029c57805160ff1916838001178555620002cd565b82800160010185558215620002cd579182015b82811115620002cc578251825591602001919060010190620002af565b5b509050620002dc9190620002e0565b5090565b5b80821115620002fb576000816000905550600101620002e1565b5090565b600080fd5b600073ffffffffffffffffffffffffffffffffffffffff82169050919050565b6000620003318262000304565b9050919050565b620003438162000324565b81146200034f57600080fd5b50565b600081519050620003638162000338565b92915050565b60008060408385031215620003835762000382620002ff565b5b6000620003938582860162000352565b9250506020620003a68582860162000352565b9150509250929050565b7f4e487b7100000000000000000000000000000000000000000000000000000000600052602260045260246000fd5b60006002820490506001821680620003f857607f821691505b602082108114156200040f576200040e620003b0565b5b50919050565b61471680620004256000396000f3fe608060405234801561001057600080fd5b50600436106101825760003560e01c806370a08231116100d8578063a22cb4651161008c578063d05dcc6a11610066578063d05dcc6a14610431578063e985e9c514610465578063f2fde38b1461049557610182565b8063a22cb465146103c9578063b88d4fde146103e5578063c87b56dd1461040157610182565b80638da5cb5b116100bd5780638da5cb5b1461037157806395d89b411461038f578063a0712d68146103ad57610182565b806370a0823114610337578063715018a61461036757610182565b806323b872dd1161013a5780634f6ccce7116101145780634f6ccce7146102a757806353f23a27146102d75780636352211e1461030757610182565b806323b872dd1461023f5780632f745c591461025b57806342842e0e1461028b57610182565b8063081812fc1161016b578063081812fc146101d5578063095ea7b31461020557806318160ddd1461022157610182565b806301ffc9a71461018757806306fdde03146101b7575b600080fd5b6101a1600480360381019061019c91906127d6565b6104b1565b6040516101ae919061281e565b60405180910390f35b6101bf6104c3565b6040516101cc91906128d2565b60405180910390f35b6101ef60048036038101906101ea919061292a565b610555565b6040516101fc9190612998565b60405180910390f35b61021f600480360381019061021a91906129df565b61059b565b005b6102296106b3565b6040516102369190612a2e565b60405180910390f35b61025960048036038101906102549190612a49565b6106c0565b005b610275600480360381019061027091906129df565b610720565b6040516102829190612a2e565b60405180910390f35b6102a560048036038101906102a09190612a49565b6107c5565b005b6102c160048036038101906102bc919061292a565b6107e5565b6040516102ce9190612a2e565b60405180910390f35b6102f160048036038101906102ec91906129df565b610856565b6040516102fe919061281e565b60405180910390f35b610321600480360381019061031c919061292a565b610885565b60405161032e9190612998565b60405180910390f35b610351600480360381019061034c9190612a9c565b610937565b60405161035e9190612a2e565b60405180910390f35b61036f6109ef565b005b610379610a03565b6040516103869190612998565b60405180910390f35b610397610a2d565b6040516103a491906128d2565b60405180910390f35b6103c760048036038101906103c2919061292a565b610abf565b005b6103e360048036038101906103de9190612af5565b610dfd565b005b6103ff60048036038101906103fa9190612c6a565b610e13565b005b61041b6004803603810190610416919061292a565b610e75565b60405161042891906128d2565b60405180910390f35b61044b6004803603810190610446919061292a565b610f90565b60405161045c959493929190612d09565b60405180910390f35b61047f600480360381019061047a9190612d6a565b6110fd565b60405161048c919061281e565b60405180910390f35b6104af60048036038101906104aa9190612a9c565b611191565b005b60006104bc82611215565b9050919050565b6060600080546104d290612dd9565b80601f01602080910402602001604051908101604052809291908181526020018280546104fe90612dd9565b801561054b5780601f106105205761010080835404028352916020019161054b565b820191906000526020600020905b81548152906001019060200180831161052e57829003601f168201915b5050505050905090565b60006105608261128f565b6004600083815260200190815260200160002060009054906101000a900473ffffffffffffffffffffffffffffffffffffffff169050919050565b60006105a682610885565b90508073ffffffffffffffffffffffffffffffffffffffff168373ffffffffffffffffffffffffffffffffffffffff161415610617576040517f08c379a000000000000000000000000000000000000000000000000000000000815260040161060e90612e7d565b60405180910390fd5b8073ffffffffffffffffffffffffffffffffffffffff166106366112da565b73ffffffffffffffffffffffffffffffffffffffff16148061066557506106648161065f6112da565b6110fd565b5b6106a4576040517f08c379a000000000000000000000000000000000000000000000000000000000815260040161069b90612f0f565b60405180910390fd5b6106ae83836112e2565b505050565b6000600880549050905090565b6106d16106cb6112da565b8261139b565b610710576040517f08c379a000000000000000000000000000000000000000000000000000000000815260040161070790612fa1565b60405180910390fd5b61071b838383611430565b505050565b600061072b83610937565b821061076c576040517f08c379a000000000000000000000000000000000000000000000000000000000815260040161076390613033565b60405180910390fd5b600660008473ffffffffffffffffffffffffffffffffffffffff1673ffffffffffffffffffffffffffffffffffffffff168152602001908152602001600020600083815260200190815260200160002054905092915050565b6107e083838360405180602001604052806000815250610e13565b505050565b60006107ef6106b3565b8210610830576040517f08c379a0000000000000000000000000000000000000000000000000000000008152600401610827906130c5565b60405180910390fd5b60088281548110610844576108436130e5565b5b90600052602060002001549050919050565b600c6020528160005260406000206020528060005260406000206000915091509054906101000a900460ff1681565b6000806002600084815260200190815260200160002060009054906101000a900473ffffffffffffffffffffffffffffffffffffffff169050600073ffffffffffffffffffffffffffffffffffffffff168173ffffffffffffffffffffffffffffffffffffffff16141561092e576040517f08c379a000000000000000000000000000000000000000000000000000000000815260040161092590613160565b60405180910390fd5b80915050919050565b60008073ffffffffffffffffffffffffffffffffffffffff168273ffffffffffffffffffffffffffffffffffffffff1614156109a8576040517f08c379a000000000000000000000000000000000000000000000000000000000815260040161099f906131f2565b60405180910390fd5b600360008373ffffffffffffffffffffffffffffffffffffffff1673ffffffffffffffffffffffffffffffffffffffff168152602001908152602001600020549050919050565b6109f7611697565b610a016000611715565b565b6000600a60009054906101000a900473ffffffffffffffffffffffffffffffffffffffff16905090565b606060018054610a3c90612dd9565b80601f0160208091040260200160405190810160405280929190818152602001828054610a6890612dd9565b8015610ab55780601f10610a8a57610100808354040283529160200191610ab5565b820191906000526020600020905b815481529060010190602001808311610a9857829003601f168201915b5050505050905090565b60001515600c60003373ffffffffffffffffffffffffffffffffffffffff1673ffffffffffffffffffffffffffffffffffffffff168152602001908152602001600020600083815260200190815260200160002060009054906101000a900460ff16151514610b63576040517f08c379a0000000000000000000000000000000000000000000000000000000008152600401610b5a9061325e565b60405180910390fd5b60011515600e60009054906101000a900473ffffffffffffffffffffffffffffffffffffffff1673ffffffffffffffffffffffffffffffffffffffff16632bc3d7aa336040518263ffffffff1660e01b8152600401610bc29190612998565b60206040518083038186803b158015610bda57600080fd5b505afa158015610bee573d6000803e3d6000fd5b505050506040513d601f19601f82011682018060405250810190610c129190613293565b151514610c54576040517f08c379a0000000000000000000000000000000000000000000000000000000008152600401610c4b9061330c565b60405180910390fd5b610c5e33826117db565b6040518060a001604052806040518060400160405280601181526020017f5265642043726f737320436861726974790000000000000000000000000000008152508152602001604051806060016040528060278152602001613fdf602791398152602001600160ff168152602001600260ff168152602001600360ff16815250600b60008381526020019081526020016000206000820151816000019080519060200190610d0d9291906126c7565b506020820151816001019080519060200190610d2a9291906126c7565b5060408201518160020160006101000a81548160ff021916908360ff16021790555060608201518160020160016101000a81548160ff021916908360ff16021790555060808201518160020160026101000a81548160ff021916908360ff1602179055509050506001600c60003373ffffffffffffffffffffffffffffffffffffffff1673ffffffffffffffffffffffffffffffffffffffff168152602001908152602001600020600083815260200190815260200160002060006101000a81548160ff02191690831515021790555050565b610e0f610e086112da565b83836117f9565b5050565b610e24610e1e6112da565b8361139b565b610e63576040517f08c379a0000000000000000000000000000000000000000000000000000000008152600401610e5a90612fa1565b60405180910390fd5b610e6f84848484611966565b50505050565b60606000610f66600b6000858152602001908152602001600020600001610e9a6119c2565b610ec9600b600088815260200190815260200160002060020160009054906101000a900460ff1660ff166119ea565b610ef8600b600089815260200190815260200160002060020160019054906101000a900460ff1660ff166119ea565b610f27600b60008a815260200190815260200160002060020160029054906101000a900460ff1660ff166119ea565b600b60008a8152602001908152602001600020600101604051602001610f529695949392919061378c565b604051602081830303815290604052611b73565b905080604051602001610f7991906138bf565b604051602081830303815290604052915050919050565b600b602052806000526040600020600091509050806000018054610fb390612dd9565b80601f0160208091040260200160405190810160405280929190818152602001828054610fdf90612dd9565b801561102c5780601f106110015761010080835404028352916020019161102c565b820191906000526020600020905b81548152906001019060200180831161100f57829003601f168201915b50505050509080600101805461104190612dd9565b80601f016020809104026020016040519081016040528092919081815260200182805461106d90612dd9565b80156110ba5780601f1061108f576101008083540402835291602001916110ba565b820191906000526020600020905b81548152906001019060200180831161109d57829003601f168201915b5050505050908060020160009054906101000a900460ff16908060020160019054906101000a900460ff16908060020160029054906101000a900460ff16905085565b6000600560008473ffffffffffffffffffffffffffffffffffffffff1673ffffffffffffffffffffffffffffffffffffffff16815260200190815260200160002060008373ffffffffffffffffffffffffffffffffffffffff1673ffffffffffffffffffffffffffffffffffffffff16815260200190815260200160002060009054906101000a900460ff16905092915050565b611199611697565b600073ffffffffffffffffffffffffffffffffffffffff168173ffffffffffffffffffffffffffffffffffffffff161415611209576040517f08c379a000000000000000000000000000000000000000000000000000000000815260040161120090613953565b60405180910390fd5b61121281611715565b50565b60007f780e9d63000000000000000000000000000000000000000000000000000000007bffffffffffffffffffffffffffffffffffffffffffffffffffffffff1916827bffffffffffffffffffffffffffffffffffffffffffffffffffffffff19161480611288575061128782611cec565b5b9050919050565b61129881611dce565b6112d7576040517f08c379a00000000000000000000000000000000000000000000000000000000081526004016112ce90613160565b60405180910390fd5b50565b600033905090565b816004600083815260200190815260200160002060006101000a81548173ffffffffffffffffffffffffffffffffffffffff021916908373ffffffffffffffffffffffffffffffffffffffff160217905550808273ffffffffffffffffffffffffffffffffffffffff1661135583610885565b73ffffffffffffffffffffffffffffffffffffffff167f8c5be1e5ebec7d5bd14f71427d1e84f3dd0314c0f7b2291e5b200ac8c7c3b92560405160405180910390a45050565b6000806113a783610885565b90508073ffffffffffffffffffffffffffffffffffffffff168473ffffffffffffffffffffffffffffffffffffffff1614806113e957506113e881856110fd565b5b8061142757508373ffffffffffffffffffffffffffffffffffffffff1661140f84610555565b73ffffffffffffffffffffffffffffffffffffffff16145b91505092915050565b8273ffffffffffffffffffffffffffffffffffffffff1661145082610885565b73ffffffffffffffffffffffffffffffffffffffff16146114a6576040517f08c379a000000000000000000000000000000000000000000000000000000000815260040161149d906139e5565b60405180910390fd5b600073ffffffffffffffffffffffffffffffffffffffff168273ffffffffffffffffffffffffffffffffffffffff161415611516576040517f08c379a000000000000000000000000000000000000000000000000000000000815260040161150d90613a77565b60405180910390fd5b611521838383611e3a565b61152c6000826112e2565b6001600360008573ffffffffffffffffffffffffffffffffffffffff1673ffffffffffffffffffffffffffffffffffffffff168152602001908152602001600020600082825461157c9190613ac6565b925050819055506001600360008473ffffffffffffffffffffffffffffffffffffffff1673ffffffffffffffffffffffffffffffffffffffff16815260200190815260200160002060008282546115d39190613afa565b92505081905550816002600083815260200190815260200160002060006101000a81548173ffffffffffffffffffffffffffffffffffffffff021916908373ffffffffffffffffffffffffffffffffffffffff160217905550808273ffffffffffffffffffffffffffffffffffffffff168473ffffffffffffffffffffffffffffffffffffffff167fddf252ad1be2c89b69c2b068fc378daa952ba7f163c4a11628f55a4df523b3ef60405160405180910390a4611692838383611e4a565b505050565b61169f6112da565b73ffffffffffffffffffffffffffffffffffffffff166116bd610a03565b73ffffffffffffffffffffffffffffffffffffffff1614611713576040517f08c379a000000000000000000000000000000000000000000000000000000000815260040161170a90613b9c565b60405180910390fd5b565b6000600a60009054906101000a900473ffffffffffffffffffffffffffffffffffffffff16905081600a60006101000a81548173ffffffffffffffffffffffffffffffffffffffff021916908373ffffffffffffffffffffffffffffffffffffffff1602179055508173ffffffffffffffffffffffffffffffffffffffff168173ffffffffffffffffffffffffffffffffffffffff167f8be0079c531659141344cd1fd0a4f28419497f9722a3daafe3b4186f6b6457e060405160405180910390a35050565b6117f5828260405180602001604052806000815250611e4f565b5050565b8173ffffffffffffffffffffffffffffffffffffffff168373ffffffffffffffffffffffffffffffffffffffff161415611868576040517f08c379a000000000000000000000000000000000000000000000000000000000815260040161185f90613c08565b60405180910390fd5b80600560008573ffffffffffffffffffffffffffffffffffffffff1673ffffffffffffffffffffffffffffffffffffffff16815260200190815260200160002060008473ffffffffffffffffffffffffffffffffffffffff1673ffffffffffffffffffffffffffffffffffffffff16815260200190815260200160002060006101000a81548160ff0219169083151502179055508173ffffffffffffffffffffffffffffffffffffffff168373ffffffffffffffffffffffffffffffffffffffff167f17307eab39ab6107e8899845ad3d59bd9653f200f220920489ca2b5937696c3183604051611959919061281e565b60405180910390a3505050565b611971848484611430565b61197d84848484611eaa565b6119bc576040517f08c379a00000000000000000000000000000000000000000000000000000000081526004016119b390613c9a565b60405180910390fd5b50505050565b606080604051806106c0016040528061069b815260200161400661069b913990508091505090565b60606000821415611a32576040518060400160405280600181526020017f30000000000000000000000000000000000000000000000000000000000000008152509050611b6e565b600082905060005b60008214611a64578080611a4d90613cba565b915050600a82611a5d9190613d32565b9150611a3a565b60008167ffffffffffffffff811115611a8057611a7f612b3f565b5b6040519080825280601f01601f191660200182016040528015611ab25781602001600182028036833780820191505090505b50905060008290505b60008614611b6657600181611ad09190613ac6565b90506000600a8088611ae29190613d32565b611aec9190613d63565b87611af79190613ac6565b6030611b039190613dbd565b905060008160f81b905080848481518110611b2157611b206130e5565b5b60200101907effffffffffffffffffffffffffffffffffffffffffffffffffffffffffffff1916908160001a905350600a88611b5d9190613d32565b97505050611abb565b819450505050505b919050565b6060600082511415611b9657604051806020016040528060008152509050611ce7565b60006040518060600160405280604081526020016146a16040913990506000600360028551611bc59190613afa565b611bcf9190613d32565b6004611bdb9190613d63565b90506000602082611bec9190613afa565b67ffffffffffffffff811115611c0557611c04612b3f565b5b6040519080825280601f01601f191660200182016040528015611c375781602001600182028036833780820191505090505b509050818152600183018586518101602084015b81831015611ca6576003830192508251603f8160121c168501518253600182019150603f81600c1c168501518253600182019150603f8160061c168501518253600182019150603f8116850151825360018201915050611c4b565b600389510660018114611cc05760028114611cd057611cdb565b613d3d60f01b6002830352611cdb565b603d60f81b60018303525b50505050508093505050505b919050565b60007f80ac58cd000000000000000000000000000000000000000000000000000000007bffffffffffffffffffffffffffffffffffffffffffffffffffffffff1916827bffffffffffffffffffffffffffffffffffffffffffffffffffffffff19161480611db757507f5b5e139f000000000000000000000000000000000000000000000000000000007bffffffffffffffffffffffffffffffffffffffffffffffffffffffff1916827bffffffffffffffffffffffffffffffffffffffffffffffffffffffff1916145b80611dc75750611dc682612041565b5b9050919050565b60008073ffffffffffffffffffffffffffffffffffffffff166002600084815260200190815260200160002060009054906101000a900473ffffffffffffffffffffffffffffffffffffffff1673ffffffffffffffffffffffffffffffffffffffff1614159050919050565b611e458383836120ab565b505050565b505050565b611e5983836121bf565b611e666000848484611eaa565b611ea5576040517f08c379a0000000000000000000000000000000000000000000000000000000008152600401611e9c90613c9a565b60405180910390fd5b505050565b6000611ecb8473ffffffffffffffffffffffffffffffffffffffff16612399565b15612034578373ffffffffffffffffffffffffffffffffffffffff1663150b7a02611ef46112da565b8786866040518563ffffffff1660e01b8152600401611f169493929190613e49565b602060405180830381600087803b158015611f3057600080fd5b505af1925050508015611f6157506040513d601f19601f82011682018060405250810190611f5e9190613eaa565b60015b611fe4573d8060008114611f91576040519150601f19603f3d011682016040523d82523d6000602084013e611f96565b606091505b50600081511415611fdc576040517f08c379a0000000000000000000000000000000000000000000000000000000008152600401611fd390613c9a565b60405180910390fd5b805181602001fd5b63150b7a0260e01b7bffffffffffffffffffffffffffffffffffffffffffffffffffffffff1916817bffffffffffffffffffffffffffffffffffffffffffffffffffffffff191614915050612039565b600190505b949350505050565b60007f01ffc9a7000000000000000000000000000000000000000000000000000000007bffffffffffffffffffffffffffffffffffffffffffffffffffffffff1916827bffffffffffffffffffffffffffffffffffffffffffffffffffffffff1916149050919050565b6120b68383836123bc565b600073ffffffffffffffffffffffffffffffffffffffff168373ffffffffffffffffffffffffffffffffffffffff1614156120f9576120f4816123c1565b612138565b8173ffffffffffffffffffffffffffffffffffffffff168373ffffffffffffffffffffffffffffffffffffffff161461213757612136838261240a565b5b5b600073ffffffffffffffffffffffffffffffffffffffff168273ffffffffffffffffffffffffffffffffffffffff16141561217b5761217681612577565b6121ba565b8273ffffffffffffffffffffffffffffffffffffffff168273ffffffffffffffffffffffffffffffffffffffff16146121b9576121b88282612648565b5b5b505050565b600073ffffffffffffffffffffffffffffffffffffffff168273ffffffffffffffffffffffffffffffffffffffff16141561222f576040517f08c379a000000000000000000000000000000000000000000000000000000000815260040161222690613f23565b60405180910390fd5b61223881611dce565b15612278576040517f08c379a000000000000000000000000000000000000000000000000000000000815260040161226f90613f8f565b60405180910390fd5b61228460008383611e3a565b6001600360008473ffffffffffffffffffffffffffffffffffffffff1673ffffffffffffffffffffffffffffffffffffffff16815260200190815260200160002060008282546122d49190613afa565b92505081905550816002600083815260200190815260200160002060006101000a81548173ffffffffffffffffffffffffffffffffffffffff021916908373ffffffffffffffffffffffffffffffffffffffff160217905550808273ffffffffffffffffffffffffffffffffffffffff16600073ffffffffffffffffffffffffffffffffffffffff167fddf252ad1be2c89b69c2b068fc378daa952ba7f163c4a11628f55a4df523b3ef60405160405180910390a461239560008383611e4a565b5050565b6000808273ffffffffffffffffffffffffffffffffffffffff163b119050919050565b505050565b6008805490506009600083815260200190815260200160002081905550600881908060018154018082558091505060019003906000526020600020016000909190919091505550565b6000600161241784610937565b6124219190613ac6565b9050600060076000848152602001908152602001600020549050818114612506576000600660008673ffffffffffffffffffffffffffffffffffffffff1673ffffffffffffffffffffffffffffffffffffffff168152602001908152602001600020600084815260200190815260200160002054905080600660008773ffffffffffffffffffffffffffffffffffffffff1673ffffffffffffffffffffffffffffffffffffffff168152602001908152602001600020600084815260200190815260200160002081905550816007600083815260200190815260200160002081905550505b6007600084815260200190815260200160002060009055600660008573ffffffffffffffffffffffffffffffffffffffff1673ffffffffffffffffffffffffffffffffffffffff16815260200190815260200160002060008381526020019081526020016000206000905550505050565b6000600160088054905061258b9190613ac6565b90506000600960008481526020019081526020016000205490506000600883815481106125bb576125ba6130e5565b5b9060005260206000200154905080600883815481106125dd576125dc6130e5565b5b90600052602060002001819055508160096000838152602001908152602001600020819055506009600085815260200190815260200160002060009055600880548061262c5761262b613faf565b5b6001900381819060005260206000200160009055905550505050565b600061265383610937565b905081600660008573ffffffffffffffffffffffffffffffffffffffff1673ffffffffffffffffffffffffffffffffffffffff168152602001908152602001600020600083815260200190815260200160002081905550806007600084815260200190815260200160002081905550505050565b8280546126d390612dd9565b90600052602060002090601f0160209004810192826126f5576000855561273c565b82601f1061270e57805160ff191683800117855561273c565b8280016001018555821561273c579182015b8281111561273b578251825591602001919060010190612720565b5b509050612749919061274d565b5090565b5b8082111561276657600081600090555060010161274e565b5090565b6000604051905090565b600080fd5b600080fd5b60007fffffffff0000000000000000000000000000000000000000000000000000000082169050919050565b6127b38161277e565b81146127be57600080fd5b50565b6000813590506127d0816127aa565b92915050565b6000602082840312156127ec576127eb612774565b5b60006127fa848285016127c1565b91505092915050565b60008115159050919050565b61281881612803565b82525050565b6000602082019050612833600083018461280f565b92915050565b600081519050919050565b600082825260208201905092915050565b60005b83811015612873578082015181840152602081019050612858565b83811115612882576000848401525b50505050565b6000601f19601f8301169050919050565b60006128a482612839565b6128ae8185612844565b93506128be818560208601612855565b6128c781612888565b840191505092915050565b600060208201905081810360008301526128ec8184612899565b905092915050565b6000819050919050565b612907816128f4565b811461291257600080fd5b50565b600081359050612924816128fe565b92915050565b6000602082840312156129405761293f612774565b5b600061294e84828501612915565b91505092915050565b600073ffffffffffffffffffffffffffffffffffffffff82169050919050565b600061298282612957565b9050919050565b61299281612977565b82525050565b60006020820190506129ad6000830184612989565b92915050565b6129bc81612977565b81146129c757600080fd5b50565b6000813590506129d9816129b3565b92915050565b600080604083850312156129f6576129f5612774565b5b6000612a04858286016129ca565b9250506020612a1585828601612915565b9150509250929050565b612a28816128f4565b82525050565b6000602082019050612a436000830184612a1f565b92915050565b600080600060608486031215612a6257612a61612774565b5b6000612a70868287016129ca565b9350506020612a81868287016129ca565b9250506040612a9286828701612915565b9150509250925092565b600060208284031215612ab257612ab1612774565b5b6000612ac0848285016129ca565b91505092915050565b612ad281612803565b8114612add57600080fd5b50565b600081359050612aef81612ac9565b92915050565b60008060408385031215612b0c57612b0b612774565b5b6000612b1a858286016129ca565b9250506020612b2b85828601612ae0565b9150509250929050565b600080fd5b600080fd5b7f4e487b7100000000000000000000000000000000000000000000000000000000600052604160045260246000fd5b612b7782612888565b810181811067ffffffffffffffff82111715612b9657612b95612b3f565b5b80604052505050565b6000612ba961276a565b9050612bb58282612b6e565b919050565b600067ffffffffffffffff821115612bd557612bd4612b3f565b5b612bde82612888565b9050602081019050919050565b82818337600083830152505050565b6000612c0d612c0884612bba565b612b9f565b905082815260208101848484011115612c2957612c28612b3a565b5b612c34848285612beb565b509392505050565b600082601f830112612c5157612c50612b35565b5b8135612c61848260208601612bfa565b91505092915050565b60008060008060808587031215612c8457612c83612774565b5b6000612c92878288016129ca565b9450506020612ca3878288016129ca565b9350506040612cb487828801612915565b925050606085013567ffffffffffffffff811115612cd557612cd4612779565b5b612ce187828801612c3c565b91505092959194509250565b600060ff82169050919050565b612d0381612ced565b82525050565b600060a0820190508181036000830152612d238188612899565b90508181036020830152612d378187612899565b9050612d466040830186612cfa565b612d536060830185612cfa565b612d606080830184612cfa565b9695505050505050565b60008060408385031215612d8157612d80612774565b5b6000612d8f858286016129ca565b9250506020612da0858286016129ca565b9150509250929050565b7f4e487b7100000000000000000000000000000000000000000000000000000000600052602260045260246000fd5b60006002820490506001821680612df157607f821691505b60208210811415612e0557612e04612daa565b5b50919050565b7f4552433732313a20617070726f76616c20746f2063757272656e74206f776e6560008201527f7200000000000000000000000000000000000000000000000000000000000000602082015250565b6000612e67602183612844565b9150612e7282612e0b565b604082019050919050565b60006020820190508181036000830152612e9681612e5a565b9050919050565b7f4552433732313a20617070726f76652063616c6c6572206973206e6f7420746f60008201527f6b656e206f776e6572206e6f7220617070726f76656420666f7220616c6c0000602082015250565b6000612ef9603e83612844565b9150612f0482612e9d565b604082019050919050565b60006020820190508181036000830152612f2881612eec565b9050919050565b7f4552433732313a2063616c6c6572206973206e6f7420746f6b656e206f776e6560008201527f72206e6f7220617070726f766564000000000000000000000000000000000000602082015250565b6000612f8b602e83612844565b9150612f9682612f2f565b604082019050919050565b60006020820190508181036000830152612fba81612f7e565b9050919050565b7f455243373231456e756d657261626c653a206f776e657220696e646578206f7560008201527f74206f6620626f756e6473000000000000000000000000000000000000000000602082015250565b600061301d602b83612844565b915061302882612fc1565b604082019050919050565b6000602082019050818103600083015261304c81613010565b9050919050565b7f455243373231456e756d657261626c653a20676c6f62616c20696e646578206f60008201527f7574206f6620626f756e64730000000000000000000000000000000000000000602082015250565b60006130af602c83612844565b91506130ba82613053565b604082019050919050565b600060208201905081810360008301526130de816130a2565b9050919050565b7f4e487b7100000000000000000000000000000000000000000000000000000000600052603260045260246000fd5b7f4552433732313a20696e76616c696420746f6b656e2049440000000000000000600082015250565b600061314a601883612844565b915061315582613114565b602082019050919050565b600060208201905081810360008301526131798161313d565b9050919050565b7f4552433732313a2061646472657373207a65726f206973206e6f74206120766160008201527f6c6964206f776e65720000000000000000000000000000000000000000000000602082015250565b60006131dc602983612844565b91506131e782613180565b604082019050919050565b6000602082019050818103600083015261320b816131cf565b9050919050565b7f5573657220616c7265616479206d696e7465642074686973204e465400000000600082015250565b6000613248601c83612844565b915061325382613212565b602082019050919050565b600060208201905081810360008301526132778161323b565b9050919050565b60008151905061328d81612ac9565b92915050565b6000602082840312156132a9576132a8612774565b5b60006132b78482850161327e565b91505092915050565b7f55736572206973206e6f74206c6973746564206173206120646f6e6f72000000600082015250565b60006132f6601d83612844565b9150613301826132c0565b602082019050919050565b60006020820190508181036000830152613325816132e9565b9050919050565b600081905092915050565b7f7b226e616d65223a202200000000000000000000000000000000000000000000600082015250565b600061336d600a8361332c565b915061337882613337565b600a82019050919050565b60008190508160005260206000209050919050565b600081546133a581612dd9565b6133af818661332c565b945060018216600081146133ca57600181146133db5761340e565b60ff1983168652818601935061340e565b6133e485613383565b60005b83811015613406578154818901526001820191506020810190506133e7565b838801955050505b50505092915050565b7f222c000000000000000000000000000000000000000000000000000000000000600082015250565b600061344d60028361332c565b915061345882613417565b600282019050919050565b7f22696d6167655f64617461223a20220000000000000000000000000000000000600082015250565b6000613499600f8361332c565b91506134a482613463565b600f82019050919050565b60006134ba82612839565b6134c4818561332c565b93506134d4818560208601612855565b80840191505092915050565b7f2261747472696275746573223a205b7b2274726169745f74797065223a20225360008201527f70656564222c202276616c7565223a2000000000000000000000000000000000602082015250565b600061353c60308361332c565b9150613547826134e0565b603082019050919050565b7f7d2c000000000000000000000000000000000000000000000000000000000000600082015250565b600061358860028361332c565b915061359382613552565b600282019050919050565b7f7b2274726169745f74797065223a202241747461636b222c202276616c75652260008201527f3a20000000000000000000000000000000000000000000000000000000000000602082015250565b60006135fa60228361332c565b91506136058261359e565b602282019050919050565b7f7b2274726169745f74797065223a2022446566656e6365222c202276616c756560008201527f223a200000000000000000000000000000000000000000000000000000000000602082015250565b600061366c60238361332c565b915061367782613610565b602382019050919050565b7f7b2274726169745f74797065223a20224d6174657269616c222c202276616c7560008201527f65223a2022000000000000000000000000000000000000000000000000000000602082015250565b60006136de60258361332c565b91506136e982613682565b602582019050919050565b7f227d000000000000000000000000000000000000000000000000000000000000600082015250565b600061372a60028361332c565b9150613735826136f4565b600282019050919050565b7f5d7d000000000000000000000000000000000000000000000000000000000000600082015250565b600061377660028361332c565b915061378182613740565b600282019050919050565b600061379782613360565b91506137a38289613398565b91506137ae82613440565b91506137b98261348c565b91506137c582886134af565b91506137d082613440565b91506137db8261352f565b91506137e782876134af565b91506137f28261357b565b91506137fd826135ed565b915061380982866134af565b91506138148261357b565b915061381f8261365f565b915061382b82856134af565b91506138368261357b565b9150613841826136d1565b915061384d8284613398565b91506138588261371d565b915061386382613769565b9150819050979650505050505050565b7f646174613a6170706c69636174696f6e2f6a736f6e3b6261736536342c000000600082015250565b60006138a9601d8361332c565b91506138b482613873565b601d82019050919050565b60006138ca8261389c565b91506138d682846134af565b915081905092915050565b7f4f776e61626c653a206e6577206f776e657220697320746865207a65726f206160008201527f6464726573730000000000000000000000000000000000000000000000000000602082015250565b600061393d602683612844565b9150613948826138e1565b604082019050919050565b6000602082019050818103600083015261396c81613930565b9050919050565b7f4552433732313a207472616e736665722066726f6d20696e636f72726563742060008201527f6f776e6572000000000000000000000000000000000000000000000000000000602082015250565b60006139cf602583612844565b91506139da82613973565b604082019050919050565b600060208201905081810360008301526139fe816139c2565b9050919050565b7f4552433732313a207472616e7366657220746f20746865207a65726f2061646460008201527f7265737300000000000000000000000000000000000000000000000000000000602082015250565b6000613a61602483612844565b9150613a6c82613a05565b604082019050919050565b60006020820190508181036000830152613a9081613a54565b9050919050565b7f4e487b7100000000000000000000000000000000000000000000000000000000600052601160045260246000fd5b6000613ad1826128f4565b9150613adc836128f4565b925082821015613aef57613aee613a97565b5b828203905092915050565b6000613b05826128f4565b9150613b10836128f4565b9250827fffffffffffffffffffffffffffffffffffffffffffffffffffffffffffffffff03821115613b4557613b44613a97565b5b828201905092915050565b7f4f776e61626c653a2063616c6c6572206973206e6f7420746865206f776e6572600082015250565b6000613b86602083612844565b9150613b9182613b50565b602082019050919050565b60006020820190508181036000830152613bb581613b79565b9050919050565b7f4552433732313a20617070726f766520746f2063616c6c657200000000000000600082015250565b6000613bf2601983612844565b9150613bfd82613bbc565b602082019050919050565b60006020820190508181036000830152613c2181613be5565b9050919050565b7f4552433732313a207472616e7366657220746f206e6f6e20455243373231526560008201527f63656976657220696d706c656d656e7465720000000000000000000000000000602082015250565b6000613c84603283612844565b9150613c8f82613c28565b604082019050919050565b60006020820190508181036000830152613cb381613c77565b9050919050565b6000613cc5826128f4565b91507fffffffffffffffffffffffffffffffffffffffffffffffffffffffffffffffff821415613cf857613cf7613a97565b5b600182019050919050565b7f4e487b7100000000000000000000000000000000000000000000000000000000600052601260045260246000fd5b6000613d3d826128f4565b9150613d48836128f4565b925082613d5857613d57613d03565b5b828204905092915050565b6000613d6e826128f4565b9150613d79836128f4565b9250817fffffffffffffffffffffffffffffffffffffffffffffffffffffffffffffffff0483118215151615613db257613db1613a97565b5b828202905092915050565b6000613dc882612ced565b9150613dd383612ced565b92508260ff03821115613de957613de8613a97565b5b828201905092915050565b600081519050919050565b600082825260208201905092915050565b6000613e1b82613df4565b613e258185613dff565b9350613e35818560208601612855565b613e3e81612888565b840191505092915050565b6000608082019050613e5e6000830187612989565b613e6b6020830186612989565b613e786040830185612a1f565b8181036060830152613e8a8184613e10565b905095945050505050565b600081519050613ea4816127aa565b92915050565b600060208284031215613ec057613ebf612774565b5b6000613ece84828501613e95565b91505092915050565b7f4552433732313a206d696e7420746f20746865207a65726f2061646472657373600082015250565b6000613f0d602083612844565b9150613f1882613ed7565b602082019050919050565b60006020820190508181036000830152613f3c81613f00565b9050919050565b7f4552433732313a20746f6b656e20616c7265616479206d696e74656400000000600082015250565b6000613f79601c83612844565b9150613f8482613f43565b602082019050919050565b60006020820190508181036000830152613fa881613f6c565b9050919050565b7f4e487b7100000000000000000000000000000000000000000000000000000000600052603160045260246000fdfe5468616e6b20796f7520666f7220796f757220646f6e6174696f6e20746f20506f6c79636172653c7376672069643d274c617965725f312720646174612d6e616d653d274c6179657220312720786d6c6e733d27687474703a2f2f7777772e77332e6f72672f323030302f737667272076696577426f783d273020302039322e3335203132322e3838273e3c646566733e3c7374796c653e2e636c732d317b66696c6c2d72756c653a6576656e6f64643b7d3c2f7374796c653e3c2f646566733e3c7469746c653e676f6f642d7175616c6974793c2f7469746c653e3c7061746820636c6173733d27636c732d312720643d274d34362e31382c3061392e32362c392e32362c302c302c312c352e36312c312e37364335342c332e31362c35362e34352c352e39312c35392e352c372e363563342e32382c322e34352c31322e32322d2e39332c31362e32392c352e31312c322e33372c332e35322c322e34382c362e32382c322e36362c396131352e38342c31352e38342c302c302c302c332e37322c392e363463352c362e35392c362c31312c332e34352c31352e35362d312e37352c332e31312d352e34342c342e38352d362e32392c362e38322d312e38322c342e32312e31392c372e33372d322e332c31322e32376131332e30352c31332e30352c302c302c312d372e39332c362e3738632d332c312d362d2e34332d382e33392e35384335362e352c37352e31392c35332e33392c37392e332c35302c38302e33346131332c31332c302c302c312d372e37332c30632d332e33352d312d362e34362d352e31352d31302e36362d362e39322d322e342d312d352e342e33392d382e33392d2e35386131332c31332c302c302c312d372e39342d362e3738632d322e34392d342e392d2e34382d382e30362d322e332d31322e32372d2e38352d322d342e35342d332e37312d362e32392d362e38322d322e35372d342e35382d312e35332d392c332e34362d31352e35366131362c31362c302c302c302c332e37322d392e3634632e31372d322e37332e32382d352e34392c322e36362d392c342e30362d362c31322d322e36362c31362e32392d352e31312c332d312e37342c352e35312d342e34392c372e372d352e383841392e32392c392e32392c302c302c312c34362e31382c305a6d2d2e35352c32352e3837632e35362d322e38342c352e32312d2e32332c352e35312c342e33346131392e35322c31392e35322c302c302c312d2e342c342e383568362e363463322e37362e31312c352e31372c322e30392c332e34372c352e33332e33392c312e34322e34352c332e30382d2e36312c332e373361352e34352c352e34352c302c302c312d312e36342c342e37312c352e35382c352e35382c302c302c312d2e38352c322e3837632d2e38392c312e32362d312e36322c312d332c314834332e353261342e332c342e332c302c302c312d332e392d325633382e323463332e33342d2e392c352e31312d352e34382c362d382e34385632352e38385a4d33312e37362c33362e343768352e303861312e30362c312e30362c302c302c312c312e30362c312e30365635312e363561312e30362c312e30362c302c302c312d312e30362c312e30374833312e373661312e30372c312e30372c302c302c312d312e30362d312e30375633372e353361312e30372c312e30372c302c302c312c312e30362d312e30365a6d322e39322c392e333761312e33342c312e33342c302c312c312d312e33342c312e33342c312e33342c312e33342c302c302c312c312e33342d312e33345a4d332e33392c3131332e30372c31352c3131316c352e37332c31302e323563342e31352c352e31352c362e37392d332e33312c382d362e32364c33392e37382c3934632d322e35372d2e38392d352e36362d332e34372d382e38352d362e33352d362e33352e31332d31322e32372d312d31362e36322d362e35314c312e352c3130352e38352e33382c3130382e3233632d2e38372c332e30392d2e34312c352e31332c332c342e38345a6d38352e35372c304c37372e34312c3131316c2d352e37332c31302e3235632d342e31362c352e31352d362e382d332e33312d382d362e32364c35322e35372c393463322e35372d2e38392c352e36372d332e34372c382e38352d362e33352c362e33352e31332c31322e32372d312c31362e36322d362e35316c31322e38322c32342e37354c39322c3130382e3233632e38372c332e30392e34312c352e31332d332c342e38345a4d34362e31382c31352e33334132352e31342c32352e31342c302c312c312c32312c34302e34372c32352e31332c32352e31332c302c302c312c34362e31382c31352e33335a272f3e3c2f7376673e4142434445464748494a4b4c4d4e4f505152535455565758595a6162636465666768696a6b6c6d6e6f707172737475767778797a303132333435363738392b2fa2646970667358221220ced3fec18668047cc139b189ec926df37f034dedf6775649c506bc1424a1970a64736f6c63430008090033",
  "linkReferences": {},
  "deployedLinkReferences": {}
}