{
  "_format": "hh-sol-artifact-1",
  "contractName": "PolyCareMain",
  "sourceName": "contracts/PolyCareMain.sol",
  "abi": [
    {
      "inputs": [
        {
          "internalType": "uint256",
          "name": "_value",
          "type": "uint256"
        },
        {
          "internalType": "address payable",
          "name": "_treasury",
          "type": "address"
        }
      ],
      "stateMutability": "nonpayable",
      "type": "constructor"
    },
    {
      "anonymous": false,
      "inputs": [
        {
          "indexed": true,
          "internalType": "address",
          "name": "owner",
          "type": "address"
        },
        {
          "indexed": true,
          "internalType": "address",
          "name": "spender",
          "type": "address"
        },
        {
          "indexed": false,
          "internalType": "uint256",
          "name": "value",
          "type": "uint256"
        }
      ],
      "name": "Approval",
      "type": "event"
    },
    {
      "anonymous": false,
      "inputs": [
        {
          "indexed": true,
          "internalType": "address",
          "name": "delegator",
          "type": "address"
        },
        {
          "indexed": true,
          "internalType": "address",
          "name": "fromDelegate",
          "type": "address"
        },
        {
          "indexed": true,
          "internalType": "address",
          "name": "toDelegate",
          "type": "address"
        }
      ],
      "name": "DelegateChanged",
      "type": "event"
    },
    {
      "anonymous": false,
      "inputs": [
        {
          "indexed": true,
          "internalType": "address",
          "name": "delegate",
          "type": "address"
        },
        {
          "indexed": false,
          "internalType": "uint256",
          "name": "previousBalance",
          "type": "uint256"
        },
        {
          "indexed": false,
          "internalType": "uint256",
          "name": "newBalance",
          "type": "uint256"
        }
      ],
      "name": "DelegateVotesChanged",
      "type": "event"
    },
    {
      "anonymous": false,
      "inputs": [
        {
          "indexed": true,
          "internalType": "address",
          "name": "user",
          "type": "address"
        },
        {
          "indexed": false,
          "internalType": "uint256",
          "name": "amount",
          "type": "uint256"
        }
      ],
      "name": "Donate",
      "type": "event"
    },
    {
      "anonymous": false,
      "inputs": [
        {
          "indexed": true,
          "internalType": "address",
          "name": "user",
          "type": "address"
        },
        {
          "indexed": false,
          "internalType": "uint256",
          "name": "amount",
          "type": "uint256"
        }
      ],
      "name": "DonateWithoutToken",
      "type": "event"
    },
    {
      "anonymous": false,
      "inputs": [
        {
          "indexed": true,
          "internalType": "address",
          "name": "from",
          "type": "address"
        },
        {
          "indexed": true,
          "internalType": "address",
          "name": "to",
          "type": "address"
        },
        {
          "indexed": false,
          "internalType": "uint256",
          "name": "value",
          "type": "uint256"
        }
      ],
      "name": "Transfer",
      "type": "event"
    },
    {
      "inputs": [],
      "name": "DOMAIN_SEPARATOR",
      "outputs": [
        {
          "internalType": "bytes32",
          "name": "",
          "type": "bytes32"
        }
      ],
      "stateMutability": "view",
      "type": "function"
    },
    {
      "inputs": [
        {
          "internalType": "address",
          "name": "owner",
          "type": "address"
        },
        {
          "internalType": "address",
          "name": "spender",
          "type": "address"
        }
      ],
      "name": "allowance",
      "outputs": [
        {
          "internalType": "uint256",
          "name": "",
          "type": "uint256"
        }
      ],
      "stateMutability": "view",
      "type": "function"
    },
    {
      "inputs": [
        {
          "internalType": "address",
          "name": "spender",
          "type": "address"
        },
        {
          "internalType": "uint256",
          "name": "amount",
          "type": "uint256"
        }
      ],
      "name": "approve",
      "outputs": [
        {
          "internalType": "bool",
          "name": "",
          "type": "bool"
        }
      ],
      "stateMutability": "nonpayable",
      "type": "function"
    },
    {
      "inputs": [
        {
          "internalType": "address",
          "name": "account",
          "type": "address"
        }
      ],
      "name": "balanceOf",
      "outputs": [
        {
          "internalType": "uint256",
          "name": "",
          "type": "uint256"
        }
      ],
      "stateMutability": "view",
      "type": "function"
    },
    {
      "inputs": [
        {
          "internalType": "address",
          "name": "account",
          "type": "address"
        },
        {
          "internalType": "uint32",
          "name": "pos",
          "type": "uint32"
        }
      ],
      "name": "checkpoints",
      "outputs": [
        {
          "components": [
            {
              "internalType": "uint32",
              "name": "fromBlock",
              "type": "uint32"
            },
            {
              "internalType": "uint224",
              "name": "votes",
              "type": "uint224"
            }
          ],
          "internalType": "struct ERC20Votes.Checkpoint",
          "name": "",
          "type": "tuple"
        }
      ],
      "stateMutability": "view",
      "type": "function"
    },
    {
      "inputs": [],
      "name": "currentSupply",
      "outputs": [
        {
          "internalType": "uint256",
          "name": "",
          "type": "uint256"
        }
      ],
      "stateMutability": "view",
      "type": "function"
    },
    {
      "inputs": [],
      "name": "decimals",
      "outputs": [
        {
          "internalType": "uint8",
          "name": "",
          "type": "uint8"
        }
      ],
      "stateMutability": "view",
      "type": "function"
    },
    {
      "inputs": [
        {
          "internalType": "address",
          "name": "spender",
          "type": "address"
        },
        {
          "internalType": "uint256",
          "name": "subtractedValue",
          "type": "uint256"
        }
      ],
      "name": "decreaseAllowance",
      "outputs": [
        {
          "internalType": "bool",
          "name": "",
          "type": "bool"
        }
      ],
      "stateMutability": "nonpayable",
      "type": "function"
    },
    {
      "inputs": [
        {
          "internalType": "address",
          "name": "delegatee",
          "type": "address"
        }
      ],
      "name": "delegate",
      "outputs": [],
      "stateMutability": "nonpayable",
      "type": "function"
    },
    {
      "inputs": [
        {
          "internalType": "address",
          "name": "delegatee",
          "type": "address"
        },
        {
          "internalType": "uint256",
          "name": "nonce",
          "type": "uint256"
        },
        {
          "internalType": "uint256",
          "name": "expiry",
          "type": "uint256"
        },
        {
          "internalType": "uint8",
          "name": "v",
          "type": "uint8"
        },
        {
          "internalType": "bytes32",
          "name": "r",
          "type": "bytes32"
        },
        {
          "internalType": "bytes32",
          "name": "s",
          "type": "bytes32"
        }
      ],
      "name": "delegateBySig",
      "outputs": [],
      "stateMutability": "nonpayable",
      "type": "function"
    },
    {
      "inputs": [
        {
          "internalType": "address",
          "name": "account",
          "type": "address"
        }
      ],
      "name": "delegates",
      "outputs": [
        {
          "internalType": "address",
          "name": "",
          "type": "address"
        }
      ],
      "stateMutability": "view",
      "type": "function"
    },
    {
      "inputs": [],
      "name": "donate",
      "outputs": [],
      "stateMutability": "payable",
      "type": "function"
    },
    {
      "inputs": [],
      "name": "donateWithoutToken",
      "outputs": [],
      "stateMutability": "payable",
      "type": "function"
    },
    {
      "inputs": [
        {
          "internalType": "uint256",
          "name": "",
          "type": "uint256"
        }
      ],
      "name": "donations",
      "outputs": [
        {
          "internalType": "address",
          "name": "donor",
          "type": "address"
        },
        {
          "internalType": "uint256",
          "name": "quantity",
          "type": "uint256"
        }
      ],
      "stateMutability": "view",
      "type": "function"
    },
    {
      "inputs": [
        {
          "internalType": "address",
          "name": "",
          "type": "address"
        }
      ],
      "name": "donors",
      "outputs": [
        {
          "internalType": "bool",
          "name": "",
          "type": "bool"
        }
      ],
      "stateMutability": "view",
      "type": "function"
    },
    {
      "inputs": [
        {
          "internalType": "uint256",
          "name": "blockNumber",
          "type": "uint256"
        }
      ],
      "name": "getPastTotalSupply",
      "outputs": [
        {
          "internalType": "uint256",
          "name": "",
          "type": "uint256"
        }
      ],
      "stateMutability": "view",
      "type": "function"
    },
    {
      "inputs": [
        {
          "internalType": "address",
          "name": "account",
          "type": "address"
        },
        {
          "internalType": "uint256",
          "name": "blockNumber",
          "type": "uint256"
        }
      ],
      "name": "getPastVotes",
      "outputs": [
        {
          "internalType": "uint256",
          "name": "",
          "type": "uint256"
        }
      ],
      "stateMutability": "view",
      "type": "function"
    },
    {
      "inputs": [],
      "name": "getTokenBalance",
      "outputs": [
        {
          "internalType": "uint256",
          "name": "balance",
          "type": "uint256"
        }
      ],
      "stateMutability": "view",
      "type": "function"
    },
    {
      "inputs": [
        {
          "internalType": "address",
          "name": "account",
          "type": "address"
        }
      ],
      "name": "getVotes",
      "outputs": [
        {
          "internalType": "uint256",
          "name": "",
          "type": "uint256"
        }
      ],
      "stateMutability": "view",
      "type": "function"
    },
    {
      "inputs": [
        {
          "internalType": "address",
          "name": "spender",
          "type": "address"
        },
        {
          "internalType": "uint256",
          "name": "addedValue",
          "type": "uint256"
        }
      ],
      "name": "increaseAllowance",
      "outputs": [
        {
          "internalType": "bool",
          "name": "",
          "type": "bool"
        }
      ],
      "stateMutability": "nonpayable",
      "type": "function"
    },
    {
      "inputs": [
        {
          "internalType": "address",
          "name": "_donor",
          "type": "address"
        }
      ],
      "name": "isDonor",
      "outputs": [
        {
          "internalType": "bool",
          "name": "",
          "type": "bool"
        }
      ],
      "stateMutability": "view",
      "type": "function"
    },
    {
      "inputs": [],
      "name": "maxPurchase",
      "outputs": [
        {
          "internalType": "uint256",
          "name": "",
          "type": "uint256"
        }
      ],
      "stateMutability": "view",
      "type": "function"
    },
    {
      "inputs": [],
      "name": "minPurchase",
      "outputs": [
        {
          "internalType": "uint256",
          "name": "",
          "type": "uint256"
        }
      ],
      "stateMutability": "view",
      "type": "function"
    },
    {
      "inputs": [],
      "name": "name",
      "outputs": [
        {
          "internalType": "string",
          "name": "",
          "type": "string"
        }
      ],
      "stateMutability": "view",
      "type": "function"
    },
    {
      "inputs": [
        {
          "internalType": "address",
          "name": "owner",
          "type": "address"
        }
      ],
      "name": "nonces",
      "outputs": [
        {
          "internalType": "uint256",
          "name": "",
          "type": "uint256"
        }
      ],
      "stateMutability": "view",
      "type": "function"
    },
    {
      "inputs": [
        {
          "internalType": "address",
          "name": "account",
          "type": "address"
        }
      ],
      "name": "numCheckpoints",
      "outputs": [
        {
          "internalType": "uint32",
          "name": "",
          "type": "uint32"
        }
      ],
      "stateMutability": "view",
      "type": "function"
    },
    {
      "inputs": [
        {
          "internalType": "address",
          "name": "owner",
          "type": "address"
        },
        {
          "internalType": "address",
          "name": "spender",
          "type": "address"
        },
        {
          "internalType": "uint256",
          "name": "value",
          "type": "uint256"
        },
        {
          "internalType": "uint256",
          "name": "deadline",
          "type": "uint256"
        },
        {
          "internalType": "uint8",
          "name": "v",
          "type": "uint8"
        },
        {
          "internalType": "bytes32",
          "name": "r",
          "type": "bytes32"
        },
        {
          "internalType": "bytes32",
          "name": "s",
          "type": "bytes32"
        }
      ],
      "name": "permit",
      "outputs": [],
      "stateMutability": "nonpayable",
      "type": "function"
    },
    {
      "inputs": [],
      "name": "s_maxSupply",
      "outputs": [
        {
          "internalType": "uint256",
          "name": "",
          "type": "uint256"
        }
      ],
      "stateMutability": "view",
      "type": "function"
    },
    {
      "inputs": [],
      "name": "symbol",
      "outputs": [
        {
          "internalType": "string",
          "name": "",
          "type": "string"
        }
      ],
      "stateMutability": "view",
      "type": "function"
    },
    {
      "inputs": [],
      "name": "totalSupply",
      "outputs": [
        {
          "internalType": "uint256",
          "name": "",
          "type": "uint256"
        }
      ],
      "stateMutability": "view",
      "type": "function"
    },
    {
      "inputs": [
        {
          "internalType": "address",
          "name": "to",
          "type": "address"
        },
        {
          "internalType": "uint256",
          "name": "amount",
          "type": "uint256"
        }
      ],
      "name": "transfer",
      "outputs": [
        {
          "internalType": "bool",
          "name": "",
          "type": "bool"
        }
      ],
      "stateMutability": "nonpayable",
      "type": "function"
    },
    {
      "inputs": [
        {
          "internalType": "address",
          "name": "from",
          "type": "address"
        },
        {
          "internalType": "address",
          "name": "to",
          "type": "address"
        },
        {
          "internalType": "uint256",
          "name": "amount",
          "type": "uint256"
        }
      ],
      "name": "transferFrom",
      "outputs": [
        {
          "internalType": "bool",
          "name": "",
          "type": "bool"
        }
      ],
      "stateMutability": "nonpayable",
      "type": "function"
    },
    {
      "inputs": [],
      "name": "value",
      "outputs": [
        {
          "internalType": "uint256",
          "name": "",
          "type": "uint256"
        }
      ],
      "stateMutability": "view",
      "type": "function"
    }
  ],
  "bytecode": "0x6101406040526a52b7d2dcc80cd2e4000000600a553480156200002157600080fd5b50604051620049b0380380620049b08339818101604052810190620000479190620003e8565b6040518060400160405280600d81526020017f506f6c7963617265546f6b656e00000000000000000000000000000000000000815250806040518060400160405280600181526020017f31000000000000000000000000000000000000000000000000000000000000008152506040518060400160405280600d81526020017f506f6c7963617265546f6b656e000000000000000000000000000000000000008152506040518060400160405280600381526020017f504354000000000000000000000000000000000000000000000000000000000081525081600390805190602001906200013892919062000293565b5080600490805190602001906200015192919062000293565b50505060008280519060200120905060008280519060200120905060007f8b73c3c69bb8fe3d512ecc4cf759cc79239f7b179b0ffacaa9a75d522b39400f90508260e081815250508161010081815250504660a08181525050620001bd8184846200025760201b60201c565b608081815250503073ffffffffffffffffffffffffffffffffffffffff1660c08173ffffffffffffffffffffffffffffffffffffffff168152505080610120818152505050505050505081600c8190555080601260006101000a81548173ffffffffffffffffffffffffffffffffffffffff021916908373ffffffffffffffffffffffffffffffffffffffff160217905550505062000542565b600083838346306040516020016200027495949392919062000480565b6040516020818303038152906040528051906020012090509392505050565b828054620002a1906200050c565b90600052602060002090601f016020900481019282620002c5576000855562000311565b82601f10620002e057805160ff191683800117855562000311565b8280016001018555821562000311579182015b8281111562000310578251825591602001919060010190620002f3565b5b50905062000320919062000324565b5090565b5b808211156200033f57600081600090555060010162000325565b5090565b600080fd5b6000819050919050565b6200035d8162000348565b81146200036957600080fd5b50565b6000815190506200037d8162000352565b92915050565b600073ffffffffffffffffffffffffffffffffffffffff82169050919050565b6000620003b08262000383565b9050919050565b620003c281620003a3565b8114620003ce57600080fd5b50565b600081519050620003e281620003b7565b92915050565b6000806040838503121562000402576200040162000343565b5b600062000412858286016200036c565b92505060206200042585828601620003d1565b9150509250929050565b6000819050919050565b62000444816200042f565b82525050565b620004558162000348565b82525050565b6000620004688262000383565b9050919050565b6200047a816200045b565b82525050565b600060a08201905062000497600083018862000439565b620004a6602083018762000439565b620004b5604083018662000439565b620004c460608301856200044a565b620004d360808301846200046f565b9695505050505050565b7f4e487b7100000000000000000000000000000000000000000000000000000000600052602260045260246000fd5b600060028204905060018216806200052557607f821691505b602082108114156200053c576200053b620004dd565b5b50919050565b60805160a05160c05160e051610100516101205161441e620005926000396000611e4401526000611e8601526000611e6501526000611d9a01526000611df001526000611e19015261441e6000f3fe6080604052600436106101fe5760003560e01c806370a082311161011d578063a457c2d7116100b0578063d505accf1161007f578063ed88c68e11610064578063ed88c68e146107f4578063f1127ed8146107fe578063f8626af81461083b576101fe565b8063d505accf1461078e578063dd62ed3e146107b7576101fe565b8063a457c2d7146106ae578063a9059cbb146106eb578063c3cda52014610728578063ca0cdea814610751576101fe565b80638e539e8c116100ec5780638e539e8c146105de57806395d89b411461061b578063977b055b146106465780639ab24eb014610671576101fe565b806370a082311461050e578063771282f61461054b5780637ecebe001461057657806382b2e257146105b3576101fe565b806339509351116101955780635c19a95c116101645780635c19a95c146104735780635d6418471461049c57806363ca4549146104c75780636fcfff45146104d1576101fe565b806339509351146103915780633a46b1a8146103ce5780633fa4f2451461040b578063587cde1e14610436576101fe565b80632bc3d7aa116101d15780632bc3d7aa146102d3578063313ce5671461031057806333b5b62e1461033b5780633644e51514610366576101fe565b806306fdde0314610203578063095ea7b31461022e57806318160ddd1461026b57806323b872dd14610296575b600080fd5b34801561020f57600080fd5b50610218610879565b6040516102259190612e6a565b60405180910390f35b34801561023a57600080fd5b5061025560048036038101906102509190612f25565b61090b565b6040516102629190612f80565b60405180910390f35b34801561027757600080fd5b5061028061092e565b60405161028d9190612faa565b60405180910390f35b3480156102a257600080fd5b506102bd60048036038101906102b89190612fc5565b610938565b6040516102ca9190612f80565b60405180910390f35b3480156102df57600080fd5b506102fa60048036038101906102f59190613018565b610967565b6040516103079190612f80565b60405180910390f35b34801561031c57600080fd5b506103256109bd565b6040516103329190613061565b60405180910390f35b34801561034757600080fd5b506103506109c6565b60405161035d9190612faa565b60405180910390f35b34801561037257600080fd5b5061037b6109cc565b6040516103889190613095565b60405180910390f35b34801561039d57600080fd5b506103b860048036038101906103b39190612f25565b6109db565b6040516103c59190612f80565b60405180910390f35b3480156103da57600080fd5b506103f560048036038101906103f09190612f25565b610a12565b6040516104029190612faa565b60405180910390f35b34801561041757600080fd5b50610420610aa6565b60405161042d9190612faa565b60405180910390f35b34801561044257600080fd5b5061045d60048036038101906104589190613018565b610aac565b60405161046a91906130bf565b60405180910390f35b34801561047f57600080fd5b5061049a60048036038101906104959190613018565b610b15565b005b3480156104a857600080fd5b506104b1610b29565b6040516104be9190612faa565b60405180910390f35b6104cf610b2f565b005b3480156104dd57600080fd5b506104f860048036038101906104f39190613018565b610c4e565b60405161050591906130f9565b60405180910390f35b34801561051a57600080fd5b5061053560048036038101906105309190613018565b610ca2565b6040516105429190612faa565b60405180910390f35b34801561055757600080fd5b50610560610cea565b60405161056d9190612faa565b60405180910390f35b34801561058257600080fd5b5061059d60048036038101906105989190613018565b610cf0565b6040516105aa9190612faa565b60405180910390f35b3480156105bf57600080fd5b506105c8610d40565b6040516105d59190612faa565b60405180910390f35b3480156105ea57600080fd5b5061060560048036038101906106009190613114565b610d57565b6040516106129190612faa565b60405180910390f35b34801561062757600080fd5b50610630610dad565b60405161063d9190612e6a565b60405180910390f35b34801561065257600080fd5b5061065b610e3f565b6040516106689190612faa565b60405180910390f35b34801561067d57600080fd5b5061069860048036038101906106939190613018565b610e45565b6040516106a59190612faa565b60405180910390f35b3480156106ba57600080fd5b506106d560048036038101906106d09190612f25565b610f56565b6040516106e29190612f80565b60405180910390f35b3480156106f757600080fd5b50610712600480360381019061070d9190612f25565b610fcd565b60405161071f9190612f80565b60405180910390f35b34801561073457600080fd5b5061074f600480360381019061074a9190613199565b610ff0565b005b34801561075d57600080fd5b5061077860048036038101906107739190613018565b6110f4565b6040516107859190612f80565b60405180910390f35b34801561079a57600080fd5b506107b560048036038101906107b09190613226565b611114565b005b3480156107c357600080fd5b506107de60048036038101906107d991906132c8565b611256565b6040516107eb9190612faa565b60405180910390f35b6107fc6112dd565b005b34801561080a57600080fd5b5061082560048036038101906108209190613334565b611752565b60405161083291906133e9565b60405180910390f35b34801561084757600080fd5b50610862600480360381019061085d9190613114565b611862565b604051610870929190613404565b60405180910390f35b6060600380546108889061345c565b80601f01602080910402602001604051908101604052809291908181526020018280546108b49061345c565b80156109015780601f106108d657610100808354040283529160200191610901565b820191906000526020600020905b8154815290600101906020018083116108e457829003601f168201915b5050505050905090565b6000806109166118b6565b90506109238185856118be565b600191505092915050565b6000600254905090565b6000806109436118b6565b9050610950858285611a89565b61095b858585611b15565b60019150509392505050565b6000601060008373ffffffffffffffffffffffffffffffffffffffff1673ffffffffffffffffffffffffffffffffffffffff16815260200190815260200160002060009054906101000a900460ff169050919050565b60006012905090565b600d5481565b60006109d6611d96565b905090565b6000806109e66118b6565b9050610a078185856109f88589611256565b610a0291906134bd565b6118be565b600191505092915050565b6000438210610a56576040517f08c379a0000000000000000000000000000000000000000000000000000000008152600401610a4d9061355f565b60405180910390fd5b610a9e600860008573ffffffffffffffffffffffffffffffffffffffff1673ffffffffffffffffffffffffffffffffffffffff16815260200190815260200160002083611eb0565b905092915050565b600c5481565b6000600760008373ffffffffffffffffffffffffffffffffffffffff1673ffffffffffffffffffffffffffffffffffffffff16815260200190815260200160002060009054906101000a900473ffffffffffffffffffffffffffffffffffffffff169050919050565b610b26610b206118b6565b82611fbc565b50565b600a5481565b6000601260009054906101000a900473ffffffffffffffffffffffffffffffffffffffff1673ffffffffffffffffffffffffffffffffffffffff1647604051610b77906135b0565b60006040518083038185875af1925050503d8060008114610bb4576040519150601f19603f3d011682016040523d82523d6000602084013e610bb9565b606091505b5050905080610bfd576040517f08c379a0000000000000000000000000000000000000000000000000000000008152600401610bf490613611565b60405180910390fd5b3373ffffffffffffffffffffffffffffffffffffffff167fb4da4cb7a2d08faa2513eeb8b3996bc334b6ce63b02eebcca7f87341a7acfd9a34604051610c439190612faa565b60405180910390a250565b6000610c9b600860008473ffffffffffffffffffffffffffffffffffffffff1673ffffffffffffffffffffffffffffffffffffffff168152602001908152602001600020805490506120d6565b9050919050565b60008060008373ffffffffffffffffffffffffffffffffffffffff1673ffffffffffffffffffffffffffffffffffffffff168152602001908152602001600020549050919050565b600b5481565b6000610d39600560008473ffffffffffffffffffffffffffffffffffffffff1673ffffffffffffffffffffffffffffffffffffffff168152602001908152602001600020612129565b9050919050565b6000600b54600a54610d529190613631565b905090565b6000438210610d9b576040517f08c379a0000000000000000000000000000000000000000000000000000000008152600401610d929061355f565b60405180910390fd5b610da6600983611eb0565b9050919050565b606060048054610dbc9061345c565b80601f0160208091040260200160405190810160405280929190818152602001828054610de89061345c565b8015610e355780601f10610e0a57610100808354040283529160200191610e35565b820191906000526020600020905b815481529060010190602001808311610e1857829003601f168201915b5050505050905090565b600e5481565b600080600860008473ffffffffffffffffffffffffffffffffffffffff1673ffffffffffffffffffffffffffffffffffffffff16815260200190815260200160002080549050905060008114610f2d57600860008473ffffffffffffffffffffffffffffffffffffffff1673ffffffffffffffffffffffffffffffffffffffff168152602001908152602001600020600182610ee19190613631565b81548110610ef257610ef1613665565b5b9060005260206000200160000160049054906101000a90047bffffffffffffffffffffffffffffffffffffffffffffffffffffffff16610f30565b60005b7bffffffffffffffffffffffffffffffffffffffffffffffffffffffff16915050919050565b600080610f616118b6565b90506000610f6f8286611256565b905083811015610fb4576040517f08c379a0000000000000000000000000000000000000000000000000000000008152600401610fab90613706565b60405180910390fd5b610fc182868684036118be565b60019250505092915050565b600080610fd86118b6565b9050610fe5818585611b15565b600191505092915050565b83421115611033576040517f08c379a000000000000000000000000000000000000000000000000000000000815260040161102a90613772565b60405180910390fd5b600061109561108d7fe48329057bfd03d55e49b547132e39cffd9c1820ad7b9d4c5307691425d15adf8989896040516020016110729493929190613792565b60405160208183030381529060405280519060200120612137565b858585612151565b90506110a08161217c565b86146110e1576040517f08c379a00000000000000000000000000000000000000000000000000000000081526004016110d890613823565b60405180910390fd5b6110eb8188611fbc565b50505050505050565b60106020528060005260406000206000915054906101000a900460ff1681565b83421115611157576040517f08c379a000000000000000000000000000000000000000000000000000000000815260040161114e9061388f565b60405180910390fd5b60007f6e71edae12b1b97f4d1f60370fef10105fa2faae0126114a169c64845d6126c98888886111868c61217c565b8960405160200161119c969594939291906138af565b60405160208183030381529060405280519060200120905060006111bf82612137565b905060006111cf82878787612151565b90508973ffffffffffffffffffffffffffffffffffffffff168173ffffffffffffffffffffffffffffffffffffffff161461123f576040517f08c379a00000000000000000000000000000000000000000000000000000000081526004016112369061395c565b60405180910390fd5b61124a8a8a8a6118be565b50505050505050505050565b6000600160008473ffffffffffffffffffffffffffffffffffffffff1673ffffffffffffffffffffffffffffffffffffffff16815260200190815260200160002060008373ffffffffffffffffffffffffffffffffffffffff1673ffffffffffffffffffffffffffffffffffffffff16815260200190815260200160002054905092915050565b6000600c54346112ed91906139ab565b1461132d576040517f08c379a000000000000000000000000000000000000000000000000000000000815260040161132490613a28565b60405180910390fd5b6000600c543461133d9190613a48565b905080611348610d40565b1015611389576040517f08c379a000000000000000000000000000000000000000000000000000000000815260040161138090613ac5565b60405180910390fd5b60011515601060003373ffffffffffffffffffffffffffffffffffffffff1673ffffffffffffffffffffffffffffffffffffffff16815260200190815260200160002060009054906101000a900460ff1615151415611446576000601160003373ffffffffffffffffffffffffffffffffffffffff1673ffffffffffffffffffffffffffffffffffffffff16815260200190815260200160002090508181600101600082825461143991906134bd565b9250508190555050611606565b600f60405180604001604052803373ffffffffffffffffffffffffffffffffffffffff16815260200183815250908060018154018082558091505060019003906000526020600020906002020160009091909190915060008201518160000160006101000a81548173ffffffffffffffffffffffffffffffffffffffff021916908373ffffffffffffffffffffffffffffffffffffffff1602179055506020820151816001015550506001601060003373ffffffffffffffffffffffffffffffffffffffff1673ffffffffffffffffffffffffffffffffffffffff16815260200190815260200160002060006101000a81548160ff02191690831515021790555060405180604001604052803373ffffffffffffffffffffffffffffffffffffffff16815260200182815250601160003373ffffffffffffffffffffffffffffffffffffffff1673ffffffffffffffffffffffffffffffffffffffff16815260200190815260200160002060008201518160000160006101000a81548173ffffffffffffffffffffffffffffffffffffffff021916908373ffffffffffffffffffffffffffffffffffffffff160217905550602082015181600101559050505b61160f476121da565b6000601260009054906101000a900473ffffffffffffffffffffffffffffffffffffffff1673ffffffffffffffffffffffffffffffffffffffff1647604051611657906135b0565b60006040518083038185875af1925050503d8060008114611694576040519150601f19603f3d011682016040523d82523d6000602084013e611699565b606091505b50509050806116dd576040517f08c379a00000000000000000000000000000000000000000000000000000000081526004016116d490613611565b60405180910390fd5b6116e73383612273565b81600b60008282546116f991906134bd565b925050819055503373ffffffffffffffffffffffffffffffffffffffff167f0553260a2e46b0577270d8992db02d30856ca880144c72d6e9503760946aef13346040516117469190612faa565b60405180910390a25050565b61175a612d93565b600860008473ffffffffffffffffffffffffffffffffffffffff1673ffffffffffffffffffffffffffffffffffffffff1681526020019081526020016000208263ffffffff16815481106117b1576117b0613665565b5b906000526020600020016040518060400160405290816000820160009054906101000a900463ffffffff1663ffffffff1663ffffffff1681526020016000820160049054906101000a90047bffffffffffffffffffffffffffffffffffffffffffffffffffffffff167bffffffffffffffffffffffffffffffffffffffffffffffffffffffff167bffffffffffffffffffffffffffffffffffffffffffffffffffffffff1681525050905092915050565b600f818154811061187257600080fd5b90600052602060002090600202016000915090508060000160009054906101000a900473ffffffffffffffffffffffffffffffffffffffff16908060010154905082565b600033905090565b600073ffffffffffffffffffffffffffffffffffffffff168373ffffffffffffffffffffffffffffffffffffffff16141561192e576040517f08c379a000000000000000000000000000000000000000000000000000000000815260040161192590613b57565b60405180910390fd5b600073ffffffffffffffffffffffffffffffffffffffff168273ffffffffffffffffffffffffffffffffffffffff16141561199e576040517f08c379a000000000000000000000000000000000000000000000000000000000815260040161199590613be9565b60405180910390fd5b80600160008573ffffffffffffffffffffffffffffffffffffffff1673ffffffffffffffffffffffffffffffffffffffff16815260200190815260200160002060008473ffffffffffffffffffffffffffffffffffffffff1673ffffffffffffffffffffffffffffffffffffffff168152602001908152602001600020819055508173ffffffffffffffffffffffffffffffffffffffff168373ffffffffffffffffffffffffffffffffffffffff167f8c5be1e5ebec7d5bd14f71427d1e84f3dd0314c0f7b2291e5b200ac8c7c3b92583604051611a7c9190612faa565b60405180910390a3505050565b6000611a958484611256565b90507fffffffffffffffffffffffffffffffffffffffffffffffffffffffffffffffff8114611b0f5781811015611b01576040517f08c379a0000000000000000000000000000000000000000000000000000000008152600401611af890613c55565b60405180910390fd5b611b0e84848484036118be565b5b50505050565b600073ffffffffffffffffffffffffffffffffffffffff168373ffffffffffffffffffffffffffffffffffffffff161415611b85576040517f08c379a0000000000000000000000000000000000000000000000000000000008152600401611b7c90613ce7565b60405180910390fd5b600073ffffffffffffffffffffffffffffffffffffffff168273ffffffffffffffffffffffffffffffffffffffff161415611bf5576040517f08c379a0000000000000000000000000000000000000000000000000000000008152600401611bec90613d79565b60405180910390fd5b611c00838383612281565b60008060008573ffffffffffffffffffffffffffffffffffffffff1673ffffffffffffffffffffffffffffffffffffffff16815260200190815260200160002054905081811015611c86576040517f08c379a0000000000000000000000000000000000000000000000000000000008152600401611c7d90613e0b565b60405180910390fd5b8181036000808673ffffffffffffffffffffffffffffffffffffffff1673ffffffffffffffffffffffffffffffffffffffff16815260200190815260200160002081905550816000808573ffffffffffffffffffffffffffffffffffffffff1673ffffffffffffffffffffffffffffffffffffffff1681526020019081526020016000206000828254611d1991906134bd565b925050819055508273ffffffffffffffffffffffffffffffffffffffff168473ffffffffffffffffffffffffffffffffffffffff167fddf252ad1be2c89b69c2b068fc378daa952ba7f163c4a11628f55a4df523b3ef84604051611d7d9190612faa565b60405180910390a3611d90848484612286565b50505050565b60007f000000000000000000000000000000000000000000000000000000000000000073ffffffffffffffffffffffffffffffffffffffff163073ffffffffffffffffffffffffffffffffffffffff16148015611e1257507f000000000000000000000000000000000000000000000000000000000000000046145b15611e3f577f00000000000000000000000000000000000000000000000000000000000000009050611ead565b611eaa7f00000000000000000000000000000000000000000000000000000000000000007f00000000000000000000000000000000000000000000000000000000000000007f0000000000000000000000000000000000000000000000000000000000000000612296565b90505b90565b6000808380549050905060005b81811015611f2f576000611ed182846122d0565b905084868281548110611ee757611ee6613665565b5b9060005260206000200160000160009054906101000a900463ffffffff1663ffffffff161115611f1957809250611f29565b600181611f2691906134bd565b91505b50611ebd565b60008214611f915784600183611f459190613631565b81548110611f5657611f55613665565b5b9060005260206000200160000160049054906101000a90047bffffffffffffffffffffffffffffffffffffffffffffffffffffffff16611f94565b60005b7bffffffffffffffffffffffffffffffffffffffffffffffffffffffff169250505092915050565b6000611fc783610aac565b90506000611fd484610ca2565b905082600760008673ffffffffffffffffffffffffffffffffffffffff1673ffffffffffffffffffffffffffffffffffffffff16815260200190815260200160002060006101000a81548173ffffffffffffffffffffffffffffffffffffffff021916908373ffffffffffffffffffffffffffffffffffffffff1602179055508273ffffffffffffffffffffffffffffffffffffffff168273ffffffffffffffffffffffffffffffffffffffff168573ffffffffffffffffffffffffffffffffffffffff167f3134e8a2e6d97e929a7e54011ea5485d7d196dd5f0ba4d4ef95803e8e3fc257f60405160405180910390a46120d08284836122f6565b50505050565b600063ffffffff8016821115612121576040517f08c379a000000000000000000000000000000000000000000000000000000000815260040161211890613e9d565b60405180910390fd5b819050919050565b600081600001549050919050565b600061214a612144611d96565b836124ef565b9050919050565b600080600061216287878787612522565b9150915061216f8161262f565b8192505050949350505050565b600080600560008473ffffffffffffffffffffffffffffffffffffffff1673ffffffffffffffffffffffffffffffffffffffff16815260200190815260200160002090506121c981612129565b91506121d481612804565b50919050565b612270816040516024016121ee9190612faa565b6040516020818303038152906040527ff5b1bba9000000000000000000000000000000000000000000000000000000007bffffffffffffffffffffffffffffffffffffffffffffffffffffffff19166020820180517bffffffffffffffffffffffffffffffffffffffffffffffffffffffff838183161783525050505061281a565b50565b61227d8282612843565b5050565b505050565b6122918383836128d0565b505050565b600083838346306040516020016122b1959493929190613ebd565b6040516020818303038152906040528051906020012090509392505050565b600060028284186122e19190613a48565b8284166122ee91906134bd565b905092915050565b8173ffffffffffffffffffffffffffffffffffffffff168373ffffffffffffffffffffffffffffffffffffffff16141580156123325750600081115b156124ea57600073ffffffffffffffffffffffffffffffffffffffff168373ffffffffffffffffffffffffffffffffffffffff1614612410576000806123b9600860008773ffffffffffffffffffffffffffffffffffffffff1673ffffffffffffffffffffffffffffffffffffffff1681526020019081526020016000206128fb85612911565b915091508473ffffffffffffffffffffffffffffffffffffffff167fdec2bacdd2f05b59de34da9b523dff8be42e5e38e818c82fdb0bae774387a7248383604051612405929190613f10565b60405180910390a250505b600073ffffffffffffffffffffffffffffffffffffffff168273ffffffffffffffffffffffffffffffffffffffff16146124e957600080612492600860008673ffffffffffffffffffffffffffffffffffffffff1673ffffffffffffffffffffffffffffffffffffffff168152602001908152602001600020612b8985612911565b915091508373ffffffffffffffffffffffffffffffffffffffff167fdec2bacdd2f05b59de34da9b523dff8be42e5e38e818c82fdb0bae774387a72483836040516124de929190613f10565b60405180910390a250505b5b505050565b60008282604051602001612504929190613fb1565b60405160208183030381529060405280519060200120905092915050565b6000807f7fffffffffffffffffffffffffffffff5d576e7357a4501ddfe92f46681b20a08360001c111561255d576000600391509150612626565b601b8560ff16141580156125755750601c8560ff1614155b15612587576000600491509150612626565b6000600187878787604051600081526020016040526040516125ac9493929190613fe8565b6020604051602081039080840390855afa1580156125ce573d6000803e3d6000fd5b505050602060405103519050600073ffffffffffffffffffffffffffffffffffffffff168173ffffffffffffffffffffffffffffffffffffffff16141561261d57600060019250925050612626565b80600092509250505b94509492505050565b600060048111156126435761264261402d565b5b8160048111156126565761265561402d565b5b141561266157612801565b600160048111156126755761267461402d565b5b8160048111156126885761268761402d565b5b14156126c9576040517f08c379a00000000000000000000000000000000000000000000000000000000081526004016126c0906140a8565b60405180910390fd5b600260048111156126dd576126dc61402d565b5b8160048111156126f0576126ef61402d565b5b1415612731576040517f08c379a000000000000000000000000000000000000000000000000000000000815260040161272890614114565b60405180910390fd5b600360048111156127455761274461402d565b5b8160048111156127585761275761402d565b5b1415612799576040517f08c379a0000000000000000000000000000000000000000000000000000000008152600401612790906141a6565b60405180910390fd5b6004808111156127ac576127ab61402d565b5b8160048111156127bf576127be61402d565b5b1415612800576040517f08c379a00000000000000000000000000000000000000000000000000000000081526004016127f790614238565b60405180910390fd5b5b50565b6001816000016000828254019250508190555050565b60008151905060006a636f6e736f6c652e6c6f679050602083016000808483855afa5050505050565b61284d8282612b9f565b612855612cff565b7bffffffffffffffffffffffffffffffffffffffffffffffffffffffff1661287b61092e565b11156128bc576040517f08c379a00000000000000000000000000000000000000000000000000000000081526004016128b3906142ca565b60405180910390fd5b6128ca6009612b8983612911565b50505050565b6128db838383612d23565b6128f66128e784610aac565b6128f084610aac565b836122f6565b505050565b600081836129099190613631565b905092915050565b6000806000858054905090506000811461297f57856001826129339190613631565b8154811061294457612943613665565b5b9060005260206000200160000160049054906101000a90047bffffffffffffffffffffffffffffffffffffffffffffffffffffffff16612982565b60005b7bffffffffffffffffffffffffffffffffffffffffffffffffffffffff1692506129b083858763ffffffff16565b9150600081118015612a03575043866001836129cc9190613631565b815481106129dd576129dc613665565b5b9060005260206000200160000160009054906101000a900463ffffffff1663ffffffff16145b15612a9057612a1182612d28565b86600183612a1f9190613631565b81548110612a3057612a2f613665565b5b9060005260206000200160000160046101000a8154817bffffffffffffffffffffffffffffffffffffffffffffffffffffffff02191690837bffffffffffffffffffffffffffffffffffffffffffffffffffffffff160217905550612b80565b856040518060400160405280612aa5436120d6565b63ffffffff168152602001612ab985612d28565b7bffffffffffffffffffffffffffffffffffffffffffffffffffffffff168152509080600181540180825580915050600190039060005260206000200160009091909190915060008201518160000160006101000a81548163ffffffff021916908363ffffffff16021790555060208201518160000160046101000a8154817bffffffffffffffffffffffffffffffffffffffffffffffffffffffff02191690837bffffffffffffffffffffffffffffffffffffffffffffffffffffffff16021790555050505b50935093915050565b60008183612b9791906134bd565b905092915050565b600073ffffffffffffffffffffffffffffffffffffffff168273ffffffffffffffffffffffffffffffffffffffff161415612c0f576040517f08c379a0000000000000000000000000000000000000000000000000000000008152600401612c0690614336565b60405180910390fd5b612c1b60008383612281565b8060026000828254612c2d91906134bd565b92505081905550806000808473ffffffffffffffffffffffffffffffffffffffff1673ffffffffffffffffffffffffffffffffffffffff1681526020019081526020016000206000828254612c8291906134bd565b925050819055508173ffffffffffffffffffffffffffffffffffffffff16600073ffffffffffffffffffffffffffffffffffffffff167fddf252ad1be2c89b69c2b068fc378daa952ba7f163c4a11628f55a4df523b3ef83604051612ce79190612faa565b60405180910390a3612cfb60008383612286565b5050565b60007bffffffffffffffffffffffffffffffffffffffffffffffffffffffff905090565b505050565b60007bffffffffffffffffffffffffffffffffffffffffffffffffffffffff8016821115612d8b576040517f08c379a0000000000000000000000000000000000000000000000000000000008152600401612d82906143c8565b60405180910390fd5b819050919050565b6040518060400160405280600063ffffffff16815260200160007bffffffffffffffffffffffffffffffffffffffffffffffffffffffff1681525090565b600081519050919050565b600082825260208201905092915050565b60005b83811015612e0b578082015181840152602081019050612df0565b83811115612e1a576000848401525b50505050565b6000601f19601f8301169050919050565b6000612e3c82612dd1565b612e468185612ddc565b9350612e56818560208601612ded565b612e5f81612e20565b840191505092915050565b60006020820190508181036000830152612e848184612e31565b905092915050565b600080fd5b600073ffffffffffffffffffffffffffffffffffffffff82169050919050565b6000612ebc82612e91565b9050919050565b612ecc81612eb1565b8114612ed757600080fd5b50565b600081359050612ee981612ec3565b92915050565b6000819050919050565b612f0281612eef565b8114612f0d57600080fd5b50565b600081359050612f1f81612ef9565b92915050565b60008060408385031215612f3c57612f3b612e8c565b5b6000612f4a85828601612eda565b9250506020612f5b85828601612f10565b9150509250929050565b60008115159050919050565b612f7a81612f65565b82525050565b6000602082019050612f956000830184612f71565b92915050565b612fa481612eef565b82525050565b6000602082019050612fbf6000830184612f9b565b92915050565b600080600060608486031215612fde57612fdd612e8c565b5b6000612fec86828701612eda565b9350506020612ffd86828701612eda565b925050604061300e86828701612f10565b9150509250925092565b60006020828403121561302e5761302d612e8c565b5b600061303c84828501612eda565b91505092915050565b600060ff82169050919050565b61305b81613045565b82525050565b60006020820190506130766000830184613052565b92915050565b6000819050919050565b61308f8161307c565b82525050565b60006020820190506130aa6000830184613086565b92915050565b6130b981612eb1565b82525050565b60006020820190506130d460008301846130b0565b92915050565b600063ffffffff82169050919050565b6130f3816130da565b82525050565b600060208201905061310e60008301846130ea565b92915050565b60006020828403121561312a57613129612e8c565b5b600061313884828501612f10565b91505092915050565b61314a81613045565b811461315557600080fd5b50565b60008135905061316781613141565b92915050565b6131768161307c565b811461318157600080fd5b50565b6000813590506131938161316d565b92915050565b60008060008060008060c087890312156131b6576131b5612e8c565b5b60006131c489828a01612eda565b96505060206131d589828a01612f10565b95505060406131e689828a01612f10565b94505060606131f789828a01613158565b935050608061320889828a01613184565b92505060a061321989828a01613184565b9150509295509295509295565b600080600080600080600060e0888a03121561324557613244612e8c565b5b60006132538a828b01612eda565b97505060206132648a828b01612eda565b96505060406132758a828b01612f10565b95505060606132868a828b01612f10565b94505060806132978a828b01613158565b93505060a06132a88a828b01613184565b92505060c06132b98a828b01613184565b91505092959891949750929550565b600080604083850312156132df576132de612e8c565b5b60006132ed85828601612eda565b92505060206132fe85828601612eda565b9150509250929050565b613311816130da565b811461331c57600080fd5b50565b60008135905061332e81613308565b92915050565b6000806040838503121561334b5761334a612e8c565b5b600061335985828601612eda565b925050602061336a8582860161331f565b9150509250929050565b61337d816130da565b82525050565b60007bffffffffffffffffffffffffffffffffffffffffffffffffffffffff82169050919050565b6133b481613383565b82525050565b6040820160008201516133d06000850182613374565b5060208201516133e360208501826133ab565b50505050565b60006040820190506133fe60008301846133ba565b92915050565b600060408201905061341960008301856130b0565b6134266020830184612f9b565b9392505050565b7f4e487b7100000000000000000000000000000000000000000000000000000000600052602260045260246000fd5b6000600282049050600182168061347457607f821691505b602082108114156134885761348761342d565b5b50919050565b7f4e487b7100000000000000000000000000000000000000000000000000000000600052601160045260246000fd5b60006134c882612eef565b91506134d383612eef565b9250827fffffffffffffffffffffffffffffffffffffffffffffffffffffffffffffffff038211156135085761350761348e565b5b828201905092915050565b7f4552433230566f7465733a20626c6f636b206e6f7420796574206d696e656400600082015250565b6000613549601f83612ddc565b915061355482613513565b602082019050919050565b600060208201905081810360008301526135788161353c565b9050919050565b600081905092915050565b50565b600061359a60008361357f565b91506135a58261358a565b600082019050919050565b60006135bb8261358d565b9150819050919050565b7f4661696c656420746f207472616e7366657220746f2074726561737572790000600082015250565b60006135fb601e83612ddc565b9150613606826135c5565b602082019050919050565b6000602082019050818103600083015261362a816135ee565b9050919050565b600061363c82612eef565b915061364783612eef565b92508282101561365a5761365961348e565b5b828203905092915050565b7f4e487b7100000000000000000000000000000000000000000000000000000000600052603260045260246000fd5b7f45524332303a2064656372656173656420616c6c6f77616e63652062656c6f7760008201527f207a65726f000000000000000000000000000000000000000000000000000000602082015250565b60006136f0602583612ddc565b91506136fb82613694565b604082019050919050565b6000602082019050818103600083015261371f816136e3565b9050919050565b7f4552433230566f7465733a207369676e61747572652065787069726564000000600082015250565b600061375c601d83612ddc565b915061376782613726565b602082019050919050565b6000602082019050818103600083015261378b8161374f565b9050919050565b60006080820190506137a76000830187613086565b6137b460208301866130b0565b6137c16040830185612f9b565b6137ce6060830184612f9b565b95945050505050565b7f4552433230566f7465733a20696e76616c6964206e6f6e636500000000000000600082015250565b600061380d601983612ddc565b9150613818826137d7565b602082019050919050565b6000602082019050818103600083015261383c81613800565b9050919050565b7f45524332305065726d69743a206578706972656420646561646c696e65000000600082015250565b6000613879601d83612ddc565b915061388482613843565b602082019050919050565b600060208201905081810360008301526138a88161386c565b9050919050565b600060c0820190506138c46000830189613086565b6138d160208301886130b0565b6138de60408301876130b0565b6138eb6060830186612f9b565b6138f86080830185612f9b565b61390560a0830184612f9b565b979650505050505050565b7f45524332305065726d69743a20696e76616c6964207369676e61747572650000600082015250565b6000613946601e83612ddc565b915061395182613910565b602082019050919050565b6000602082019050818103600083015261397581613939565b9050919050565b7f4e487b7100000000000000000000000000000000000000000000000000000000600052601260045260246000fd5b60006139b682612eef565b91506139c183612eef565b9250826139d1576139d061397c565b5b828206905092915050565b7f6861766520746f2073656e642061206d756c7469706c65206f66207072696365600082015250565b6000613a12602083612ddc565b9150613a1d826139dc565b602082019050919050565b60006020820190508181036000830152613a4181613a05565b9050919050565b6000613a5382612eef565b9150613a5e83612eef565b925082613a6e57613a6d61397c565b5b828204905092915050565b7f4e6f7420656e6f75676820746f6b656e73206c65667400000000000000000000600082015250565b6000613aaf601683612ddc565b9150613aba82613a79565b602082019050919050565b60006020820190508181036000830152613ade81613aa2565b9050919050565b7f45524332303a20617070726f76652066726f6d20746865207a65726f2061646460008201527f7265737300000000000000000000000000000000000000000000000000000000602082015250565b6000613b41602483612ddc565b9150613b4c82613ae5565b604082019050919050565b60006020820190508181036000830152613b7081613b34565b9050919050565b7f45524332303a20617070726f766520746f20746865207a65726f20616464726560008201527f7373000000000000000000000000000000000000000000000000000000000000602082015250565b6000613bd3602283612ddc565b9150613bde82613b77565b604082019050919050565b60006020820190508181036000830152613c0281613bc6565b9050919050565b7f45524332303a20696e73756666696369656e7420616c6c6f77616e6365000000600082015250565b6000613c3f601d83612ddc565b9150613c4a82613c09565b602082019050919050565b60006020820190508181036000830152613c6e81613c32565b9050919050565b7f45524332303a207472616e736665722066726f6d20746865207a65726f20616460008201527f6472657373000000000000000000000000000000000000000000000000000000602082015250565b6000613cd1602583612ddc565b9150613cdc82613c75565b604082019050919050565b60006020820190508181036000830152613d0081613cc4565b9050919050565b7f45524332303a207472616e7366657220746f20746865207a65726f206164647260008201527f6573730000000000000000000000000000000000000000000000000000000000602082015250565b6000613d63602383612ddc565b9150613d6e82613d07565b604082019050919050565b60006020820190508181036000830152613d9281613d56565b9050919050565b7f45524332303a207472616e7366657220616d6f756e742065786365656473206260008201527f616c616e63650000000000000000000000000000000000000000000000000000602082015250565b6000613df5602683612ddc565b9150613e0082613d99565b604082019050919050565b60006020820190508181036000830152613e2481613de8565b9050919050565b7f53616665436173743a2076616c756520646f65736e27742066697420696e203360008201527f3220626974730000000000000000000000000000000000000000000000000000602082015250565b6000613e87602683612ddc565b9150613e9282613e2b565b604082019050919050565b60006020820190508181036000830152613eb681613e7a565b9050919050565b600060a082019050613ed26000830188613086565b613edf6020830187613086565b613eec6040830186613086565b613ef96060830185612f9b565b613f0660808301846130b0565b9695505050505050565b6000604082019050613f256000830185612f9b565b613f326020830184612f9b565b9392505050565b600081905092915050565b7f1901000000000000000000000000000000000000000000000000000000000000600082015250565b6000613f7a600283613f39565b9150613f8582613f44565b600282019050919050565b6000819050919050565b613fab613fa68261307c565b613f90565b82525050565b6000613fbc82613f6d565b9150613fc88285613f9a565b602082019150613fd88284613f9a565b6020820191508190509392505050565b6000608082019050613ffd6000830187613086565b61400a6020830186613052565b6140176040830185613086565b6140246060830184613086565b95945050505050565b7f4e487b7100000000000000000000000000000000000000000000000000000000600052602160045260246000fd5b7f45434453413a20696e76616c6964207369676e61747572650000000000000000600082015250565b6000614092601883612ddc565b915061409d8261405c565b602082019050919050565b600060208201905081810360008301526140c181614085565b9050919050565b7f45434453413a20696e76616c6964207369676e6174757265206c656e67746800600082015250565b60006140fe601f83612ddc565b9150614109826140c8565b602082019050919050565b6000602082019050818103600083015261412d816140f1565b9050919050565b7f45434453413a20696e76616c6964207369676e6174757265202773272076616c60008201527f7565000000000000000000000000000000000000000000000000000000000000602082015250565b6000614190602283612ddc565b915061419b82614134565b604082019050919050565b600060208201905081810360008301526141bf81614183565b9050919050565b7f45434453413a20696e76616c6964207369676e6174757265202776272076616c60008201527f7565000000000000000000000000000000000000000000000000000000000000602082015250565b6000614222602283612ddc565b915061422d826141c6565b604082019050919050565b6000602082019050818103600083015261425181614215565b9050919050565b7f4552433230566f7465733a20746f74616c20737570706c79207269736b73206f60008201527f766572666c6f77696e6720766f74657300000000000000000000000000000000602082015250565b60006142b4603083612ddc565b91506142bf82614258565b604082019050919050565b600060208201905081810360008301526142e3816142a7565b9050919050565b7f45524332303a206d696e7420746f20746865207a65726f206164647265737300600082015250565b6000614320601f83612ddc565b915061432b826142ea565b602082019050919050565b6000602082019050818103600083015261434f81614313565b9050919050565b7f53616665436173743a2076616c756520646f65736e27742066697420696e203260008201527f3234206269747300000000000000000000000000000000000000000000000000602082015250565b60006143b2602783612ddc565b91506143bd82614356565b604082019050919050565b600060208201905081810360008301526143e1816143a5565b905091905056fea2646970667358221220aece00c8c5163c221aa0b86e23d5163a1831759bad7dd5eeb19a00325f29aa8664736f6c63430008090033",
  "linkReferences": {},
  "deployedLinkReferences": {}
}