{
  "_format": "hh-sol-artifact-1",
  "contractName": "PolyCareNFT",
  "sourceName": "contracts/PolyCareNFT.sol",
  "abi": [
    {
      "inputs": [
        {
          "internalType": "address",
          "name": "_polyCareMain",
          "type": "address"
        }
      ],
      "stateMutability": "nonpayable",
      "type": "constructor"
    },
    {
      "anonymous": false,
      "inputs": [
        {
          "indexed": true,
          "internalType": "address",
          "name": "account",
          "type": "address"
        },
        {
          "indexed": true,
          "internalType": "address",
          "name": "operator",
          "type": "address"
        },
        {
          "indexed": false,
          "internalType": "bool",
          "name": "approved",
          "type": "bool"
        }
      ],
      "name": "ApprovalForAll",
      "type": "event"
    },
    {
      "anonymous": false,
      "inputs": [
        {
          "indexed": true,
          "internalType": "address",
          "name": "user",
          "type": "address"
        },
        {
          "indexed": true,
          "internalType": "uint256",
          "name": "tokenId",
          "type": "uint256"
        },
        {
          "indexed": true,
          "internalType": "uint256",
          "name": "quantity",
          "type": "uint256"
        }
      ],
      "name": "Minted",
      "type": "event"
    },
    {
      "anonymous": false,
      "inputs": [
        {
          "indexed": true,
          "internalType": "uint256",
          "name": "id",
          "type": "uint256"
        },
        {
          "indexed": false,
          "internalType": "uint256",
          "name": "supply",
          "type": "uint256"
        },
        {
          "indexed": false,
          "internalType": "string",
          "name": "cid",
          "type": "string"
        }
      ],
      "name": "TokenAdded",
      "type": "event"
    },
    {
      "anonymous": false,
      "inputs": [
        {
          "indexed": true,
          "internalType": "address",
          "name": "operator",
          "type": "address"
        },
        {
          "indexed": true,
          "internalType": "address",
          "name": "from",
          "type": "address"
        },
        {
          "indexed": true,
          "internalType": "address",
          "name": "to",
          "type": "address"
        },
        {
          "indexed": false,
          "internalType": "uint256[]",
          "name": "ids",
          "type": "uint256[]"
        },
        {
          "indexed": false,
          "internalType": "uint256[]",
          "name": "values",
          "type": "uint256[]"
        }
      ],
      "name": "TransferBatch",
      "type": "event"
    },
    {
      "anonymous": false,
      "inputs": [
        {
          "indexed": true,
          "internalType": "address",
          "name": "operator",
          "type": "address"
        },
        {
          "indexed": true,
          "internalType": "address",
          "name": "from",
          "type": "address"
        },
        {
          "indexed": true,
          "internalType": "address",
          "name": "to",
          "type": "address"
        },
        {
          "indexed": false,
          "internalType": "uint256",
          "name": "id",
          "type": "uint256"
        },
        {
          "indexed": false,
          "internalType": "uint256",
          "name": "value",
          "type": "uint256"
        }
      ],
      "name": "TransferSingle",
      "type": "event"
    },
    {
      "anonymous": false,
      "inputs": [
        {
          "indexed": false,
          "internalType": "string",
          "name": "value",
          "type": "string"
        },
        {
          "indexed": true,
          "internalType": "uint256",
          "name": "id",
          "type": "uint256"
        }
      ],
      "name": "URI",
      "type": "event"
    },
    {
      "inputs": [
        {
          "internalType": "uint256",
          "name": "_totalNumOfTokenstoMint",
          "type": "uint256"
        },
        {
          "internalType": "string",
          "name": "_cid",
          "type": "string"
        }
      ],
      "name": "addToken",
      "outputs": [],
      "stateMutability": "nonpayable",
      "type": "function"
    },
    {
      "inputs": [
        {
          "internalType": "address",
          "name": "account",
          "type": "address"
        },
        {
          "internalType": "uint256",
          "name": "id",
          "type": "uint256"
        }
      ],
      "name": "balanceOf",
      "outputs": [
        {
          "internalType": "uint256",
          "name": "",
          "type": "uint256"
        }
      ],
      "stateMutability": "view",
      "type": "function"
    },
    {
      "inputs": [
        {
          "internalType": "address[]",
          "name": "accounts",
          "type": "address[]"
        },
        {
          "internalType": "uint256[]",
          "name": "ids",
          "type": "uint256[]"
        }
      ],
      "name": "balanceOfBatch",
      "outputs": [
        {
          "internalType": "uint256[]",
          "name": "",
          "type": "uint256[]"
        }
      ],
      "stateMutability": "view",
      "type": "function"
    },
    {
      "inputs": [
        {
          "internalType": "address",
          "name": "account",
          "type": "address"
        },
        {
          "internalType": "address",
          "name": "operator",
          "type": "address"
        }
      ],
      "name": "isApprovedForAll",
      "outputs": [
        {
          "internalType": "bool",
          "name": "",
          "type": "bool"
        }
      ],
      "stateMutability": "view",
      "type": "function"
    },
    {
      "inputs": [
        {
          "internalType": "uint256",
          "name": "id",
          "type": "uint256"
        }
      ],
      "name": "mint",
      "outputs": [],
      "stateMutability": "nonpayable",
      "type": "function"
    },
    {
      "inputs": [
        {
          "internalType": "uint256",
          "name": "",
          "type": "uint256"
        }
      ],
      "name": "minted",
      "outputs": [
        {
          "internalType": "uint256",
          "name": "",
          "type": "uint256"
        }
      ],
      "stateMutability": "view",
      "type": "function"
    },
    {
      "inputs": [
        {
          "internalType": "uint256",
          "name": "_tokenId",
          "type": "uint256"
        }
      ],
      "name": "querySupplyLeft",
      "outputs": [
        {
          "internalType": "uint256",
          "name": "_supply",
          "type": "uint256"
        }
      ],
      "stateMutability": "view",
      "type": "function"
    },
    {
      "inputs": [
        {
          "internalType": "address",
          "name": "from",
          "type": "address"
        },
        {
          "internalType": "address",
          "name": "to",
          "type": "address"
        },
        {
          "internalType": "uint256[]",
          "name": "ids",
          "type": "uint256[]"
        },
        {
          "internalType": "uint256[]",
          "name": "amounts",
          "type": "uint256[]"
        },
        {
          "internalType": "bytes",
          "name": "data",
          "type": "bytes"
        }
      ],
      "name": "safeBatchTransferFrom",
      "outputs": [],
      "stateMutability": "nonpayable",
      "type": "function"
    },
    {
      "inputs": [
        {
          "internalType": "address",
          "name": "from",
          "type": "address"
        },
        {
          "internalType": "address",
          "name": "to",
          "type": "address"
        },
        {
          "internalType": "uint256",
          "name": "id",
          "type": "uint256"
        },
        {
          "internalType": "uint256",
          "name": "amount",
          "type": "uint256"
        },
        {
          "internalType": "bytes",
          "name": "data",
          "type": "bytes"
        }
      ],
      "name": "safeTransferFrom",
      "outputs": [],
      "stateMutability": "nonpayable",
      "type": "function"
    },
    {
      "inputs": [
        {
          "internalType": "address",
          "name": "operator",
          "type": "address"
        },
        {
          "internalType": "bool",
          "name": "approved",
          "type": "bool"
        }
      ],
      "name": "setApprovalForAll",
      "outputs": [],
      "stateMutability": "nonpayable",
      "type": "function"
    },
    {
      "inputs": [
        {
          "internalType": "uint256",
          "name": "",
          "type": "uint256"
        }
      ],
      "name": "supplies",
      "outputs": [
        {
          "internalType": "uint256",
          "name": "",
          "type": "uint256"
        }
      ],
      "stateMutability": "view",
      "type": "function"
    },
    {
      "inputs": [
        {
          "internalType": "bytes4",
          "name": "interfaceId",
          "type": "bytes4"
        }
      ],
      "name": "supportsInterface",
      "outputs": [
        {
          "internalType": "bool",
          "name": "",
          "type": "bool"
        }
      ],
      "stateMutability": "view",
      "type": "function"
    },
    {
      "inputs": [],
      "name": "tokenId",
      "outputs": [
        {
          "internalType": "uint256",
          "name": "",
          "type": "uint256"
        }
      ],
      "stateMutability": "view",
      "type": "function"
    },
    {
      "inputs": [
        {
          "internalType": "uint256",
          "name": "",
          "type": "uint256"
        }
      ],
      "name": "tokens",
      "outputs": [
        {
          "internalType": "uint256",
          "name": "",
          "type": "uint256"
        }
      ],
      "stateMutability": "view",
      "type": "function"
    },
    {
      "inputs": [
        {
          "internalType": "uint256",
          "name": "_tokenId",
          "type": "uint256"
        }
      ],
      "name": "uri",
      "outputs": [
        {
          "internalType": "string",
          "name": "",
          "type": "string"
        }
      ],
      "stateMutability": "view",
      "type": "function"
    }
  ],
  "bytecode": "0x60806040523480156200001157600080fd5b50604051620036e2380380620036e28339818101604052810190620000379190620001e1565b604051806060016040528060278152602001620036bb602791396200006281620000ab60201b60201c565b5080600860006101000a81548173ffffffffffffffffffffffffffffffffffffffff021916908373ffffffffffffffffffffffffffffffffffffffff1602179055505062000278565b8060029080519060200190620000c3929190620000c7565b5050565b828054620000d59062000242565b90600052602060002090601f016020900481019282620000f9576000855562000145565b82601f106200011457805160ff191683800117855562000145565b8280016001018555821562000145579182015b828111156200014457825182559160200191906001019062000127565b5b50905062000154919062000158565b5090565b5b808211156200017357600081600090555060010162000159565b5090565b600080fd5b600073ffffffffffffffffffffffffffffffffffffffff82169050919050565b6000620001a9826200017c565b9050919050565b620001bb816200019c565b8114620001c757600080fd5b50565b600081519050620001db81620001b0565b92915050565b600060208284031215620001fa57620001f962000177565b5b60006200020a84828501620001ca565b91505092915050565b7f4e487b7100000000000000000000000000000000000000000000000000000000600052602260045260246000fd5b600060028204905060018216806200025b57607f821691505b6020821081141562000272576200027162000213565b5b50919050565b61343380620002886000396000f3fe608060405234801561001057600080fd5b50600436106100f45760003560e01c80634e1273f411610097578063a0712d6811610066578063a0712d68146102cf578063a22cb465146102eb578063e985e9c514610307578063f242432a14610337576100f4565b80634e1273f41461020f5780634f64b2be1461023f5780637dc0bf3f1461026f57806389d32b4d1461029f576100f4565b806317d70f7c116100d357806317d70f7c1461018957806326f1a1fd146101a75780632b54c3ce146101d75780632eb2c2d6146101f3576100f4565b8062fdd58e146100f957806301ffc9a7146101295780630e89341c14610159575b600080fd5b610113600480360381019061010e9190611dd6565b610353565b6040516101209190611e25565b60405180910390f35b610143600480360381019061013e9190611e98565b61041c565b6040516101509190611ee0565b60405180910390f35b610173600480360381019061016e9190611efb565b61042e565b6040516101809190611fc1565b60405180910390f35b6101916104f8565b60405161019e9190611e25565b60405180910390f35b6101c160048036038101906101bc9190611efb565b6104fe565b6040516101ce9190611e25565b60405180910390f35b6101f160048036038101906101ec9190612048565b610522565b005b61020d6004803603810190610208919061229b565b61070f565b005b6102296004803603810190610224919061242d565b6107b0565b6040516102369190612563565b60405180910390f35b61025960048036038101906102549190611efb565b6108c9565b6040516102669190611e25565b60405180910390f35b61028960048036038101906102849190611efb565b6108ed565b6040516102969190611e25565b60405180910390f35b6102b960048036038101906102b49190611efb565b610911565b6040516102c69190611e25565b60405180910390f35b6102e960048036038101906102e49190611efb565b610973565b005b610305600480360381019061030091906125b1565b610c7f565b005b610321600480360381019061031c91906125f1565b610c95565b60405161032e9190611ee0565b60405180910390f35b610351600480360381019061034c9190612631565b610d29565b005b60008073ffffffffffffffffffffffffffffffffffffffff168373ffffffffffffffffffffffffffffffffffffffff1614156103c4576040517f08c379a00000000000000000000000000000000000000000000000000000000081526004016103bb9061273a565b60405180910390fd5b60008083815260200190815260200160002060008473ffffffffffffffffffffffffffffffffffffffff1673ffffffffffffffffffffffffffffffffffffffff16815260200190815260200160002054905092915050565b600061042782610dca565b9050919050565b6060600060076000848152602001908152602001600020805461045090612789565b80601f016020809104026020016040519081016040528092919081815260200182805461047c90612789565b80156104c95780601f1061049e576101008083540402835291602001916104c9565b820191906000526020600020905b8154815290600101906020018083116104ac57829003601f168201915b50505050509050806040516020016104e19190612869565b604051602081830303815290604052915050919050565b60065481565b6004818154811061050e57600080fd5b906000526020600020016000915090505481565b60011515600860009054906101000a900473ffffffffffffffffffffffffffffffffffffffff1673ffffffffffffffffffffffffffffffffffffffff16632bc3d7aa336040518263ffffffff1660e01b8152600401610581919061289a565b60206040518083038186803b15801561059957600080fd5b505afa1580156105ad573d6000803e3d6000fd5b505050506040513d601f19601f820116820180604052508101906105d191906128ca565b151514610613576040517f08c379a000000000000000000000000000000000000000000000000000000000815260040161060a90612943565b60405180910390fd5b60066000815461062290612992565b91905081905550600360065490806001815401808255809150506001900390600052602060002001600090919091909150556004839080600181540180825580915050600190039060005260206000200160009091909190915055600560009080600181540180825580915050600190039060005260206000200160009091909190915055818160076000600654815260200190815260200160002091906106cb929190611c8b565b506006547f2bb14104be1eab23c754c27cc01f81c4e0af1438f02809120a9e5100d58963f784848460405161070293929190612a08565b60405180910390a2505050565b610717610eac565b73ffffffffffffffffffffffffffffffffffffffff168573ffffffffffffffffffffffffffffffffffffffff16148061075d575061075c85610757610eac565b610c95565b5b61079c576040517f08c379a000000000000000000000000000000000000000000000000000000000815260040161079390612aac565b60405180910390fd5b6107a98585858585610eb4565b5050505050565b606081518351146107f6576040517f08c379a00000000000000000000000000000000000000000000000000000000081526004016107ed90612b3e565b60405180910390fd5b6000835167ffffffffffffffff811115610813576108126120a8565b5b6040519080825280602002602001820160405280156108415781602001602082028036833780820191505090505b50905060005b84518110156108be5761088e85828151811061086657610865612b5e565b5b602002602001015185838151811061088157610880612b5e565b5b6020026020010151610353565b8282815181106108a1576108a0612b5e565b5b602002602001018181525050806108b790612992565b9050610847565b508091505092915050565b600381815481106108d957600080fd5b906000526020600020016000915090505481565b600581815481106108fd57600080fd5b906000526020600020016000915090505481565b6000806001836109219190612b8d565b90506005818154811061093757610936612b5e565b5b90600052602060002001546004828154811061095657610955612b5e565b5b906000526020600020015461096b9190612b8d565b915050919050565b60011515600860009054906101000a900473ffffffffffffffffffffffffffffffffffffffff1673ffffffffffffffffffffffffffffffffffffffff16632bc3d7aa336040518263ffffffff1660e01b81526004016109d2919061289a565b60206040518083038186803b1580156109ea57600080fd5b505afa1580156109fe573d6000803e3d6000fd5b505050506040513d601f19601f82011682018060405250810190610a2291906128ca565b151514610a64576040517f08c379a0000000000000000000000000000000000000000000000000000000008152600401610a5b90612943565b60405180910390fd5b600480549050811115610aac576040517f08c379a0000000000000000000000000000000000000000000000000000000008152600401610aa390612c0d565b60405180910390fd5b60008111610aef576040517f08c379a0000000000000000000000000000000000000000000000000000000008152600401610ae690612c0d565b60405180910390fd5b6000600182610afe9190612b8d565b905060006001905060048281548110610b1a57610b19612b5e565b5b90600052602060002001548160058481548110610b3a57610b39612b5e565b5b9060005260206000200154610b4f9190612c2d565b1115610b90576040517f08c379a0000000000000000000000000000000000000000000000000000000008152600401610b8790612ccf565b60405180910390fd5b6006610ba5610b9f3386610353565b836111d6565b10610be5576040517f08c379a0000000000000000000000000000000000000000000000000000000008152600401610bdc90612d61565b60405180910390fd5b610c00338483604051806020016040528060008152506111ec565b8060058381548110610c1557610c14612b5e565b5b906000526020600020016000828254610c2e9190612c2d565b9250508190555080833373ffffffffffffffffffffffffffffffffffffffff167f25b428dfde728ccfaddad7e29e4ac23c24ed7fd1a6e3e3f91894a9a073f5dfff60405160405180910390a4505050565b610c91610c8a610eac565b838361139d565b5050565b6000600160008473ffffffffffffffffffffffffffffffffffffffff1673ffffffffffffffffffffffffffffffffffffffff16815260200190815260200160002060008373ffffffffffffffffffffffffffffffffffffffff1673ffffffffffffffffffffffffffffffffffffffff16815260200190815260200160002060009054906101000a900460ff16905092915050565b610d31610eac565b73ffffffffffffffffffffffffffffffffffffffff168573ffffffffffffffffffffffffffffffffffffffff161480610d775750610d7685610d71610eac565b610c95565b5b610db6576040517f08c379a0000000000000000000000000000000000000000000000000000000008152600401610dad90612aac565b60405180910390fd5b610dc3858585858561150a565b5050505050565b60007fd9b67a26000000000000000000000000000000000000000000000000000000007bffffffffffffffffffffffffffffffffffffffffffffffffffffffff1916827bffffffffffffffffffffffffffffffffffffffffffffffffffffffff19161480610e9557507f0e89341c000000000000000000000000000000000000000000000000000000007bffffffffffffffffffffffffffffffffffffffffffffffffffffffff1916827bffffffffffffffffffffffffffffffffffffffffffffffffffffffff1916145b80610ea55750610ea4826117a6565b5b9050919050565b600033905090565b8151835114610ef8576040517f08c379a0000000000000000000000000000000000000000000000000000000008152600401610eef90612df3565b60405180910390fd5b600073ffffffffffffffffffffffffffffffffffffffff168473ffffffffffffffffffffffffffffffffffffffff161415610f68576040517f08c379a0000000000000000000000000000000000000000000000000000000008152600401610f5f90612e85565b60405180910390fd5b6000610f72610eac565b9050610f82818787878787611810565b60005b8451811015611133576000858281518110610fa357610fa2612b5e565b5b602002602001015190506000858381518110610fc257610fc1612b5e565b5b60200260200101519050600080600084815260200190815260200160002060008b73ffffffffffffffffffffffffffffffffffffffff1673ffffffffffffffffffffffffffffffffffffffff16815260200190815260200160002054905081811015611063576040517f08c379a000000000000000000000000000000000000000000000000000000000815260040161105a90612f17565b60405180910390fd5b81810360008085815260200190815260200160002060008c73ffffffffffffffffffffffffffffffffffffffff1673ffffffffffffffffffffffffffffffffffffffff168152602001908152602001600020819055508160008085815260200190815260200160002060008b73ffffffffffffffffffffffffffffffffffffffff1673ffffffffffffffffffffffffffffffffffffffff16815260200190815260200160002060008282546111189190612c2d565b925050819055505050508061112c90612992565b9050610f85565b508473ffffffffffffffffffffffffffffffffffffffff168673ffffffffffffffffffffffffffffffffffffffff168273ffffffffffffffffffffffffffffffffffffffff167f4a39dc06d4c0dbc64b70af90fd698a233a518aa5d07e595d983b8c0526c8f7fb87876040516111aa929190612f37565b60405180910390a46111c0818787878787611818565b6111ce818787878787611820565b505050505050565b600081836111e49190612c2d565b905092915050565b600073ffffffffffffffffffffffffffffffffffffffff168473ffffffffffffffffffffffffffffffffffffffff16141561125c576040517f08c379a000000000000000000000000000000000000000000000000000000000815260040161125390612fe0565b60405180910390fd5b6000611266610eac565b9050600061127385611a07565b9050600061128085611a07565b905061129183600089858589611810565b8460008088815260200190815260200160002060008973ffffffffffffffffffffffffffffffffffffffff1673ffffffffffffffffffffffffffffffffffffffff16815260200190815260200160002060008282546112f09190612c2d565b925050819055508673ffffffffffffffffffffffffffffffffffffffff16600073ffffffffffffffffffffffffffffffffffffffff168473ffffffffffffffffffffffffffffffffffffffff167fc3d58168c5ae7397731d063d5bbf3d657854427343f4c083240f7aacaa2d0f62898960405161136e929190613000565b60405180910390a461138583600089858589611818565b61139483600089898989611a81565b50505050505050565b8173ffffffffffffffffffffffffffffffffffffffff168373ffffffffffffffffffffffffffffffffffffffff16141561140c576040517f08c379a00000000000000000000000000000000000000000000000000000000081526004016114039061309b565b60405180910390fd5b80600160008573ffffffffffffffffffffffffffffffffffffffff1673ffffffffffffffffffffffffffffffffffffffff16815260200190815260200160002060008473ffffffffffffffffffffffffffffffffffffffff1673ffffffffffffffffffffffffffffffffffffffff16815260200190815260200160002060006101000a81548160ff0219169083151502179055508173ffffffffffffffffffffffffffffffffffffffff168373ffffffffffffffffffffffffffffffffffffffff167f17307eab39ab6107e8899845ad3d59bd9653f200f220920489ca2b5937696c31836040516114fd9190611ee0565b60405180910390a3505050565b600073ffffffffffffffffffffffffffffffffffffffff168473ffffffffffffffffffffffffffffffffffffffff16141561157a576040517f08c379a000000000000000000000000000000000000000000000000000000000815260040161157190612e85565b60405180910390fd5b6000611584610eac565b9050600061159185611a07565b9050600061159e85611a07565b90506115ae838989858589611810565b600080600088815260200190815260200160002060008a73ffffffffffffffffffffffffffffffffffffffff1673ffffffffffffffffffffffffffffffffffffffff16815260200190815260200160002054905085811015611645576040517f08c379a000000000000000000000000000000000000000000000000000000000815260040161163c90612f17565b60405180910390fd5b85810360008089815260200190815260200160002060008b73ffffffffffffffffffffffffffffffffffffffff1673ffffffffffffffffffffffffffffffffffffffff168152602001908152602001600020819055508560008089815260200190815260200160002060008a73ffffffffffffffffffffffffffffffffffffffff1673ffffffffffffffffffffffffffffffffffffffff16815260200190815260200160002060008282546116fa9190612c2d565b925050819055508773ffffffffffffffffffffffffffffffffffffffff168973ffffffffffffffffffffffffffffffffffffffff168573ffffffffffffffffffffffffffffffffffffffff167fc3d58168c5ae7397731d063d5bbf3d657854427343f4c083240f7aacaa2d0f628a8a604051611777929190613000565b60405180910390a461178d848a8a86868a611818565b61179b848a8a8a8a8a611a81565b505050505050505050565b60007f01ffc9a7000000000000000000000000000000000000000000000000000000007bffffffffffffffffffffffffffffffffffffffffffffffffffffffff1916827bffffffffffffffffffffffffffffffffffffffffffffffffffffffff1916149050919050565b505050505050565b505050505050565b61183f8473ffffffffffffffffffffffffffffffffffffffff16611c68565b156119ff578373ffffffffffffffffffffffffffffffffffffffff1663bc197c8187878686866040518663ffffffff1660e01b8152600401611885959493929190613110565b602060405180830381600087803b15801561189f57600080fd5b505af19250505080156118d057506040513d601f19601f820116820180604052508101906118cd919061318d565b60015b611976576118dc6131c7565b806308c379a0141561193957506118f16131e9565b806118fc575061193b565b806040517f08c379a00000000000000000000000000000000000000000000000000000000081526004016119309190611fc1565b60405180910390fd5b505b6040517f08c379a000000000000000000000000000000000000000000000000000000000815260040161196d906132f1565b60405180910390fd5b63bc197c8160e01b7bffffffffffffffffffffffffffffffffffffffffffffffffffffffff1916817bffffffffffffffffffffffffffffffffffffffffffffffffffffffff1916146119fd576040517f08c379a00000000000000000000000000000000000000000000000000000000081526004016119f490613383565b60405180910390fd5b505b505050505050565b60606000600167ffffffffffffffff811115611a2657611a256120a8565b5b604051908082528060200260200182016040528015611a545781602001602082028036833780820191505090505b5090508281600081518110611a6c57611a6b612b5e565b5b60200260200101818152505080915050919050565b611aa08473ffffffffffffffffffffffffffffffffffffffff16611c68565b15611c60578373ffffffffffffffffffffffffffffffffffffffff1663f23a6e6187878686866040518663ffffffff1660e01b8152600401611ae69594939291906133a3565b602060405180830381600087803b158015611b0057600080fd5b505af1925050508015611b3157506040513d601f19601f82011682018060405250810190611b2e919061318d565b60015b611bd757611b3d6131c7565b806308c379a01415611b9a5750611b526131e9565b80611b5d5750611b9c565b806040517f08c379a0000000000000000000000000000000000000000000000000000000008152600401611b919190611fc1565b60405180910390fd5b505b6040517f08c379a0000000000000000000000000000000000000000000000000000000008152600401611bce906132f1565b60405180910390fd5b63f23a6e6160e01b7bffffffffffffffffffffffffffffffffffffffffffffffffffffffff1916817bffffffffffffffffffffffffffffffffffffffffffffffffffffffff191614611c5e576040517f08c379a0000000000000000000000000000000000000000000000000000000008152600401611c5590613383565b60405180910390fd5b505b505050505050565b6000808273ffffffffffffffffffffffffffffffffffffffff163b119050919050565b828054611c9790612789565b90600052602060002090601f016020900481019282611cb95760008555611d00565b82601f10611cd257803560ff1916838001178555611d00565b82800160010185558215611d00579182015b82811115611cff578235825591602001919060010190611ce4565b5b509050611d0d9190611d11565b5090565b5b80821115611d2a576000816000905550600101611d12565b5090565b6000604051905090565b600080fd5b600080fd5b600073ffffffffffffffffffffffffffffffffffffffff82169050919050565b6000611d6d82611d42565b9050919050565b611d7d81611d62565b8114611d8857600080fd5b50565b600081359050611d9a81611d74565b92915050565b6000819050919050565b611db381611da0565b8114611dbe57600080fd5b50565b600081359050611dd081611daa565b92915050565b60008060408385031215611ded57611dec611d38565b5b6000611dfb85828601611d8b565b9250506020611e0c85828601611dc1565b9150509250929050565b611e1f81611da0565b82525050565b6000602082019050611e3a6000830184611e16565b92915050565b60007fffffffff0000000000000000000000000000000000000000000000000000000082169050919050565b611e7581611e40565b8114611e8057600080fd5b50565b600081359050611e9281611e6c565b92915050565b600060208284031215611eae57611ead611d38565b5b6000611ebc84828501611e83565b91505092915050565b60008115159050919050565b611eda81611ec5565b82525050565b6000602082019050611ef56000830184611ed1565b92915050565b600060208284031215611f1157611f10611d38565b5b6000611f1f84828501611dc1565b91505092915050565b600081519050919050565b600082825260208201905092915050565b60005b83811015611f62578082015181840152602081019050611f47565b83811115611f71576000848401525b50505050565b6000601f19601f8301169050919050565b6000611f9382611f28565b611f9d8185611f33565b9350611fad818560208601611f44565b611fb681611f77565b840191505092915050565b60006020820190508181036000830152611fdb8184611f88565b905092915050565b600080fd5b600080fd5b600080fd5b60008083601f84011261200857612007611fe3565b5b8235905067ffffffffffffffff81111561202557612024611fe8565b5b60208301915083600182028301111561204157612040611fed565b5b9250929050565b60008060006040848603121561206157612060611d38565b5b600061206f86828701611dc1565b935050602084013567ffffffffffffffff8111156120905761208f611d3d565b5b61209c86828701611ff2565b92509250509250925092565b7f4e487b7100000000000000000000000000000000000000000000000000000000600052604160045260246000fd5b6120e082611f77565b810181811067ffffffffffffffff821117156120ff576120fe6120a8565b5b80604052505050565b6000612112611d2e565b905061211e82826120d7565b919050565b600067ffffffffffffffff82111561213e5761213d6120a8565b5b602082029050602081019050919050565b600061216261215d84612123565b612108565b9050808382526020820190506020840283018581111561218557612184611fed565b5b835b818110156121ae578061219a8882611dc1565b845260208401935050602081019050612187565b5050509392505050565b600082601f8301126121cd576121cc611fe3565b5b81356121dd84826020860161214f565b91505092915050565b600080fd5b600067ffffffffffffffff821115612206576122056120a8565b5b61220f82611f77565b9050602081019050919050565b82818337600083830152505050565b600061223e612239846121eb565b612108565b90508281526020810184848401111561225a576122596121e6565b5b61226584828561221c565b509392505050565b600082601f83011261228257612281611fe3565b5b813561229284826020860161222b565b91505092915050565b600080600080600060a086880312156122b7576122b6611d38565b5b60006122c588828901611d8b565b95505060206122d688828901611d8b565b945050604086013567ffffffffffffffff8111156122f7576122f6611d3d565b5b612303888289016121b8565b935050606086013567ffffffffffffffff81111561232457612323611d3d565b5b612330888289016121b8565b925050608086013567ffffffffffffffff81111561235157612350611d3d565b5b61235d8882890161226d565b9150509295509295909350565b600067ffffffffffffffff821115612385576123846120a8565b5b602082029050602081019050919050565b60006123a96123a48461236a565b612108565b905080838252602082019050602084028301858111156123cc576123cb611fed565b5b835b818110156123f557806123e18882611d8b565b8452602084019350506020810190506123ce565b5050509392505050565b600082601f83011261241457612413611fe3565b5b8135612424848260208601612396565b91505092915050565b6000806040838503121561244457612443611d38565b5b600083013567ffffffffffffffff81111561246257612461611d3d565b5b61246e858286016123ff565b925050602083013567ffffffffffffffff81111561248f5761248e611d3d565b5b61249b858286016121b8565b9150509250929050565b600081519050919050565b600082825260208201905092915050565b6000819050602082019050919050565b6124da81611da0565b82525050565b60006124ec83836124d1565b60208301905092915050565b6000602082019050919050565b6000612510826124a5565b61251a81856124b0565b9350612525836124c1565b8060005b8381101561255657815161253d88826124e0565b9750612548836124f8565b925050600181019050612529565b5085935050505092915050565b6000602082019050818103600083015261257d8184612505565b905092915050565b61258e81611ec5565b811461259957600080fd5b50565b6000813590506125ab81612585565b92915050565b600080604083850312156125c8576125c7611d38565b5b60006125d685828601611d8b565b92505060206125e78582860161259c565b9150509250929050565b6000806040838503121561260857612607611d38565b5b600061261685828601611d8b565b925050602061262785828601611d8b565b9150509250929050565b600080600080600060a0868803121561264d5761264c611d38565b5b600061265b88828901611d8b565b955050602061266c88828901611d8b565b945050604061267d88828901611dc1565b935050606061268e88828901611dc1565b925050608086013567ffffffffffffffff8111156126af576126ae611d3d565b5b6126bb8882890161226d565b9150509295509295909350565b7f455243313135353a2061646472657373207a65726f206973206e6f742061207660008201527f616c6964206f776e657200000000000000000000000000000000000000000000602082015250565b6000612724602a83611f33565b915061272f826126c8565b604082019050919050565b6000602082019050818103600083015261275381612717565b9050919050565b7f4e487b7100000000000000000000000000000000000000000000000000000000600052602260045260246000fd5b600060028204905060018216806127a157607f821691505b602082108114156127b5576127b461275a565b5b50919050565b600081905092915050565b7f68747470733a2f2f676174657761792e70696e6174612e636c6f75642f69706660008201527f732f000000000000000000000000000000000000000000000000000000000000602082015250565b60006128226022836127bb565b915061282d826127c6565b602282019050919050565b600061284382611f28565b61284d81856127bb565b935061285d818560208601611f44565b80840191505092915050565b600061287482612815565b91506128808284612838565b915081905092915050565b61289481611d62565b82525050565b60006020820190506128af600083018461288b565b92915050565b6000815190506128c481612585565b92915050565b6000602082840312156128e0576128df611d38565b5b60006128ee848285016128b5565b91505092915050565b7f596f752068617665206e6f7420646f6e6174656420746f20506f6c7943617265600082015250565b600061292d602083611f33565b9150612938826128f7565b602082019050919050565b6000602082019050818103600083015261295c81612920565b9050919050565b7f4e487b7100000000000000000000000000000000000000000000000000000000600052601160045260246000fd5b600061299d82611da0565b91507fffffffffffffffffffffffffffffffffffffffffffffffffffffffffffffffff8214156129d0576129cf612963565b5b600182019050919050565b60006129e78385611f33565b93506129f483858461221c565b6129fd83611f77565b840190509392505050565b6000604082019050612a1d6000830186611e16565b8181036020830152612a308184866129db565b9050949350505050565b7f455243313135353a2063616c6c6572206973206e6f7420746f6b656e206f776e60008201527f6572206e6f7220617070726f7665640000000000000000000000000000000000602082015250565b6000612a96602f83611f33565b9150612aa182612a3a565b604082019050919050565b60006020820190508181036000830152612ac581612a89565b9050919050565b7f455243313135353a206163636f756e747320616e6420696473206c656e67746860008201527f206d69736d617463680000000000000000000000000000000000000000000000602082015250565b6000612b28602983611f33565b9150612b3382612acc565b604082019050919050565b60006020820190508181036000830152612b5781612b1b565b9050919050565b7f4e487b7100000000000000000000000000000000000000000000000000000000600052603260045260246000fd5b6000612b9882611da0565b9150612ba383611da0565b925082821015612bb657612bb5612963565b5b828203905092915050565b7f496e76616c696420546f6b656e20496400000000000000000000000000000000600082015250565b6000612bf7601083611f33565b9150612c0282612bc1565b602082019050919050565b60006020820190508181036000830152612c2681612bea565b9050919050565b6000612c3882611da0565b9150612c4383611da0565b9250827fffffffffffffffffffffffffffffffffffffffffffffffffffffffffffffffff03821115612c7857612c77612963565b5b828201905092915050565b7f4e6f7420656e6f75676820737570706c79000000000000000000000000000000600082015250565b6000612cb9601183611f33565b9150612cc482612c83565b602082019050919050565b60006020820190508181036000830152612ce881612cac565b9050919050565b7f596f752063616e206f6e6c79206d696e74207570746f2035204e46547320666f60008201527f72206120676976656e2069640000000000000000000000000000000000000000602082015250565b6000612d4b602c83611f33565b9150612d5682612cef565b604082019050919050565b60006020820190508181036000830152612d7a81612d3e565b9050919050565b7f455243313135353a2069647320616e6420616d6f756e7473206c656e6774682060008201527f6d69736d61746368000000000000000000000000000000000000000000000000602082015250565b6000612ddd602883611f33565b9150612de882612d81565b604082019050919050565b60006020820190508181036000830152612e0c81612dd0565b9050919050565b7f455243313135353a207472616e7366657220746f20746865207a65726f20616460008201527f6472657373000000000000000000000000000000000000000000000000000000602082015250565b6000612e6f602583611f33565b9150612e7a82612e13565b604082019050919050565b60006020820190508181036000830152612e9e81612e62565b9050919050565b7f455243313135353a20696e73756666696369656e742062616c616e636520666f60008201527f72207472616e7366657200000000000000000000000000000000000000000000602082015250565b6000612f01602a83611f33565b9150612f0c82612ea5565b604082019050919050565b60006020820190508181036000830152612f3081612ef4565b9050919050565b60006040820190508181036000830152612f518185612505565b90508181036020830152612f658184612505565b90509392505050565b7f455243313135353a206d696e7420746f20746865207a65726f2061646472657360008201527f7300000000000000000000000000000000000000000000000000000000000000602082015250565b6000612fca602183611f33565b9150612fd582612f6e565b604082019050919050565b60006020820190508181036000830152612ff981612fbd565b9050919050565b60006040820190506130156000830185611e16565b6130226020830184611e16565b9392505050565b7f455243313135353a2073657474696e6720617070726f76616c2073746174757360008201527f20666f722073656c660000000000000000000000000000000000000000000000602082015250565b6000613085602983611f33565b915061309082613029565b604082019050919050565b600060208201905081810360008301526130b481613078565b9050919050565b600081519050919050565b600082825260208201905092915050565b60006130e2826130bb565b6130ec81856130c6565b93506130fc818560208601611f44565b61310581611f77565b840191505092915050565b600060a082019050613125600083018861288b565b613132602083018761288b565b81810360408301526131448186612505565b905081810360608301526131588185612505565b9050818103608083015261316c81846130d7565b90509695505050505050565b60008151905061318781611e6c565b92915050565b6000602082840312156131a3576131a2611d38565b5b60006131b184828501613178565b91505092915050565b60008160e01c9050919050565b600060033d11156131e65760046000803e6131e36000516131ba565b90505b90565b600060443d10156131f95761327c565b613201611d2e565b60043d036004823e80513d602482011167ffffffffffffffff8211171561322957505061327c565b808201805167ffffffffffffffff811115613247575050505061327c565b80602083010160043d03850181111561326457505050505061327c565b613273826020018501866120d7565b82955050505050505b90565b7f455243313135353a207472616e7366657220746f206e6f6e204552433131353560008201527f526563656976657220696d706c656d656e746572000000000000000000000000602082015250565b60006132db603483611f33565b91506132e68261327f565b604082019050919050565b6000602082019050818103600083015261330a816132ce565b9050919050565b7f455243313135353a204552433131353552656365697665722072656a6563746560008201527f6420746f6b656e73000000000000000000000000000000000000000000000000602082015250565b600061336d602883611f33565b915061337882613311565b604082019050919050565b6000602082019050818103600083015261339c81613360565b9050919050565b600060a0820190506133b8600083018861288b565b6133c5602083018761288b565b6133d26040830186611e16565b6133df6060830185611e16565b81810360808301526133f181846130d7565b9050969550505050505056fea26469706673582212202775313394aca5bb250e349352b4b7c815edcfeefc3fb9ae45331f407f7ce79564736f6c6343000809003368747470733a2f2f676174657761792e70696e6174612e636c6f75642f697066732f7b4349447d",
  "linkReferences": {},
  "deployedLinkReferences": {}
}