{
  "_format": "hh-sol-artifact-1",
  "contractName": "Treasury",
  "sourceName": "contracts/Treasury.sol",
  "abi": [
    {
      "anonymous": false,
      "inputs": [
        {
          "indexed": false,
          "internalType": "uint256",
          "name": "ProposalID",
          "type": "uint256"
        },
        {
          "indexed": false,
          "internalType": "address",
          "name": "To",
          "type": "address"
        },
        {
          "indexed": false,
          "internalType": "uint256",
          "name": "Amount",
          "type": "uint256"
        }
      ],
      "name": "FundsReleased",
      "type": "event"
    },
    {
      "anonymous": false,
      "inputs": [
        {
          "indexed": true,
          "internalType": "address",
          "name": "previousOwner",
          "type": "address"
        },
        {
          "indexed": true,
          "internalType": "address",
          "name": "newOwner",
          "type": "address"
        }
      ],
      "name": "OwnershipTransferred",
      "type": "event"
    },
    {
      "anonymous": false,
      "inputs": [
        {
          "indexed": false,
          "internalType": "address",
          "name": "",
          "type": "address"
        },
        {
          "indexed": false,
          "internalType": "uint256",
          "name": "",
          "type": "uint256"
        }
      ],
      "name": "Received",
      "type": "event"
    },
    {
      "inputs": [],
      "name": "contractBalance",
      "outputs": [
        {
          "internalType": "uint256",
          "name": "",
          "type": "uint256"
        }
      ],
      "stateMutability": "view",
      "type": "function"
    },
    {
      "inputs": [
        {
          "internalType": "uint256",
          "name": "_proposalId",
          "type": "uint256"
        }
      ],
      "name": "getIdInfo",
      "outputs": [
        {
          "internalType": "string",
          "name": "_name",
          "type": "string"
        }
      ],
      "stateMutability": "view",
      "type": "function"
    },
    {
      "inputs": [
        {
          "internalType": "uint256",
          "name": "",
          "type": "uint256"
        }
      ],
      "name": "idName",
      "outputs": [
        {
          "internalType": "string",
          "name": "",
          "type": "string"
        }
      ],
      "stateMutability": "view",
      "type": "function"
    },
    {
      "inputs": [
        {
          "internalType": "uint256",
          "name": "",
          "type": "uint256"
        }
      ],
      "name": "idPayment",
      "outputs": [
        {
          "internalType": "bool",
          "name": "",
          "type": "bool"
        }
      ],
      "stateMutability": "view",
      "type": "function"
    },
    {
      "inputs": [
        {
          "internalType": "address",
          "name": "",
          "type": "address"
        }
      ],
      "name": "institutionAmount",
      "outputs": [
        {
          "internalType": "uint256",
          "name": "",
          "type": "uint256"
        }
      ],
      "stateMutability": "view",
      "type": "function"
    },
    {
      "inputs": [
        {
          "internalType": "uint256",
          "name": "_proposalId",
          "type": "uint256"
        }
      ],
      "name": "isValidProposalId",
      "outputs": [
        {
          "internalType": "bool",
          "name": "",
          "type": "bool"
        }
      ],
      "stateMutability": "view",
      "type": "function"
    },
    {
      "inputs": [],
      "name": "owner",
      "outputs": [
        {
          "internalType": "address",
          "name": "",
          "type": "address"
        }
      ],
      "stateMutability": "view",
      "type": "function"
    },
    {
      "inputs": [
        {
          "internalType": "uint256",
          "name": "",
          "type": "uint256"
        }
      ],
      "name": "proposalId",
      "outputs": [
        {
          "internalType": "uint256",
          "name": "",
          "type": "uint256"
        }
      ],
      "stateMutability": "view",
      "type": "function"
    },
    {
      "inputs": [
        {
          "internalType": "uint256",
          "name": "_proposalId",
          "type": "uint256"
        },
        {
          "internalType": "address payable",
          "name": "_to",
          "type": "address"
        },
        {
          "internalType": "string",
          "name": "_name",
          "type": "string"
        },
        {
          "internalType": "uint256",
          "name": "_amount",
          "type": "uint256"
        }
      ],
      "name": "releaseFunds",
      "outputs": [],
      "stateMutability": "nonpayable",
      "type": "function"
    },
    {
      "inputs": [],
      "name": "releasedAmt",
      "outputs": [
        {
          "internalType": "uint256",
          "name": "",
          "type": "uint256"
        }
      ],
      "stateMutability": "view",
      "type": "function"
    },
    {
      "inputs": [],
      "name": "renounceOwnership",
      "outputs": [],
      "stateMutability": "nonpayable",
      "type": "function"
    },
    {
      "inputs": [],
      "name": "totalDonationAmt",
      "outputs": [
        {
          "internalType": "uint256",
          "name": "",
          "type": "uint256"
        }
      ],
      "stateMutability": "view",
      "type": "function"
    },
    {
      "inputs": [
        {
          "internalType": "address",
          "name": "newOwner",
          "type": "address"
        }
      ],
      "name": "transferOwnership",
      "outputs": [],
      "stateMutability": "nonpayable",
      "type": "function"
    },
    {
      "stateMutability": "payable",
      "type": "receive"
    }
  ],
  "bytecode": "0x608060405234801561001057600080fd5b5061002d61002261003260201b60201c565b61003a60201b60201c565b6100fe565b600033905090565b60008060009054906101000a900473ffffffffffffffffffffffffffffffffffffffff169050816000806101000a81548173ffffffffffffffffffffffffffffffffffffffff021916908373ffffffffffffffffffffffffffffffffffffffff1602179055508173ffffffffffffffffffffffffffffffffffffffff168173ffffffffffffffffffffffffffffffffffffffff167f8be0079c531659141344cd1fd0a4f28419497f9722a3daafe3b4186f6b6457e060405160405180910390a35050565b6113488061010d6000396000f3fe6080604052600436106100d65760003560e01c8063ba493d521161007f578063ddcf88e011610059578063ddcf88e0146102fd578063f2fde38b14610328578063f618492714610351578063fd2c0b7e1461037a5761012f565b8063ba493d5214610258578063cc30447414610283578063d6260478146102c05761012f565b80638b7afe2e116100b05780638b7afe2e146101c55780638da5cb5b146101f0578063b77894dd1461021b5761012f565b80630cb0593914610134578063361ad97914610171578063715018a6146101ae5761012f565b3661012f5734600260008282546100ed9190610b3e565b925050819055507f88a5966d370b9919b20f3e2c13ff65706f196a4e32cc2c12bf57088f885258743334604051610125929190610be4565b60405180910390a1005b600080fd5b34801561014057600080fd5b5061015b60048036038101906101569190610c43565b6103b7565b6040516101689190610c8b565b60405180910390f35b34801561017d57600080fd5b5061019860048036038101906101939190610c43565b61041a565b6040516101a59190610d3f565b60405180910390f35b3480156101ba57600080fd5b506101c36104bf565b005b3480156101d157600080fd5b506101da6104d3565b6040516101e79190610d61565b60405180910390f35b3480156101fc57600080fd5b506102056104db565b6040516102129190610d7c565b60405180910390f35b34801561022757600080fd5b50610242600480360381019061023d9190610c43565b610504565b60405161024f9190610d3f565b60405180910390f35b34801561026457600080fd5b5061026d6105a4565b60405161027a9190610d61565b60405180910390f35b34801561028f57600080fd5b506102aa60048036038101906102a59190610c43565b6105aa565b6040516102b79190610c8b565b60405180910390f35b3480156102cc57600080fd5b506102e760048036038101906102e29190610c43565b6105ca565b6040516102f49190610d61565b60405180910390f35b34801561030957600080fd5b506103126105ee565b60405161031f9190610d61565b60405180910390f35b34801561033457600080fd5b5061034f600480360381019061034a9190610dc3565b6105f4565b005b34801561035d57600080fd5b5061037860048036038101906103739190610e93565b610678565b005b34801561038657600080fd5b506103a1600480360381019061039c9190610dc3565b610900565b6040516103ae9190610d61565b60405180910390f35b600080600090505b60018054905081101561040f57600181815481106103e0576103df610f1b565b5b90600052602060002001548314156103fc576001915050610415565b808061040790610f4a565b9150506103bf565b50600090505b919050565b606060066000838152602001908152602001600020805461043a90610fc2565b80601f016020809104026020016040519081016040528092919081815260200182805461046690610fc2565b80156104b35780601f10610488576101008083540402835291602001916104b3565b820191906000526020600020905b81548152906001019060200180831161049657829003601f168201915b50505050509050919050565b6104c7610918565b6104d16000610996565b565b600047905090565b60008060009054906101000a900473ffffffffffffffffffffffffffffffffffffffff16905090565b6006602052806000526040600020600091509050805461052390610fc2565b80601f016020809104026020016040519081016040528092919081815260200182805461054f90610fc2565b801561059c5780601f106105715761010080835404028352916020019161059c565b820191906000526020600020905b81548152906001019060200180831161057f57829003601f168201915b505050505081565b60035481565b60056020528060005260406000206000915054906101000a900460ff1681565b600181815481106105da57600080fd5b906000526020600020016000915090505481565b60025481565b6105fc610918565b600073ffffffffffffffffffffffffffffffffffffffff168173ffffffffffffffffffffffffffffffffffffffff16141561066c576040517f08c379a000000000000000000000000000000000000000000000000000000000815260040161066390611066565b60405180910390fd5b61067581610996565b50565b610680610918565b804710156106c3576040517f08c379a00000000000000000000000000000000000000000000000000000000081526004016106ba906110d2565b60405180910390fd5b600015156005600087815260200190815260200160002060009054906101000a900460ff1615151461072a576040517f08c379a00000000000000000000000000000000000000000000000000000000081526004016107219061113e565b60405180910390fd5b60016005600087815260200190815260200160002060006101000a81548160ff021916908315150217905550600185908060018154018082558091505060019003906000526020600020016000909190919091505560008473ffffffffffffffffffffffffffffffffffffffff16826040516107a59061118f565b60006040518083038185875af1925050503d80600081146107e2576040519150601f19603f3d011682016040523d82523d6000602084013e6107e7565b606091505b505090508061082b576040517f08c379a0000000000000000000000000000000000000000000000000000000008152600401610822906111f0565b60405180910390fd5b81600460008773ffffffffffffffffffffffffffffffffffffffff1673ffffffffffffffffffffffffffffffffffffffff168152602001908152602001600020600082825461087a9190610b3e565b9250508190555083836006600089815260200190815260200160002091906108a3929190610a62565b5081600360008282546108b69190610b3e565b925050819055507f6e3c6096795c8298a218b2cfb8bde42726ff7c9a3d27b4d3ba41ab7f74feb5fb8686846040516108f09392919061126f565b60405180910390a1505050505050565b60046020528060005260406000206000915090505481565b610920610a5a565b73ffffffffffffffffffffffffffffffffffffffff1661093e6104db565b73ffffffffffffffffffffffffffffffffffffffff1614610994576040517f08c379a000000000000000000000000000000000000000000000000000000000815260040161098b906112f2565b60405180910390fd5b565b60008060009054906101000a900473ffffffffffffffffffffffffffffffffffffffff169050816000806101000a81548173ffffffffffffffffffffffffffffffffffffffff021916908373ffffffffffffffffffffffffffffffffffffffff1602179055508173ffffffffffffffffffffffffffffffffffffffff168173ffffffffffffffffffffffffffffffffffffffff167f8be0079c531659141344cd1fd0a4f28419497f9722a3daafe3b4186f6b6457e060405160405180910390a35050565b600033905090565b828054610a6e90610fc2565b90600052602060002090601f016020900481019282610a905760008555610ad7565b82601f10610aa957803560ff1916838001178555610ad7565b82800160010185558215610ad7579182015b82811115610ad6578235825591602001919060010190610abb565b5b509050610ae49190610ae8565b5090565b5b80821115610b01576000816000905550600101610ae9565b5090565b6000819050919050565b7f4e487b7100000000000000000000000000000000000000000000000000000000600052601160045260246000fd5b6000610b4982610b05565b9150610b5483610b05565b9250827fffffffffffffffffffffffffffffffffffffffffffffffffffffffffffffffff03821115610b8957610b88610b0f565b5b828201905092915050565b600073ffffffffffffffffffffffffffffffffffffffff82169050919050565b6000610bbf82610b94565b9050919050565b610bcf81610bb4565b82525050565b610bde81610b05565b82525050565b6000604082019050610bf96000830185610bc6565b610c066020830184610bd5565b9392505050565b600080fd5b600080fd5b610c2081610b05565b8114610c2b57600080fd5b50565b600081359050610c3d81610c17565b92915050565b600060208284031215610c5957610c58610c0d565b5b6000610c6784828501610c2e565b91505092915050565b60008115159050919050565b610c8581610c70565b82525050565b6000602082019050610ca06000830184610c7c565b92915050565b600081519050919050565b600082825260208201905092915050565b60005b83811015610ce0578082015181840152602081019050610cc5565b83811115610cef576000848401525b50505050565b6000601f19601f8301169050919050565b6000610d1182610ca6565b610d1b8185610cb1565b9350610d2b818560208601610cc2565b610d3481610cf5565b840191505092915050565b60006020820190508181036000830152610d598184610d06565b905092915050565b6000602082019050610d766000830184610bd5565b92915050565b6000602082019050610d916000830184610bc6565b92915050565b610da081610bb4565b8114610dab57600080fd5b50565b600081359050610dbd81610d97565b92915050565b600060208284031215610dd957610dd8610c0d565b5b6000610de784828501610dae565b91505092915050565b6000610dfb82610b94565b9050919050565b610e0b81610df0565b8114610e1657600080fd5b50565b600081359050610e2881610e02565b92915050565b600080fd5b600080fd5b600080fd5b60008083601f840112610e5357610e52610e2e565b5b8235905067ffffffffffffffff811115610e7057610e6f610e33565b5b602083019150836001820283011115610e8c57610e8b610e38565b5b9250929050565b600080600080600060808688031215610eaf57610eae610c0d565b5b6000610ebd88828901610c2e565b9550506020610ece88828901610e19565b945050604086013567ffffffffffffffff811115610eef57610eee610c12565b5b610efb88828901610e3d565b93509350506060610f0e88828901610c2e565b9150509295509295909350565b7f4e487b7100000000000000000000000000000000000000000000000000000000600052603260045260246000fd5b6000610f5582610b05565b91507fffffffffffffffffffffffffffffffffffffffffffffffffffffffffffffffff821415610f8857610f87610b0f565b5b600182019050919050565b7f4e487b7100000000000000000000000000000000000000000000000000000000600052602260045260246000fd5b60006002820490506001821680610fda57607f821691505b60208210811415610fee57610fed610f93565b5b50919050565b7f4f776e61626c653a206e6577206f776e657220697320746865207a65726f206160008201527f6464726573730000000000000000000000000000000000000000000000000000602082015250565b6000611050602683610cb1565b915061105b82610ff4565b604082019050919050565b6000602082019050818103600083015261107f81611043565b9050919050565b7f4e6f7420656e6f7567682066756e647300000000000000000000000000000000600082015250565b60006110bc601083610cb1565b91506110c782611086565b602082019050919050565b600060208201905081810360008301526110eb816110af565b9050919050565b7f5061796d656e7420616c72656164792070726f63657373656400000000000000600082015250565b6000611128601983610cb1565b9150611133826110f2565b602082019050919050565b600060208201905081810360008301526111578161111b565b9050919050565b600081905092915050565b50565b600061117960008361115e565b915061118482611169565b600082019050919050565b600061119a8261116c565b9150819050919050565b7f4661696c656420746f2073656e6420646f6e6174696f6e000000000000000000600082015250565b60006111da601783610cb1565b91506111e5826111a4565b602082019050919050565b60006020820190508181036000830152611209816111cd565b9050919050565b6000819050919050565b600061123561123061122b84610b94565b611210565b610b94565b9050919050565b60006112478261121a565b9050919050565b60006112598261123c565b9050919050565b6112698161124e565b82525050565b60006060820190506112846000830186610bd5565b6112916020830185611260565b61129e6040830184610bd5565b949350505050565b7f4f776e61626c653a2063616c6c6572206973206e6f7420746865206f776e6572600082015250565b60006112dc602083610cb1565b91506112e7826112a6565b602082019050919050565b6000602082019050818103600083015261130b816112cf565b905091905056fea26469706673582212204b4a438b8389bde3042d56d8f456583429336a0ecdcffcd711249acf0e3b050364736f6c63430008090033",
  "linkReferences": {},
  "deployedLinkReferences": {}
}