{
  "_format": "hh-sol-artifact-1",
  "contractName": "Treasury",
  "sourceName": "contracts/Treasury.sol",
  "abi": [
    {
      "anonymous": false,
      "inputs": [
        {
          "indexed": false,
          "internalType": "uint256",
          "name": "ProposalID",
          "type": "uint256"
        },
        {
          "indexed": false,
          "internalType": "address",
          "name": "To",
          "type": "address"
        },
        {
          "indexed": false,
          "internalType": "uint256",
          "name": "Amount",
          "type": "uint256"
        }
      ],
      "name": "FundsReleased",
      "type": "event"
    },
    {
      "anonymous": false,
      "inputs": [
        {
          "indexed": true,
          "internalType": "address",
          "name": "previousOwner",
          "type": "address"
        },
        {
          "indexed": true,
          "internalType": "address",
          "name": "newOwner",
          "type": "address"
        }
      ],
      "name": "OwnershipTransferred",
      "type": "event"
    },
    {
      "anonymous": false,
      "inputs": [
        {
          "indexed": false,
          "internalType": "address",
          "name": "",
          "type": "address"
        },
        {
          "indexed": false,
          "internalType": "uint256",
          "name": "",
          "type": "uint256"
        }
      ],
      "name": "Received",
      "type": "event"
    },
    {
      "inputs": [],
      "name": "contractBalance",
      "outputs": [
        {
          "internalType": "uint256",
          "name": "",
          "type": "uint256"
        }
      ],
      "stateMutability": "view",
      "type": "function"
    },
    {
      "inputs": [
        {
          "internalType": "uint256",
          "name": "_proposalId",
          "type": "uint256"
        }
      ],
      "name": "getIdInfo",
      "outputs": [
        {
          "internalType": "string",
          "name": "_name",
          "type": "string"
        }
      ],
      "stateMutability": "view",
      "type": "function"
    },
    {
      "inputs": [
        {
          "internalType": "uint256",
          "name": "",
          "type": "uint256"
        }
      ],
      "name": "idName",
      "outputs": [
        {
          "internalType": "string",
          "name": "",
          "type": "string"
        }
      ],
      "stateMutability": "view",
      "type": "function"
    },
    {
      "inputs": [
        {
          "internalType": "uint256",
          "name": "",
          "type": "uint256"
        }
      ],
      "name": "idPayment",
      "outputs": [
        {
          "internalType": "bool",
          "name": "",
          "type": "bool"
        }
      ],
      "stateMutability": "view",
      "type": "function"
    },
    {
      "inputs": [
        {
          "internalType": "address",
          "name": "",
          "type": "address"
        }
      ],
      "name": "institutionAmount",
      "outputs": [
        {
          "internalType": "uint256",
          "name": "",
          "type": "uint256"
        }
      ],
      "stateMutability": "view",
      "type": "function"
    },
    {
      "inputs": [],
      "name": "owner",
      "outputs": [
        {
          "internalType": "address",
          "name": "",
          "type": "address"
        }
      ],
      "stateMutability": "view",
      "type": "function"
    },
    {
      "inputs": [],
      "name": "proposalId",
      "outputs": [
        {
          "internalType": "uint256",
          "name": "",
          "type": "uint256"
        }
      ],
      "stateMutability": "view",
      "type": "function"
    },
    {
      "inputs": [
        {
          "internalType": "address payable",
          "name": "_to",
          "type": "address"
        },
        {
          "internalType": "string",
          "name": "_name",
          "type": "string"
        },
        {
          "internalType": "uint256",
          "name": "_amount",
          "type": "uint256"
        }
      ],
      "name": "releaseFunds",
      "outputs": [],
      "stateMutability": "nonpayable",
      "type": "function"
    },
    {
      "inputs": [],
      "name": "releasedAmt",
      "outputs": [
        {
          "internalType": "uint256",
          "name": "",
          "type": "uint256"
        }
      ],
      "stateMutability": "view",
      "type": "function"
    },
    {
      "inputs": [],
      "name": "renounceOwnership",
      "outputs": [],
      "stateMutability": "nonpayable",
      "type": "function"
    },
    {
      "inputs": [],
      "name": "totalDonationAmt",
      "outputs": [
        {
          "internalType": "uint256",
          "name": "",
          "type": "uint256"
        }
      ],
      "stateMutability": "view",
      "type": "function"
    },
    {
      "inputs": [
        {
          "internalType": "address",
          "name": "newOwner",
          "type": "address"
        }
      ],
      "name": "transferOwnership",
      "outputs": [],
      "stateMutability": "nonpayable",
      "type": "function"
    },
    {
      "stateMutability": "payable",
      "type": "receive"
    }
  ],
  "bytecode": "0x608060405234801561001057600080fd5b5061002d61002261003260201b60201c565b61003a60201b60201c565b6100fe565b600033905090565b60008060009054906101000a900473ffffffffffffffffffffffffffffffffffffffff169050816000806101000a81548173ffffffffffffffffffffffffffffffffffffffff021916908373ffffffffffffffffffffffffffffffffffffffff1602179055508173ffffffffffffffffffffffffffffffffffffffff168173ffffffffffffffffffffffffffffffffffffffff167f8be0079c531659141344cd1fd0a4f28419497f9722a3daafe3b4186f6b6457e060405160405180910390a35050565b61111b8061010d6000396000f3fe6080604052600436106100cb5760003560e01c8063b77894dd11610074578063ddcf88e01161004e578063ddcf88e0146102cc578063f2fde38b146102f7578063fd2c0b7e1461032057610124565b8063b77894dd14610227578063ba493d5214610264578063cc3044741461028f57610124565b8063715018a6116100a5578063715018a6146101ba5780638b7afe2e146101d15780638da5cb5b146101fc57610124565b80632dfca44514610129578063361ad97914610154578063530ec4b71461019157610124565b366101245734600260008282546100e291906109c0565b925050819055507f88a5966d370b9919b20f3e2c13ff65706f196a4e32cc2c12bf57088f88525874333460405161011a929190610a66565b60405180910390a1005b600080fd5b34801561013557600080fd5b5061013e61035d565b60405161014b9190610a8f565b60405180910390f35b34801561016057600080fd5b5061017b60048036038101906101769190610ae0565b610363565b6040516101889190610ba6565b60405180910390f35b34801561019d57600080fd5b506101b860048036038101906101b39190610c6b565b610408565b005b3480156101c657600080fd5b506101cf6105ed565b005b3480156101dd57600080fd5b506101e6610601565b6040516101f39190610a8f565b60405180910390f35b34801561020857600080fd5b50610211610609565b60405161021e9190610cdf565b60405180910390f35b34801561023357600080fd5b5061024e60048036038101906102499190610ae0565b610632565b60405161025b9190610ba6565b60405180910390f35b34801561027057600080fd5b506102796106d2565b6040516102869190610a8f565b60405180910390f35b34801561029b57600080fd5b506102b660048036038101906102b19190610ae0565b6106d8565b6040516102c39190610d15565b60405180910390f35b3480156102d857600080fd5b506102e16106f8565b6040516102ee9190610a8f565b60405180910390f35b34801561030357600080fd5b5061031e60048036038101906103199190610d5c565b6106fe565b005b34801561032c57600080fd5b5061034760048036038101906103429190610d5c565b610782565b6040516103549190610a8f565b60405180910390f35b60015481565b606060066000838152602001908152602001600020805461038390610db8565b80601f01602080910402602001604051908101604052809291908181526020018280546103af90610db8565b80156103fc5780601f106103d1576101008083540402835291602001916103fc565b820191906000526020600020905b8154815290600101906020018083116103df57829003601f168201915b50505050509050919050565b61041061079a565b80471015610453576040517f08c379a000000000000000000000000000000000000000000000000000000000815260040161044a90610e36565b60405180910390fd5b60016000815461046290610e56565b9190508190555060008473ffffffffffffffffffffffffffffffffffffffff168260405161048f90610ed0565b60006040518083038185875af1925050503d80600081146104cc576040519150601f19603f3d011682016040523d82523d6000602084013e6104d1565b606091505b5050905080610515576040517f08c379a000000000000000000000000000000000000000000000000000000000815260040161050c90610f31565b60405180910390fd5b81600460008773ffffffffffffffffffffffffffffffffffffffff1673ffffffffffffffffffffffffffffffffffffffff168152602001908152602001600020600082825461056491906109c0565b925050819055508383600660006001548152602001908152602001600020919061058f9291906108e4565b5081600360008282546105a291906109c0565b925050819055507f6e3c6096795c8298a218b2cfb8bde42726ff7c9a3d27b4d3ba41ab7f74feb5fb60015486846040516105de93929190610fb0565b60405180910390a15050505050565b6105f561079a565b6105ff6000610818565b565b600047905090565b60008060009054906101000a900473ffffffffffffffffffffffffffffffffffffffff16905090565b6006602052806000526040600020600091509050805461065190610db8565b80601f016020809104026020016040519081016040528092919081815260200182805461067d90610db8565b80156106ca5780601f1061069f576101008083540402835291602001916106ca565b820191906000526020600020905b8154815290600101906020018083116106ad57829003601f168201915b505050505081565b60035481565b60056020528060005260406000206000915054906101000a900460ff1681565b60025481565b61070661079a565b600073ffffffffffffffffffffffffffffffffffffffff168173ffffffffffffffffffffffffffffffffffffffff161415610776576040517f08c379a000000000000000000000000000000000000000000000000000000000815260040161076d90611059565b60405180910390fd5b61077f81610818565b50565b60046020528060005260406000206000915090505481565b6107a26108dc565b73ffffffffffffffffffffffffffffffffffffffff166107c0610609565b73ffffffffffffffffffffffffffffffffffffffff1614610816576040517f08c379a000000000000000000000000000000000000000000000000000000000815260040161080d906110c5565b60405180910390fd5b565b60008060009054906101000a900473ffffffffffffffffffffffffffffffffffffffff169050816000806101000a81548173ffffffffffffffffffffffffffffffffffffffff021916908373ffffffffffffffffffffffffffffffffffffffff1602179055508173ffffffffffffffffffffffffffffffffffffffff168173ffffffffffffffffffffffffffffffffffffffff167f8be0079c531659141344cd1fd0a4f28419497f9722a3daafe3b4186f6b6457e060405160405180910390a35050565b600033905090565b8280546108f090610db8565b90600052602060002090601f0160209004810192826109125760008555610959565b82601f1061092b57803560ff1916838001178555610959565b82800160010185558215610959579182015b8281111561095857823582559160200191906001019061093d565b5b509050610966919061096a565b5090565b5b8082111561098357600081600090555060010161096b565b5090565b6000819050919050565b7f4e487b7100000000000000000000000000000000000000000000000000000000600052601160045260246000fd5b60006109cb82610987565b91506109d683610987565b9250827fffffffffffffffffffffffffffffffffffffffffffffffffffffffffffffffff03821115610a0b57610a0a610991565b5b828201905092915050565b600073ffffffffffffffffffffffffffffffffffffffff82169050919050565b6000610a4182610a16565b9050919050565b610a5181610a36565b82525050565b610a6081610987565b82525050565b6000604082019050610a7b6000830185610a48565b610a886020830184610a57565b9392505050565b6000602082019050610aa46000830184610a57565b92915050565b600080fd5b600080fd5b610abd81610987565b8114610ac857600080fd5b50565b600081359050610ada81610ab4565b92915050565b600060208284031215610af657610af5610aaa565b5b6000610b0484828501610acb565b91505092915050565b600081519050919050565b600082825260208201905092915050565b60005b83811015610b47578082015181840152602081019050610b2c565b83811115610b56576000848401525b50505050565b6000601f19601f8301169050919050565b6000610b7882610b0d565b610b828185610b18565b9350610b92818560208601610b29565b610b9b81610b5c565b840191505092915050565b60006020820190508181036000830152610bc08184610b6d565b905092915050565b6000610bd382610a16565b9050919050565b610be381610bc8565b8114610bee57600080fd5b50565b600081359050610c0081610bda565b92915050565b600080fd5b600080fd5b600080fd5b60008083601f840112610c2b57610c2a610c06565b5b8235905067ffffffffffffffff811115610c4857610c47610c0b565b5b602083019150836001820283011115610c6457610c63610c10565b5b9250929050565b60008060008060608587031215610c8557610c84610aaa565b5b6000610c9387828801610bf1565b945050602085013567ffffffffffffffff811115610cb457610cb3610aaf565b5b610cc087828801610c15565b93509350506040610cd387828801610acb565b91505092959194509250565b6000602082019050610cf46000830184610a48565b92915050565b60008115159050919050565b610d0f81610cfa565b82525050565b6000602082019050610d2a6000830184610d06565b92915050565b610d3981610a36565b8114610d4457600080fd5b50565b600081359050610d5681610d30565b92915050565b600060208284031215610d7257610d71610aaa565b5b6000610d8084828501610d47565b91505092915050565b7f4e487b7100000000000000000000000000000000000000000000000000000000600052602260045260246000fd5b60006002820490506001821680610dd057607f821691505b60208210811415610de457610de3610d89565b5b50919050565b7f4e6f7420656e6f7567682066756e647300000000000000000000000000000000600082015250565b6000610e20601083610b18565b9150610e2b82610dea565b602082019050919050565b60006020820190508181036000830152610e4f81610e13565b9050919050565b6000610e6182610987565b91507fffffffffffffffffffffffffffffffffffffffffffffffffffffffffffffffff821415610e9457610e93610991565b5b600182019050919050565b600081905092915050565b50565b6000610eba600083610e9f565b9150610ec582610eaa565b600082019050919050565b6000610edb82610ead565b9150819050919050565b7f4661696c656420746f2073656e6420646f6e6174696f6e000000000000000000600082015250565b6000610f1b601783610b18565b9150610f2682610ee5565b602082019050919050565b60006020820190508181036000830152610f4a81610f0e565b9050919050565b6000819050919050565b6000610f76610f71610f6c84610a16565b610f51565b610a16565b9050919050565b6000610f8882610f5b565b9050919050565b6000610f9a82610f7d565b9050919050565b610faa81610f8f565b82525050565b6000606082019050610fc56000830186610a57565b610fd26020830185610fa1565b610fdf6040830184610a57565b949350505050565b7f4f776e61626c653a206e6577206f776e657220697320746865207a65726f206160008201527f6464726573730000000000000000000000000000000000000000000000000000602082015250565b6000611043602683610b18565b915061104e82610fe7565b604082019050919050565b6000602082019050818103600083015261107281611036565b9050919050565b7f4f776e61626c653a2063616c6c6572206973206e6f7420746865206f776e6572600082015250565b60006110af602083610b18565b91506110ba82611079565b602082019050919050565b600060208201905081810360008301526110de816110a2565b905091905056fea2646970667358221220919f1d59e9d4e1b8ab2fa9790c92d0a0f37e99943573eece389eba66a7f3a4cd64736f6c63430008090033",
  "linkReferences": {},
  "deployedLinkReferences": {}
}